:1000000028210020E11C0000DD1C0000DD1C000098
:1000100000000000000000000000000000000000E0
:10002000000000000000000000000000DD1C0000D7
:100030000000000000000000DD1C0000DD1C0000CE
:10004000DD1C0000DD1C0000DD1C0000DD1C0000CC
:10005000DD1C0000DD1C0000DD1C0000DD1C0000BC
:10006000DD1C00005916000069160000791600001A
:10007000891600000000000000000000DD1C0000E8
:10008000DD1C0000DD1C0000DD1C0000DD1C00008C
:10009000DD1C00000000000000000000190400004A
:1000A000DD1C0000FD050000DD1C0000DD1C000063
:1000B0000000000010B5064C2378002B07D1054B3B
:1000C000002B02D0044800E000BF0123237010BDC4
:1000D0000400002000000000A83C0000084B10B500
:1000E000002B03D00749084800E000BF0748036819
:1000F000002B00D110BD064B002BFBD09847F9E731
:100100000000000008000020A83C0000A83C0000FF
:100110000000000000B583B06846044B98476A466B
:1001200003490448044B984703B000BDDD040000B8
:100130000048004254000020F104000010B582B0D5
:1001400001A8074B9847074C01AA00212000064B45
:10015000984700212000054B984702B010BDC046CB
:10016000C905000054000020CD050000D1050000A5
:1001700010B54302181A6421034B984782B200213C
:100180000248034B984710BDB11F000054000020E7
:10019000D505000030B58FB001AA64230193214B2F
:1001A00053600023936013731376802189031161D8
:1001B00001214942D1829182253153549362083101
:1001C00053540131535401315354D7331386164BD2
:1001D000D361164B1362164C16492000164B9847F4
:1001E00024680722E3691A42FCD1226802231343E0
:1001F00023600F4D2868114B98471F2318401E3B62
:1002000083400F4A1360E8880023102105E0013382
:10021000834202D31023638302E0628B0A42F6D04A
:100220000FB030BD480D00000200080002000900B8
:100230007800002000080042C50600002D160000CE
:1002400000E100E08022D201014BDA617047C04634
:100250000044004170B584B00E4D0F4C05222900BA
:1002600020000E4B9847802212020D4BDA6101A943
:100270000C4B0A0041CB41C2188810809B789370C8
:1002800005222000084EB047052229002000B04773
:1002900004B070BD08010020A00000203D14000043
:1002A00000440041783B00003113000030B591B0AC
:1002B0008023DB05009300230193FF2269460A8116
:1002C00000228B72CB72012124206C462154013014
:1002D000215425316354013163540A930531635429
:1002E0000131635405932382E37622762277627686
:1002F0001323A3766277E1235B02089380235B03D9
:100300000393274B0C93274B0D9301235B420E93D2
:100310000F93254D254C6A4625492800A047002803
:10032000F9D1214D2C682000224B98471F231840FB
:100330001E3B8340204A13602A68D369002BFCD1FE
:100340002268023313432360E1235B020893802376
:100350005B030393194B0C93194B0D9301235B42E1
:100360000E930F93174D114C6A4617492800A0476A
:100370000028F9D1134D2C6820000E4B98471F23FD
:1003800018401E3B83400C4A13602A68D369002B37
:10039000FCD1226802331343236011B030BDC04644
:1003A0000200160002001700D4000020CD0F00004C
:1003B000001400422D16000000E100E002001000D1
:1003C00002001100A0000020000C004270B5084C93
:1003D000002208492000084DA847012207492000B3
:1003E000A8473122A15C03230B43A35470BDC04630
:1003F000A000002045020000251400005502000066
:1004000010B5010004220248024B984710BDC046B7
:10041000D40000203113000070B52D4B1C682368F8
:100420001D7EEDB2EA0735D5E27ED20732D5A27E37
:10043000D2072FD501221A762268537E5BB2002B99
:10044000FBDB61698B1C6361538B9BB20B80238B3D
:10045000013B9BB22383002B11D0637F002B19D06B
:100460002268537E5BB2002BFBDB117B02230B4324
:1004700013732268537E5BB2002BFBDB0AE0237F01
:10048000052B07D1002323770133226893752000C1
:10049000A36898476B070BD5042322681376E37E85
:1004A0009B0705D5A37E9B0702D52000E3689847EC
:1004B000AB070BD5022322681376E37E5B0705D5D5
:1004C000A37E5B0702D523692000984770BDC04614
:1004D000100100200368D879C00970470023037019
:1004E00001224270837003714371C370837170473E
:1004F000F0B5474680B484B00500140001602C4A72
:10050000136A8020C002034313620B781C209B07F0
:100510004AD40B781738DB0746D403A9E3780B706D
:100520001C30244B98472120234B9847002602ABD0
:100530005E70DE70012302AA137096701100022013
:100540001E4B98472F6863782B71AE71A3795A1EA2
:1005500093419B002178A2788846002A02D0042289
:10056000114388462279002A03D0102241461143C4
:1005700088466279002A03D0082241461143884602
:10058000DBB23B700E4E2800B0470028FBD143463B
:100590006A46D371D3797B7023786B7100236B61CA
:1005A000AB61EB61074B1D6004B004BC9046F0BD2D
:1005B00000040040851B0000F91A00007D1C0000AB
:1005C000D5040000140100207047C0467047C046A3
:1005D0007047C046F8B5040017000668064D2000B5
:1005E000A8470028FBD1A379002B01D0B78100E0F8
:1005F00037810020F8BDC046D504000070B5264BF9
:100600001C682568AB79DB070AD50123AB71230091
:10061000143305D0637C002B02D00020A3699847D7
:10062000AB799B0737D50223AB71A3899BB2002B13
:1006300028D0E3899BB25A1C92B2E2815B00A26887
:10064000944663441B889BB2AB81A389013B9BB258
:10065000A381A3899BB2002B14D100222033E25442
:100660001E3B2B71AB71802189047E330B4AD15024
:10067000230014330FD0A37C002B06D00020E369A5
:10068000984702E02300143305D0237C002B02D0CE
:1006900063690020984770BD1401002000E100E06C
:1006A00000B583B001AB80221A700A785A704A787C
:1006B0009A708A78DA701900014B984703B000BD30
:1006C0007D1C0000F0B55F4656464D464446F0B4EA
:1006D0008BB007000D00160039600800994B984751
:1006E00099490A6A841C0123A34013430B6209A998
:1006F000337B0B701430C4B22000944B9847200019
:10070000934B9847307B0021924B98472B681C20D5
:100710009B0700D50FE12B681738DB0700D50AE1EE
:100720003868884B9946984704008B498B4B98470B
:10073000A4008B4BE75000233B767B7600247B8321
:10074000BB832522BC543B6214332B603B68984624
:100750001800C8478146802308AA137054700123EB
:100760009370D470F069356A002803D100214046A7
:100770007C4B984708AB1870022308AA5370000CF2
:10078000C0B21100784B9847002D04D1012140469A
:10079000744B9847050008AB1D70022308AA5370DC
:1007A000280CC0B21100704B9847B38AFB80F38AC3
:1007B0003B81327E8023002A04D16C4B9B789B07BF
:1007C000DB0FDB01B16832690A4313432422B25CB8
:1007D000002A02D08022D2051343B26A13432C228E
:1007E000B25C002A03D180229204914202D180227D
:1007F000120513432D22B25C002A02D0802212047B
:1008000013432E22B25C002A02D08022D20313436B
:100810004246126813434246136080235B005360D4
:1008200048461430C0B2524B984705000790FA274B
:10083000BF0033685F4373689A464E4CA0470290EE
:1008400003917800A04700900191308E6843A04743
:10085000494B9B46494A4A4BD8474A4D00224A4B8E
:10086000A847049005913800A04702000B000498A7
:100870000599D84702000B00444C02980399A04701
:10088000009A019BA8470022414BA047009A019B78
:10089000404CA047404B98470400B26880239B041B
:1008A0009A4242D1FA21890057464F430298039950
:1008B00002000B00A8470090019138002D4B98478B
:1008C0000022364BD84702000B0000980199314EA8
:1008D000B04700222E4B2D4EB0472F4B9847061E97
:1008E00006D0390007982E4B98470238831B07E043
:1008F0007900481E079B9C466044294B9847431E3D
:10090000FF2C03D8FF2B03D9402014E0402012E035
:10091000FF221440360634431B04FF221204134006
:100920001C434346DC60002005E04020FF2C02D839
:1009300000260023ECE70BB03CBC90469946A2464B
:10094000AB46F0BD890F000000040040851B00008D
:10095000F91A0000350E0000710A0000ED150000C4
:1009600018010020810E00007D1C000000200041C5
:10097000A11B00006D3A0000652E000095D626E808
:100980000B2E113EE12100000000244059330000ED
:100990000000F03F39280000013A00000000084044
:1009A0009D1E000001680722CB691A42FCD17047E6
:1009B00070B5040006683268438B858B5D1BADB251
:1009C000838B013B9BB2838313010CD5C37A002B2D
:1009D00015D0838B9BB2012B11D173688022D20278
:1009E000134373600BE0C37A002B08D0838B9BB258
:1009F000002B04D173688022D20213437360A38B4F
:100A00009BB2002B0AD1A37A002B07D02000084B01
:100A100098477368C0229202134373602000044B0E
:100A20009847236A5D192823F35CDBB22B7070BDF5
:100A3000A509000070B504000668738B5B0703D539
:100A40001E222523C2540FE0438B858B5D1BADB264
:100A5000838B013B9BB28383044B9847236A5D19C8
:100A60002B78DBB22822B35470BDC046A509000024
:100A700070B580006F4BC45825682B681B01DA0FD6
:100A8000637E267E1E40638B9BB2002B35D1A38BE9
:100A90009BB2002B31D02B7EDB071BD501232B769D
:100AA0006B8B9B0703D541222523E25412E06B8B0D
:100AB0005B070FD518222523E2540023A383A37AD2
:100AC000002B07D020005C4B98476B68C022920235
:100AD00013436B60A38B9BB263832523E35C052BDD
:100AE00056D11F33E35C002B03D12000534B9847B2
:100AF0004EE02000524B98474AE0638B9BB2002B9C
:100B000026D0A38B9BB2002B22D12533E35C052B8F
:100B10001ED11F33E35C002B1AD103332B75002346
:100B2000638325330022E254A37A002B08D02000EF
:100B3000414B98476B68C022920213436B6001E0FF
:100B400001232B76F30723D5E368200098471FE0A5
:100B5000638B9BB2002B1BD0A38B9BB2002B17D0B7
:100B60006B8B9B0609D4002A03D0A38B9BB2012B6D
:100B700003D041222523E2540AE02423E35C002B26
:100B800003D120002D4B984702E020002C4B9847C2
:100B9000638B9BB2002B2AD0A38B9BB2002B26D158
:100BA0002533E35C052B22D11F33E35C012B1ED1DF
:100BB0002B7E9B0701D502232B7603232B75002365
:100BC000638325330022E254B30707D52423E35C73
:100BD000012B03D123692000984708E0F30706D5CD
:100BE0002423E35C002B02D1E368200098472523EF
:100BF000E35C052B1CD02523E35C002B18D00323DA
:100C00002B7500236383A3832533E35C412B0AD038
:100C1000A37A002B07D02000074B98476B68E0228F
:100C2000D20213436B60730702D5636920009847B3
:100C300070BDC04618010020A5090000350A00005B
:100C4000B109000010B5490840230024814201D2B7
:100C50000AE01C00091A631C9BB28842F9D94023A0
:100C6000FF2C01D814800023180010BDF0B55F469A
:100C700056464D464446F0B489B00C00059212AA7F
:100C8000117802004A434025A24200D9C6E0002B59
:100C900051D1020008000021644DA8478346260078
:100CA00000270023002400930194002200233F200A
:100CB00020218C461F390296039720246442041990
:100CC00003D40D00A540A84604E06446241A0D0094
:100CD000E540A8460C008440A14614001D00A4185D
:100CE0005D4122002B0046465F463E4203D00E0087
:100CF000264332002B00029C039D9D420FD801D158
:100D000094420CD8029C039D121BAB414D46009EA1
:100D1000019F35433C004646344300950194013819
:100D2000CBD20022012300980199121A8B41120C98
:100D30001B041A436FE00022012B6CD1630F049354
:100D4000E30098460A0000230021384CA047040025
:100D50000D0000239C46069320339B4601266346E4
:100D6000079300230293002200233F210094019562
:100D70000F0020214942791803D43000884084466E
:100D800004E05946C91B3000C84084463100B940D0
:100D90008946100019008018594102000B00444692
:100DA0004D462C40A2466446049D2C40A446544621
:100DB00065462C4303D03400044322000B00009806
:100DC000019999420AD801D1904207D80098019917
:100DD000121A8B410299484601430291013FC8D241
:100DE000009C019D0299079A8B1ADB0810498B42DF
:100DF0000BD9069B0133DBB21900069313000133B4
:100E000007930829ADD1402508E04025069A082A15
:100E100004D052031A43059B1A800025280009B00C
:100E20003CBC90469946A246AB46F0BD89210000E5
:100E3000FF1F000010B582B004000E4B1B78002B82
:100E400001D000290DD001A90C7013200A4B98473E
:100E500013200A4B9847074B5C7001221A70002040
:100E600006E0044B5B78834201D01D2000E00020A7
:100E700002B010BD20000020851B0000F91A000000
:100E80002E4B98421CD003D82D4B984207D04AE0F5
:100E90002C4B984225D02C4B984233D043E001296B
:100EA00006D0002941D0022906D0032906D001E04E
:100EB000264841E000203FE025483DE025483BE052
:100EC000012906D0002932D0022906D0032906D0F4
:100ED00001E0214830E000202EE020482CE02048AE
:100EE0002AE0012906D0002923D0022906D00329AF
:100EF00006D001E01B481FE000201DE01A481BE05F
:100F00001A4819E0012906D0002914D0022906D078
:100F1000032906D001E016480EE000200CE0154839
:100F20000AE0154808E0002006E0144804E0032029
:100F300002E0134800E013487047C046000C00422E
:100F400000080042001000420014004203000500A7
:100F500003000600030007000300010003001E0059
:100F600003001F000300090003000A0003000B0038
:100F7000030011000300120003001300030004002B
:100F8000030008000300100030B585B06A460E4B20
:100F900032CB32C21B6813600300009A82420FD02A
:100FA000019A824208D0029A824207D00020039A16
:100FB0009A4207D1033004E0012002E0022000E061
:100FC0000020C0B205B030BD843B0000F0B55F46E4
:100FD00056464D464446F0B491B005000C0016004C
:100FE00029600800B94B984722680523D20700D52D
:100FF00064E122681733920700D55FE1B4490A6AB9
:10100000871C1B3BBB4013430B620FA92D27F35DCD
:101010000B701430C3B202931800AE4B984702987D
:10102000AD4B9847F05D0021AC4B9847F37A6B715C
:101030002423F35CAB712523F35CEB71F37E2B72FD
:10104000337F6B722B6899461800A04B9847143079
:1010500000220E2306A98C4663441A80328A02922B
:101060008023DB019A421AD004D880239B019A4244
:101070000BD004E1C023DB01029A9A420AD08023FC
:101080001B029A4200D1FFE0F9E0102306930F3BC8
:101090000793FDE008230693073B0793F8E03368C6
:1010A0000493F3689B4673690393337E9846262323
:1010B000F35C059373689A46002B15D080235B057B
:1010C0009A4536D12723F35C002B36D1336A1F00B3
:1010D000C0B2834B984701000E2206AB9C46624487
:1010E0003800804B984725E0082306930023079398
:1010F0002723F35C002B0BD0069B0093079B0E224B
:1011000006A98C466244B16A306A774FB84711E04D
:10111000336A1F00C0B2724B98470100069B0093D0
:10112000079B0E2206A88446624438006E4FB847DB
:1011300000E00020031E00D0C0E0737E002B02D030
:10114000B37E4A4693732A68029FD369002BFCD171
:101150000E3306AA944663441B884A469381049B37
:101160005A461343039A1343524613433B434246A2
:1011700012021343059A57071F432723F35C002BE2
:1011800001D104331F43717E8902337F5B0219430F
:10119000737F1B0219432423F35C5B04194325234B
:1011A000F25C12041143F37A19433389FF2B04D004
:1011B000802252041743194305E0F37E002B02D02E
:1011C0008023DB041F432C23F35C002B03D1474B0C
:1011D0009B789B0701D580231F432A68D369002B86
:1011E000FCD14B4659602A68D369002BFCD14B4691
:1011F0001F600EAB80221A7000225A70DA709A704B
:10120000336B0A93736B0B93B36B0C93F36B029377
:101210000D9300270EAEF9B2BB000AAA9858002819
:1012200002D12000324B9847431C05D03070000C8F
:10123000C0B231002F4B98470137042FEBD1002368
:10124000EB602B616B61AB61EB612B62AB626B623C
:101250000022EB85AB853033EA540133EA54013385
:10126000EA540133EA542868184B9847040022498D
:10127000224B9847A400224BE55000231EE0102388
:1012800006930023079303E00323069300230793A9
:1012900033680493F3689B4673690393337E9846DF
:1012A0002623F35C059373689A46002B00D11FE751
:1012B00080235B059A4500D104E73EE7180011B092
:1012C0003CBC90469946A246AB46F0BD890F000053
:1012D00000040040851B0000F91A0000350E0000D4
:1012E000A11B0000450C00006D0C00000020004117
:1012F000810E00007D1C00005D140000ED15000053
:1013000018010020C2791C23002A0ED0C28D92B28F
:10131000173B002A09D10368DA69002AFCD1198534
:1013200002211A7E0A42FCD0002318007047C046F2
:10133000F0B54F4680B482B0040001911720002A16
:1013400049D0E3790530002B45D02768FB69002B95
:10135000FCD191460025012620E03A7E324204D19C
:10136000012B2AD0013B002BF7D16A1C92B2019BC2
:101370005B5D6179012902D099B2150005E0A91CD5
:101380008DB20199895C090219432000144B9847DA
:101390004A46013A93B29946002B16D03B7E33421F
:1013A000E3D1104BD9E73A7E0A4208D1012B08D08D
:1013B000013B002BF7D100200DE012200BE00020B4
:1013C00009E0122007E0002005E03B7E9B07FAD4ED
:1013D000044B0221E7E702B004BC9146F0BDC046D1
:1013E00005130000FFFF0000F8B506000C00150013
:1013F00007680A4B9847F38D9BB2002B03D0084B2C
:101400009847052009E0F585054B9847B462052209
:101410003323F254323BBB750020F8BDD1160000D7
:1014200011170000931C9B00C31859603021012341
:101430009340425C134343547047C04610B5172392
:10144000002A06D0C4790533002C02D0024B9847FD
:101450000300180010BDC046E9130000F8B5800075
:10146000604BC5582C68E369002BFCD1237EA67D18
:101470001E403023EB5C3122AF5C1F40F30722D5C6
:10148000EB8D9BB2002B1CD0AA6A1378DBB2511CE7
:10149000A9626979012901D09BB204E0517809025F
:1014A0000B430232AA62DB05DB0D2385EB8D013B8A
:1014B0009BB2EB85002B06D1013323750133A37555
:1014C00001E001232375B30709D502232375002208
:1014D0003133EA54FB0702D52800EB6898477307BD
:1014E00060D5AB8D9BB2002B5AD0638BDBB21A0751
:1014F00002D43F22134001E037221340002B2DD0AD
:101500009A0705D51A223223EA54303B63831FE041
:101510005A0705D51E223223EA542E3B638317E077
:10152000DA0705D513223223EA54313B63830FE0F7
:10153000DA0605D542223223EA54223B638307E0D0
:1015400020221A4204D021323223EA54123B638310
:101550007B0727D528006B69984723E0238DDB059F
:10156000DB0DDAB2696A0A706A6A511C69626979CC
:10157000012904D11B0A53706B6A01336B62AB8D76
:10158000013B9BB2AB85002B0CD1043323750022A9
:101590002E33EA54BB0705D528002B69984701E094
:1015A00004232375F30607D5102323752376FB0642
:1015B00002D52800EB699847B30607D52023237589
:1015C00023763B0702D52800AB699847330707D538
:1015D000082323752376BB0602D52B6A280098477B
:1015E000F8BDC046180100207047C04630B50B4B0F
:1015F0001B78002B0ED10A4C0A4D25600A4B0022A5
:101600001A6065605A60A5609A60E560DA60013230
:10161000024B1A708000024BC15030BD22000020E6
:1016200024000020E91500001801002030B583B027
:10163000050001AC042205492000054B984728000D
:10164000044B9847205603B030BDC046943B000081
:10165000653B0000890F000010B5024B1B6800209D
:10166000984710BD2400002010B5024B5B68012094
:10167000984710BD2400002010B5024B9B68022043
:10168000984710BD2400002010B5024BDB680320F2
:10169000984710BD2400002070B582B001AC012332
:1016A00063700022A270237021000E20064EB04706
:1016B000064D8023DB01AB6121000F20B047802362
:1016C0001B02AB6102B070BDA106000000440041E6
:1016D0000C4B1B68002B10D1EFF31083002B09D1AA
:1016E00072B6BFF35F8F0022074B1A700132074BAF
:1016F0001A7002E00022054B1A70024A1368013387
:1017000013607047340000200000002038000020E3
:10171000084B1A68013A1A601B68002B09D1064B66
:101720001B78002B05D00122044B1A70BFF35F8F8A
:1017300062B670473400002038000020000000200E
:1017400010B5082803D880001B4B1B589F4600206B
:1017500030E01A4B18692DE0194B1B6A9B059B0F53
:101760001848D84026E0154B586923E0134B1B68F6
:10177000022018401ED012491022CB681A42FCD019
:101780000E4B1B685B0714D500200F4B98470B4B83
:101790009B681B041B0C58430CE05023084AD35C85
:1017A00000205B0706D5054BD86803E080200002C7
:1017B00000E0064810BDC046983B00003C000020F9
:1017C0000008004000127A00A11B0000006CDC023F
:1017D00070B50C4C236A017885784278012002406C
:1017E00092014026B343134302002A40D2017F30C6
:1017F0008343134303220A40120203490B4013435D
:10180000236270BD00080040FFFCFFFF082803D8DA
:101810008000254B1B589F46172044E0234A116A3D
:1018200002230B43136200203DE0204A916902230A
:101830000B439361002036E01C4A118A02230B43BC
:10184000138200202FE0194A918A02230B439382CE
:10185000002028E016490B68022213430B60134B4B
:101860009A8419000E32CB681A42FCD0104A916853
:101870000E4BD96252689A6200229A841900103283
:10188000CB681A42FCD00A4B1B689BB2074A938470
:10189000002008E005494422885C022303438B545E
:1018A000002000E000207047BC3B00000008004022
:1018B0003C00002030B585B0C222D2001A4B9A609D
:1018C0001A4A53681E218B43536001236A461370E2
:1018D0000024174DE0B26946A8470134252CF9D100
:1018E00003A800244470012585700470114B9847AB
:1018F0000620114B9847114B9847114B1C725C7294
:101900009C72DC7201956B465C7006236A4613700C
:1019100014725472694600200A4B984700200A4B03
:10192000984705B030BDC046000800400040004167
:10193000851B0000D11700000D1800004D19000094
:101940000004004071190000291A0000064A91693C
:1019500008230B4393610122044B1A7019000B7882
:101960001342FCD17047C04600040040000C004008
:1019700070B5060005000C78240204434B78002B58
:1019800002D08023DB021C434B7A002B02D0802341
:101990001B031C434868012818D9431E184210D164
:1019A000022806D90223002201325B009842FBD8AC
:1019B00000E0002212023243150080235B031C4327
:1019C00004E00502354380239B021C430B7A002B65
:1019D00002D080239B031C430F4A53785BB2002B39
:1019E000FBDB0E4B98470E4B1E700B4A53785BB2D5
:1019F000002BFBDB084B9D601A0053785BB2002B79
:101A0000FBDB054A516880235B020B401C4354609A
:101A1000044B984770BDC046000C0040D116000032
:101A2000080C00401117000010B504000B4A537851
:101A30005BB2002BFBDB0A4B98470A4B1C70074A32
:101A400053785BB2002BFBDB044A536880214902C8
:101A50000B435360044B984710BDC046000C004038
:101A6000D1160000040C00401117000070B50400EE
:101A70001A4A53785BB2002BFBDB194B9847194B82
:101A80001C70164A53785BB2002BFBDB134E706858
:101A9000C004C00E144B98470500124B1C707668AA
:101AA000F602F60F114B1C700C4A53785BB2002BF8
:101AB000FBDB0A4B9C682402240C0D4B9847002E3C
:101AC00007D1012C07D9210028000A4B98470500AF
:101AD00001E00134E540280070BDC046000C004024
:101AE000D1160000040C004041170000080C004013
:101AF000111700009D1E000010B50400064B98470A
:101B0000064B1C70064A51888023DB010B4353802F
:101B1000044B984710BDC046D1160000020C00408F
:101B2000000C00401117000010B504000F4B98473F
:101B30000F4B1C700F4B5A881205100F59880E4A14
:101B40000A405A8059880D4A0A405A80190080225A
:101B5000D2014B881342FCD106494C880202064B45
:101B6000234013434B80064B984710BDD11600000D
:101B7000020C0040000C0040FFF0FFFFFFBFFFFF22
:101B80001117000010B50C7824020443024B98474B
:101B9000A4B2024B5C8010BD291B0000000C004069
:101BA00010B50400064B9847064B1C70064B5C882A
:101BB0002405240F054B98472000054B984710BD7E
:101BC000D1160000020C0040000C0040111700006C
:101BD0006D1A000030B5D378002B1ED11378802BFE
:101BE00004D01B0680246402234300E000235478C1
:101BF0000225AC430AD19478002C03D18024A4029E
:101C0000234302E0C024E402234341605478013CB2
:101C1000012C12D8184C23400FE041600B041B0C20
:101C2000A024E405234383620B0CD0242406234321
:101C30008362D378002B18D01CE00C04240CA02560
:101C4000ED052C431C4384620C0CD0252D062C433F
:101C50001C438462D478002C0CD15B0305D59378A7
:101C6000012B01D1816100E041615378013B012BDF
:101C700000D8816030BDC046FFFFFBFF10B50300F8
:101C80000A00C1090020002904D15809C0010549F2
:101C90008C4660441F210B401E399940024B9847E7
:101CA00010BDC04600440041D51B00007047C0462F
:101CB00010B5054B9847054B9847054B9847054B82
:101CC0009847054B984710BDB518000099160000BD
:101CD000AD1C0000AD1C0000AD1C0000FEE7C046BE
:101CE00070B52E4B2E4A9A4203D02E4B2B4A9A4265
:101CF00004D32D4B2D4A9A4210D31EE02C4A294B77
:101D000003339B1A9B0801339B000022234824497C
:101D10008C58845004329A42FAD1EAE7254A224B81
:101D200003339B1A9B0801339B0000221F480021AC
:101D30001418216004329A42FAD11F4AFF211F4B26
:101D40008B439360FD3990235B001D4AD1501D48A1
:101D5000C3780324A34302221343C370C3780C2621
:101D6000B34308210B43C370174B987B3025A8431E
:101D70000500202028439873987BB0430143997352
:101D8000997BA1430A439A73104A516880230B43FD
:101D900053600F4B98470F4B9847FEE70000002019
:101DA000A83C0000040000202801002004000020BE
:101DB000040000200800002000ED00E0000000000A
:101DC00000700041005000410048004100400041C7
:101DD000193B0000691E000070B58AB08022120213
:101DE000164B5A61164B9847164B98470122164BD3
:101DF0001A70BFF35F8F62B606A8144B020032CB95
:101E000032C2198811809B789370114CA04703A8A7
:101E1000104B020062CB62C2A04768460E4B6A4676
:101E200022CB22C21B781370A0470C4B98470C4B57
:101E300098470C4B98470AB070BDC046004400411B
:101E4000AD020000CD03000000000020E03B0000D8
:101E500001040000F03B0000FC3B00009501000085
:101E6000150100003D01000070B5094B9847094B72
:101E700098470020084B98470124074D0026200072
:101E8000A8470134E4B2622CF9D93400F7E7C04620
:101E9000B11C0000D91D00007101000000224308A0
:101EA0008B4274D303098B425FD3030A8B4244D322
:101EB000030B8B4228D3030C8B420DD3FF22090264
:101EC00012BA030C8B4202D31212090265D0030B23
:101ED0008B4219D300E0090AC30B8B4201D3CB0319
:101EE000C01A5241830B8B4201D38B03C01A52415B
:101EF000430B8B4201D34B03C01A5241030B8B425D
:101F000001D30B03C01A5241C30A8B4201D3CB0247
:101F1000C01A5241830A8B4201D38B02C01A52412C
:101F2000430A8B4201D34B02C01A5241030A8B422F
:101F300001D30B02C01A5241CDD2C3098B4201D347
:101F4000CB01C01A524183098B4201D38B01C01AC5
:101F5000524143098B4201D34B01C01A524103093C
:101F60008B4201D30B01C01A5241C3088B4201D3EB
:101F7000CB00C01A524183088B4201D38B00C01A98
:101F8000524143088B4201D34B00C01A5241411ABF
:101F900000D20146524110467047FFE701B50020CC
:101FA00000F0F0F802BDC0460029F7D076E7704790
:101FB00003460B437FD4002243088B4274D30309AA
:101FC0008B425FD3030A8B4244D3030B8B4228D34B
:101FD000030C8B420DD3FF22090212BA030C8B4271
:101FE00002D31212090265D0030B8B4219D300E011
:101FF000090AC30B8B4201D3CB03C01A5241830B96
:102000008B4201D38B03C01A5241430B8B4201D345
:102010004B03C01A5241030B8B4201D30B03C01A6E
:102020005241C30A8B4201D3CB02C01A5241830AE8
:102030008B4201D38B02C01A5241430A8B4201D317
:102040004B02C01A5241030A8B4201D30B02C01A41
:102050005241CDD2C3098B4201D3CB01C01A5241A8
:1020600083098B4201D38B01C01A524143098B4231
:1020700001D34B01C01A524103098B4201D30B011A
:10208000C01A5241C3088B4201D3CB00C01A52413F
:1020900083088B4201D38B00C01A524143088B4204
:1020A00001D34B00C01A5241411A00D2014652419D
:1020B000104670475DE0CA0F00D04942031000D3BC
:1020C0004042534000229C4603098B422DD3030A11
:1020D0008B4212D3FC22890112BA030A8B420CD321
:1020E000890192118B4208D3890192118B4204D34A
:1020F00089013AD0921100E08909C3098B4201D3CA
:10210000CB01C01A524183098B4201D38B01C01A03
:10211000524143098B4201D34B01C01A524103097A
:102120008B4201D30B01C01A5241C3088B4201D329
:10213000CB00C01A524183088B4201D38B00C01AD6
:102140005241D9D243088B4201D34B00C01A5241AD
:10215000411A00D20146634652415B10104601D33A
:102160004042002B00D54942704763465B1000D3C4
:10217000404201B5002000F005F802BD0029F8D06A
:1021800016E770477047C046F0B54F464646C0B4A4
:102190001604360C9946330005042C0C070C150C5C
:1021A00063437E436F4365431C0CAD1964199C4621
:1021B000A64203D980235B02984647446346250C18
:1021C000EF191D044B464A4343432D0C2404641964
:1021D0009918C91920000CBC90469946F0BDC0461C
:1021E000F8B556465F464D464446F0B40F00FD0F25
:1021F000AA4609037C002E005F00450F490A7F0DA7
:102200002943C5001803BC46400A570F640DDB0F75
:102210003843D2009A4500D1AAE06646A61B002E9C
:1022200000DCFFE06346002B39D10300134300D0EC
:10223000D9E06B0709D00F232B40042B05D02B1DB1
:10224000AB42AD416D4249191D000B0200D482E042
:10225000CA4B01349C4200D1FEE00A005646C84BEE
:10226000ED081A405007640552020543120B640D35
:10227000002112030B0D1B056405120B1A436308A2
:10228000C04CF60714401C43640064083443280023
:1022900021003CBC90469946A246AB46F8BDB74BE0
:1022A0009C42C6D080231B041843382E00DDEBE08F
:1022B0001F2E00DD1EE120239B1B9C46030067466A
:1022C000BB40984613004746F3403B436746BA403D
:1022D000571EBA4113430200F240EB1A9D42B64129
:1022E0001D008A1A7642911B0B0231D54A02560A0A
:1022F000002E00D1B4E0300001F0F0FB0300083BF9
:102300001F2B00DDB5E020222900D21AD1409E40CB
:102310000A009D4032439C4200DDB1E01C1B631C5F
:102320001F2B00DDD5E0202114002800C91A8C40A5
:10233000D8408D400443DA40681E85411100254392
:10234000002476E74146314300D134E2310045466E
:102350006B0700D06FE756464807ED08C9080543EC
:10236000864B9C4235D00A036405120B640D7FE74F
:102370006346E31A9B46002B00DC8BE06746002F88
:102380003CD07E4FBC4200D153E780273F04384306
:102390005B46382B00DCF7E00243501E82410020F0
:1023A000D2B253194218AB4289411D0049428918E3
:1023B0000B02CDD5714B01349C4200D13DE101208F
:1023C0006F4A6B080A4028401843D5070543510857
:1023D0002FE72B000B4300D1CBE180231B030B43E2
:1023E0001A03120B44E7013E002E6DD1AE1AB5421E
:1023F0009B41091A5B42C91A350075E7070017436C
:1024000000D116E701235B429C46E3445B46002B68
:1024100000D0E0E0AA18AA429B4109185B42591873
:102420001500C5E7002E75D1661C7605760D012EC8
:1024300000DCF3E0AE1AB0464545BF410E1A7F42BC
:10244000F61B370200D48FE0551BAA42B641411A51
:1024500076428E1B9A464BE756460022002507E738
:10246000280001F03BFB20300300083B1F2B00DC61
:1024700049E72A002838824000259C4200DC4DE7CD
:102480003F49E41A1140D4E60243501E8241D3B2C0
:10249000002222E7002B00D0F3E0631C9C465B0582
:1024A0005B0D012B00DC9FE0344B9C4500D1C3E069
:1024B000AA180918AA42804140424118CD07520883
:1024C000154349086446B4E62C4B9C4200D0ECE628
:1024D000AFE611001F3CE1400C00202B00D17FE053
:1024E0004021CB1A9A4015436A1E9541002125438D
:1024F00000242DE733000700203BDF403B00202E67
:1025000070D04027BE1BB0400243501E824113438F
:102510000022E2E6002C4FD0184CA44500D1ABE0DD
:102520008024240476422143382E00DDDFE01F2E74
:1025300000DD43E12027BC1BA1460C004F46BC40F8
:10254000A0462C004746F4403C434F46BD406F1E1A
:10255000BD41F1402C43151BAA429241411A5242FF
:10256000891A64469A46BFE641464546314300D043
:10257000BEE6002600240025F2E6C046FF07000064
:10258000FFFF7FFFFFFF0F801F2B59DC2027FF1A63
:10259000BC46070063469F405B46B9461700DF40D4
:1025A000B8464F4643461F4363469A40531E9A41DE
:1025B0005B463A43D840F4E60C002C435CD0F6432B
:1025C000002E55D1551BAA42A441411A6442091B51
:1025D0009A46644688E6964FBC4200D0D8E628E684
:1025E000002280E700208FE70B002B43002C00D057
:1025F000C2E0002B00D101E10300134300D118E633
:10260000AB18AB42B6410918764271180A0200D4E1
:1026100009E1884A1D00114064460AE6002C5BD19E
:102620000E002E4300D08AE00100114300D1C2E029
:10263000010015009A46FCE56446002100258FE65E
:1026400020235B429C46DC4463460700DF405B4638
:10265000BC46202B00D1ACE040235F46DB1B9840FA
:102660000243501E8241634613431A00002098E63D
:102670006F4CA44500D057E70100150064469A4608
:10268000D7E5002C39D10C002C436ED0DB43002B56
:102690001AD0674CA44568D0382B00DDA4E01F2B6E
:1026A00000DDAEE020240F00E41AA740B9462F0059
:1026B000DF40B846A3464F46444627435C46A54004
:1026C0006C1EA541D9403D43AD1895429B41091868
:1026D0005B42591864466BE60C002C4315D101008F
:1026E00011437BD0010015009A46514CA1E50D43E2
:1026F000691E8D410021ECB22DE74D4CA44534D02C
:10270000802424045B422143C6E7040014434ED0D6
:10271000ED084C072C438025C9082D03294208D019
:10272000C6082E4205D1D208410711430C009A4633
:102730003100620FC900E50011433D4C79E5060008
:10274000164300D175E5AE1AB0464545BF410E1A95
:102750007F42F61B370200D4F4E5551BAA42B6416E
:10276000411A7642891B9A4663E5010015006446CA
:102770005FE5002200257BE5002B3BD003001343DF
:1027800015D0ED084B072B438025C9082D0329429E
:1027900007D0C4082C4204D141070B002100D20805
:1027A0001343C9005A0F1143DD00214C41E5204C71
:1027B0003FE5002054E700260025D1E534000F0056
:1027C000203CE7403C00202E2BD04027BE1BB140D0
:1027D0000D43691E8D4100212C43BCE6802100265B
:1027E0000903134C0025BBE50D43691E8D410021F3
:1027F000EDB269E7010015000D4C1AE50100150066
:1028000017E51C000F00203CE7403C00202B0CD0BB
:102810004027FB1A99400D43691E8D410021254335
:1028200052E70021D4E71D0092E50021F3E7C046FE
:10283000FF070000FFFF7FFFF0B556464D464446B8
:102840005F46F0B41D000E034C00CB0F87B00700AD
:1028500092468146360B640D98466AD06D4B9C4279
:1028600035D08022430F12041343F6001E43C300E9
:102870009946694B00279C460023644402932B032E
:1028800068001B0BED0F51469B46400D009500D193
:1028900078E0604B98426CD05B46DA004B0F8021A9
:1028A00009040B4313439B465346D9005A4B9C469D
:1028B000002360444246201A6A40924601901F431A
:1028C0000F2F00D9B0E05548BF00C05987463743A5
:1028D00000D088E00023994602330827002602939F
:1028E000CDE74346B34649460093029B009A924681
:1028F000022B00D0BFE10021534601220026894669
:102900001A40444B002136030C0D2405360B264398
:10291000434C1B0526401E437600D207760816431B
:102920004846310007B03CBC90469946A246AB46AB
:10293000F0BD330003434FD0002E00D1BCE1300086
:1029400001F0CCF803000B3B1C2B00DDADE11D2298
:102950000100D31A08393A008F408E40DA40B94658
:102960001643304B00279C460023604444420293A8
:1029700085E753465A4613432CD1002300219B463A
:10298000023397E70B4320D05B46002B00D19EE13A
:10299000584601F0A3F803000B3B1C2B00DD8FE130
:1029A00002005946083A91408B461D21CB1A5146E8
:1029B000D9400B0059460B4351469B469140194B59
:1029C0009C4660444042002374E7002300219B465C
:1029D00001336FE703236DE7002399460133042792
:1029E000002602934BE703230C27029347E70122BB
:1029F000D51A382D00DCB0E153461A4000210023DF
:102A0000002689467EE70023802699460022360369
:102A1000004B77E7FF07000001FCFFFF083C0000C8
:102A2000FFFF0F80F30300005E4500D972E100D183
:102A30006DE1019B4D46013B01930023340002935D
:102A40005B461E020B0E1E430B020393330C99468A
:102A500033041B0C494620000093FFF71FFA009B2C
:102A6000370043430600494620009846FFF79CFA8A
:102A70002C0C09040C43A04509D9E419731EA74284
:102A800000D95CE1A04500D859E1023EE419434673
:102A9000E41A49462000FFF701FA0300009A804635
:102AA0005343494620009B46FFF77EFA2A04090457
:102AB000120C0A4393450DD94346D219013B974264
:102AC00000D93AE1934500D837E102235B429C46A6
:102AD000D219E0445B46D21A4346360433439B4640
:102AE0000399180C0B0C1D00059309045B46090C97
:102AF0000C001B041B0C4443049159436B43684373
:102B00001B190D0CEB189C4203D980246402A446C7
:102B100060441C0C09041B04090C20185D18824237
:102B200000D2DEE000D1D7E0161A029B9C465D1B66
:102B3000AC459B415B42F61AB74200D106E14946DB
:102B40003000FFF7ABF9009B0400434349463000D7
:102B50009846FFF729FA2E0C09040E43B04509D90F
:102B6000F619631EB74200D9F3E0B04500D8F0E093
:102B7000023CF6194346F31A494618000293FFF740
:102B80008DF9009B06004343494602989846FFF79B
:102B90000BFA2D0409042D0C0D43A84509D9ED1994
:102BA000731EAF4200D9D6E0A84500D8D3E0023E5C
:102BB000ED192404210043463143049E059A300058
:102BC000ED1A0B040C0C1B0C58436643534354433F
:102BD0009A19030C9B189E4203D9802252029446F4
:102BE00064441A0C00041B04000C14191B18A542A1
:102BF00050D34DD001231943964A019B9446634418
:102C0000002B00DCF3E64A0709D00F220A40042A11
:102C100005D00A1D8A42894149428B4411005A4617
:102C2000D20108D55A468C4B1A4093468022D200D6
:102C30009446019B6344894A934200DD5BE65A4611
:102C4000C908500708435602514601225B058146D8
:102C5000360B5B0D0A4055E680231B031E4211D044
:102C60005A461A420ED15E461E433603360B2A00E0
:102C700089467B4B46E6032B00D1E1E0012BBBD11B
:102C80001A40BBE61E433603360B4246744B39E608
:102C9000002BB1D07D194A1EAF4252D91100A54276
:102CA000A8D1039A9A42A5D1A6E703003E00283B8B
:102CB0009E400023994654E600F010FF203041E684
:102CC00003005246283B9A400021934677E650463F
:102CD00000F004FF20305EE6029B0026AB4200D3EA
:102CE00023E7039E0299B44661448846B045B64145
:102CF0005B467642F619B218013B0291974213D215
:102D000090424FD800D18EE0161A9B460DE78945B8
:102D100000D28EE674084B46F60735005B081D436B
:102D20004B46DB0702938BE69742EDD10399029C59
:102D3000A142E5D93E1A9B46F7E69846CAE61E0030
:102D4000A5E6AC423ED874D0110053E701214942B8
:102D500052E71C000EE71E002BE71F2D3CDC202352
:102D60000A0058465B1B9840EA4099400243481EBF
:102D700081415E461143EE404B0709D00F230B40C3
:102D8000042B05D00B00191D99429B415B42F6189C
:102D900033023CD55346012200211A40002601236C
:102DA0008946AFE502235B429C46039CE344A4466C
:102DB000029B63449846A045B6417642F6190293B9
:102DC000B218B1E603988A1E41008142B6417642AC
:102DD000F619AD19039161E71F225242D31A5A46E0
:102DE000DA401300202D29D040225846551BA84018
:102DF0000143481E814107200B431840002600284C
:102E000009D00F2200261A401900042ABBD10B005A
:102E100070077602360BDB080343994601225346BE
:102E20001A4000236EE502998D42BBD89B460026CE
:102E30007BE603989842C5D3110032E70020D7E71C
:102E400080265B4636031E433603360B009A8946BE
:102E5000034B57E5FF030000FFFFFFFEFE070000E6
:102E6000FF070000F0B55F4656464D464446F0B4B5
:102E70000D0399464E002B0B87B007009246804603
:102E80009B46760DCC0F002E69D06D4B9E4235D0FF
:102E90005B468022DD001204430F13432B439B4605
:102EA000C3009846674B00279C4600236644019365
:102EB0004A4615035000D20F53462D0B400D914644
:102EC00000D176E05E4A90426CD080225B0F120403
:102ED00013435C4AED0094461D4353460022DB0039
:102EE000604449463618701C6140029017430F2F0A
:102EF00000D9AFE05448BF00C759BF465B461F43E7
:102F000000D088E000239B469846023308270193AF
:102F1000CEE74946022A6AD0032A00D109E2012AF3
:102F200000D0BBE111400022002300259046CCB226
:102F300000212D030A0D12052D0B1543434A1B05D5
:102F400015401D436D00E4076D08254340462900E8
:102F500007B03CBC90469946A246AB46F0BD034341
:102F600052D05B46002B00D18AE1584600F0B6FDF6
:102F700003000B3B1C2B00DD7BE11D22D31A3A0022
:102F800001005D46DA4008398D4013008F402B4325
:102F90009B46B8462E4B00279C4600236044464281
:102FA000019385E752462A432CD1002500230222B3
:102FB00097E752462A4321D0002D00D154E1280042
:102FC00000F08CFD03000B3B1C2B00DD46E11D21B6
:102FD000CB1A51460200D9405346083A95409340D7
:102FE0000D431B4A944660444042002279E7012485
:102FF00000220C40124B0025904699E70025002343
:1030000001226EE703226CE700239B4698460133BA
:10301000042701934CE703230C27019348E700237F
:103020008025984600242D03054B81E75D464346E5
:10303000019A6FE75D4643462100019A6AE7C04660
:10304000FF07000001FCFFFF483C0000FFFF0F806E
:10305000F30300004246120C91461A0C9446424675
:1030600017044A461B041B0C5A43604690464A46C6
:1030700042431000039262461C003F0C7A437C439B
:1030800042440192220C9246019A5244904506D93C
:103090008246802040028046C24450460390100C75
:1030A000049048462404240C1204121905922A0C98
:1030B0002D042D0C68432C00824648467C43504327
:1030C0008146200C8046574357444744BA4503D9AC
:1030D000802040028046C144380C3F04B846484432
:1030E0002404240C01900498A044404404905846C1
:1030F000000C814658460404200C824607004846CE
:103100005F434C46434360466043644683465046B3
:103110004443380C8446E4186444A34203D9802312
:103120005B029C46E34448463F04230C3F0C2404C6
:10313000E419574668436F4384464D46504655430D
:103140004243380C814662444A445B44944503D967
:10315000802040028446654403983F0483460498D7
:103160003F0C8446E344C3458041404282461004FC
:1031700084460198674484466744A344BC46A345FB
:10318000A4419946D44464428742BF41D44580411A
:10319000E144A04699459B417F424042C8440743D1
:1031A000120CBA18A045A4415F423B00644223437D
:1031B000D71843467D19DB0D6D021D435B465A024D
:1031C000059B1A43531E9A415B46DB0D1A43434647
:1031D0005B021343EA0107D501225C081340234335
:1031E000EA07029E13436D08574AB218002A4BDDC6
:1031F000580709D00F201840042805D0181D984200
:103200009B415B42ED180300E80104D54F4A15408D
:103210008022D200B2184E48824200DDE7E6012447
:10322000DB08680718436D02530580462D0B5B0DC4
:103230000C407DE6802259461203114208D0154207
:1032400006D115432D0398462D0B4C46414B6FE696
:103250005D4615432D032D0B3E4B69E60300554695
:10326000283B9D400023BCE6504600F037FC203050
:10327000A8E60300283B9F400023BB46984689E60A
:1032800000F02CFC203073E60124A61A382E07DD4E
:1032900000220C4000230025904649E6029EA3E749
:1032A0001F2E20DC20222C001800921BF04094409E
:1032B00093400443581E83411C43F540630709D0E3
:1032C0000F232340042B05D023001C1D9C42924158
:1032D0005242AD182B021FD5012400220C400123BD
:1032E0000025904624E61F202C004042821AD4403C
:1032F000202E1CD04022961BB5402B43581E8341E4
:103300000720234318400025002809D00F2200255C
:103310001A401C00042AD8D1230068076D022D0B27
:103320000124DB08034398460C40002300E60025F7
:10333000E3E780220124120315432D0398462D0B49
:103340000C40044BF4E5C046FF030000FFFFFFFE06
:10335000FE070000FF070000F0B557464E46454601
:10336000E0B40E001100F20F9246C500420F1803A0
:1033700037037400400A4E0F7F0A3043CF4E174385
:103380005A00640D520DDB0FC900B24200D1E5E0D6
:1033900001267340A61AB446534500D1AFE0002E73
:1033A00000DC0DE1002A3AD103000B4300D0E4E039
:1033B0006B0709D00F232B40042B05D02B1DAB42EC
:1033C000AD416D427F191D003B0200D488E0BB4B2C
:1033D00001349C4200D110E13A00B94B51461A40E9
:1033E00001235007ED08520264050543120B640DDA
:1033F0000B400021280012030D0D120B64052D0552
:1034000015436208AF4CDB072C401443640064088A
:103410001C4321001CBC90469946A246F0BDA74B18
:103420009C42C5D080231B0418436346382B00DD23
:10343000FDE01F2B00DD30E1624620239B1A0200D5
:103440009A40664690460A009940F24046464B1E16
:1034500099413243114363460200DA40691A8D42B2
:103460009B410D00BA1A5B42D71A3B0235D57A024E
:10347000530A98464346002B00D1C4E0404600F072
:103480002DFB0300083B1F2B00DDC5E02022290097
:10349000D21A4746D1409F400A009D403A439C4281
:1034A00000DDC0E01C1B631C1F2B00DDE4E02021BD
:1034B00014002800C91AD8408C408D400443DA40DB
:1034C000681E854117002543002471E74246634684
:1034D0001A4300D14CE2674645466B0700D069E7C6
:1034E000012351467807ED08FA080B40054373495C
:1034F0008C4238D012036405120B640D79E7002E5C
:1035000000DC9AE0002A47D06C4A944200D14FE791
:103510008022120410436246382A00DC08E101438D
:10352000481E81410022C9B24919D219A942BF419E
:103530000D007F42BF183A0200D442E15F4A0134D5
:10354000944200D14EE101205D4A69083A4028408A
:103550000843D507054357089A4629E706000E4356
:1035600000D017E714E72900114300D1F9E18021C9
:1035700009030A431203120B3BE701235B429846FF
:10358000C4446346002B72D1691A8D429B413F1A95
:103590005B42FF1A0D0068E702000A4300D107E70B
:1035A000012252429046C4446246002A00D0E6E01E
:1035B0006918A942B6413F187642F7190D00BAE7DB
:1035C000002E00D080E0621C5205520D012A00DC62
:1035D000F9E06A1A91464D45B6413A1A7642921B75
:1035E0009046120200D499E04D1BA9428941C71BA5
:1035F00049427A1A90469A463CE7524601230025F2
:1036000013400022F5E6280000F068FA203003009D
:10361000083B1F2B00DC39E72A00283882400025B0
:103620009C4200DC3EE7264FE41A1740C0E6014307
:10363000481E81410022C9B210E7002E00D0F1E0FF
:10364000621C94465205520D012A00DCA0E01B4A80
:10365000944500D1C5E06918A94292413F185242F1
:10366000D2194908D5070D4357086446A0E6134B05
:103670009C4200D0D9E69BE611001F3CE1400C00C3
:10368000202B00D180E04021CB1A9A4015436A1EBE
:1036900095410027254300241FE763460200203B95
:1036A000DA406346202B71D0402366469B1B98402E
:1036B0000143481E814111430022CFE6FF0700006D
:1036C000FFFF7FFFFFFF0F80002C48D0CA4CA242B3
:1036D00000D1A2E07442A1468024240427434C4632
:1036E000382C00DDDBE01F2C00DD44E14E462024B9
:1036F000A41B3E00A640A246B0464C462E00E64023
:10370000B4464646644626435446A5406C1EA54131
:1037100034002C434D46EF400D1B28E04A464346FB
:103720004D461A4300D0A5E6002300240025DEE61E
:103730001F2A5ADC66462022921B060096409146BC
:10374000B04662460E00D640424616434A46914075
:103750004A1E9141020060463143C240E4E63C000B
:103760002C435AD0F443A146002C52D14D1BA94200
:103770008941C71B49427F1A14009A4675E69E4A42
:10378000944200D0C7E613E600227FE700208FE7CF
:10379000002C00D0C8E03B002B4300D10FE1030018
:1037A0000B4300D104E66918A9429B413F185B42D4
:1037B000DF193B0200D41AE1904B0D001F40644614
:1037C000F6E59A4689E63A002A43002C5CD1002AA5
:1037D00075D102000A4300D1CAE007000D009A46E5
:1037E000E6E564460022002581E662460600203AAE
:1037F000D6406246B046202A00D1B7E04022664655
:10380000921B904001434246481E814111430022D1
:103810008AE6794CA24200D061E707000D0014004F
:103820009A46C5E5002C41D13C002C4378D0F443A6
:10383000A146002C20D0704CA24271D04C46382CAE
:1038400000DDB2E01F2C00DDBCE02026341BA246C8
:103850003C005646B4404E46A0462C00F440A446D8
:10386000444666463443A4465446A54064466E1E0C
:10387000B54125434C46E7406D188D4289413F18BC
:103880004942CF19140056E6002A2FD102000A43FC
:1038900000D184E007000D009A46574C88E53D436F
:1038A0006F1EBD41ECB200270D1B60E7524CA242D7
:1038B00036D0744280263604A1463743BEE7020064
:1038C0000A4300D174E56A1A90464545B6413A1A52
:1038D0007642921B9446120200D4F7E54D1BA94292
:1038E0008941C71B49427F1A9A4661E502000A4393
:1038F0003AD0ED087C072C438025FA082D032A4294
:1039000008D0C7082F4205D145072C003A009A4637
:10391000C9080C43670FD200E5001743364C47E552
:1039200007000D00140043E53A002A4343D002008B
:103930000A4319D0ED087C072C438025FA082D0393
:103940002A4207D0C6082E4204D147073C00320065
:10395000C9080C43D700620FE50017439A46264C6E
:1039600026E50022002544E5234C21E5002049E717
:1039700000230025BBE54C463E00203CE6404C467B
:10398000B446202C31D040244E46A61BB7403D43C0
:103990006C1EA54164462C4300270D1BE7E68022E0
:1039A00000231203144C0025A1E53D436F1EBD41C9
:1039B0000027EDB260E707000D000F4CF8E40700A8
:1039C0000D00F5E44E463C00203EF440A0464C4637
:1039D000202C0ED040244E46A41BA7403D436F1E12
:1039E000BD4144460027254346E70027CFE70D00A9
:1039F00073E50027F2E7C046FF070000FFFF7FFFE7
:103A00000B0330B5134D1A0B4B005B0DC90F00248F
:103A1000AB4211DD104CA34210DC8024640322432E
:103A20000E4CE41A1F2C0CDD0D48C31ADA401300AB
:103A30005C42002900D11C00200030BD094BCC188D
:103A4000FAE7E040084CA44663449A40130003435D
:103A5000EEE7C046FE0300001D0400003304000032
:103A600013040000FFFFFF7FEDFBFFFF70B5051E95
:103A700028D000F033F8154B154A1B1AD21A1F2A0A
:103A800016DD2C00134A0025D21A94405A0524034F
:103A9000240B520D002124030B0D240B1B05234383
:103AA0000D4C1205234013435B002800590870BDDC
:103AB0000B212C00081AC440954024035A05240BFE
:103AC000520DE7E700220024E4E7C0461E04000090
:103AD0003304000013040000FFFF0F801C210123AA
:103AE0001B04984201D3000C10391B0A984201D3E1
:103AF000000A08391B09984201D30009043902A2BF
:103B0000105C40187047C046040302020101010125
:103B100000000000000000000E4B70B500251E00E4
:103B20000D4CE41AA410A54204D0AB00F3589847FA
:103B30000135F8E700F0A8F8084B00251E00084CF6
:103B4000E41AA410A54204D0AB00F35898470135FD
:103B5000F8E770BD943C0000943C0000943C0000E9
:103B6000983C0000002310B59A4203D0CC5CC454AA
:103B70000133F9E710BD000052656365697665643D
:103B80003A20000000080042000C004200100042F1
:103B900000140042090A0B0C521700004E170000D7
:103BA0004E170000AC170000AC17000066170000AD
:103BB000581700006C1700009A1700003818000012
:103BC0001818000018180000A41800002A18000097
:103BD000461800001C18000054180000941800003B
:103BE0000A4F43544F20426F617264202D20000021
:103BF0004D617920203420323031370031393A326A
:103C0000393A343100000000282A0000F62800006C
:103C1000FC290000EC280000FC290000062A000016
:103C2000FC290000EC280000F6280000F62800001F
:103C3000062A0000EC280000E2280000E22800002C
:103C4000E2280000582C000054300000142F00001F
:103C5000142F0000122F00002C3000002C30000028
:103C60001E300000122F00002C3000001E3000001B
:103C70002C300000122F00003430000034300000DF
:103C80003430000034320000F8B5C046F8BC08BC3F
:103C90009E467047DD000000F8B5C046F8BC08BC81
:083CA0009E467047B5000000CC
:043CA8000100000017
:0400000300001CE1FC
:00000001FF
