:10000000B0220020FD5C0000F55D0000F55D000001
:1000100000000000000000000000000000000000E0
:10002000000000000000000000000000F55D00007E
:100030000000000000000000F55D0000F55D00001C
:10004000F55D0000F55D0000F55D0000DD110000CC
:10005000E1010000F55D0000F55D0000F55D0000C8
:10006000F55D00002D4D0000454D00005D4D000088
:10007000754D00000000000000000000F55D00006C
:10008000F55D0000F55D0000F55D0000F55D000028
:10009000F55D000000000000000000005925000090
:1000A000F55D0000312A0000F55D0000F55D0000FF
:1000B0000000000010B5064C2378002B07D1054B3B
:1000C000002B02D0044800E000BF0123237010BDC4
:1000D000780000200000000078900000084B10B568
:1000E000002B03D00749084800E000BF0748036819
:1000F000002B00D110BD064B002BFBD09847F9E731
:10010000000000007C000020789000007890000043
:100110000000000080B584B000AF0200FB1D1A7023
:100120000F23FB18FA1D127852091A700F23FB18BF
:100130001B78002B0CD1094BBB600F23FB181B78DD
:100140009B0010229446BC446344083B1B6800E0BB
:1001500000231800BD4604B080BDC0460018004012
:1001600080B584B000AF0200FB1D1A70FB1D1B7828
:1001700018000B4B98470300FB60FB1D1B781F22E8
:10018000134001229A401300BB60FB681B69BA68E8
:1001900013405A1E9341DBB21800BD4604B080BD27
:1001A0001501000080B584B000AF0200FB1D1A707D
:1001B000FB1D1B781800094B98470300FB60FB1DD3
:1001C0001B781F22134001229A401300BB60FB687A
:1001D000BA681A61C046BD4604B080BD1501000072
:1001E00080B500AF154B00221A7020E0134B1B782E
:1001F0001800134B9847031E13D0104B1B781800A0
:10020000104B98470D4B1B781A000F4B9200D35898
:10021000002B06D0094B1B781A000B4B9200D358C9
:100220009847064B1B780133DAB2044B1A70034B24
:100230001B780F2BDAD9C046BD4680BDE8000020F0
:1002400061010000A5010000EC00002080B582B033
:1002500000AF78607B6800221A70C046BD4602B0CD
:1002600080BD000080B582B000AF02003960FB1D88
:100270001A70FB1D1B78012B0AD0022B0FD0002B0C
:1002800014D10E4B0D4A91693A680A439A610FE006
:100290000A4B0A4AD1693A680A43DA6108E0074B17
:1002A000064A116A3A680A431A6201E0172300E01D
:1002B00000231800BD4602B080BDC04600040040C7
:1002C00080B582B000AF0200FB1D1A70064BFA1D0C
:1002D000127811001F220A40012191400A001A6081
:1002E000C046BD4602B080BD00E100E080B582B0EE
:1002F00000AF0F4B3B6000237B6011E07B689B00ED
:1003000008229446BC446344083B1B685B78DBB21C
:100310005BB2002B01DA012306E07B6801337B60CE
:100320007B68002BEAD000231800BD4602B080BDD8
:100330000018004080B584B000AF2D4B7B60402199
:1003400000202C4B98473B0018002B4B98473B0054
:1003500000221A703B0019000520284B9847052001
:10036000274B98470023FB6018E0FB689B00102296
:100370009446BC4463440C3B1A68FB689B00102104
:100380008C46BC4463440C3B1B681B78DBB20121E8
:100390000B43DBB21370FB680133FB60FB68002B7F
:1003A000E3D0C046174B9847031EFBD10B23FB1825
:1003B00000221A700DE00B23FB181A78124B9200E2
:1003C0000021D1500B23FB181A780B23FB180132A4
:1003D0001A700B23FB181B780F2BECD904200B4B46
:1003E00098470B4B9847C046BD4604B080BDC046F9
:1003F00000180040650200004D020000895900000D
:10040000CD590000ED020000EC000020C102000008
:100410001504000080B582B000AF154B3B6000238F
:100420007B6018E07B689B0008229446BC446344D0
:10043000083B1A687B689B0008218C46BC446344D7
:10044000083B1B681B78DBB202210B43DBB2137045
:100450007B6801337B607B68002BE3D0C046054B93
:100460009847031EFBD1C046BD4602B080BDC046C2
:1004700000180040ED02000080B582B000AF02001D
:10048000FB1D1A70064BFA1D127811001F220A403C
:10049000012191400A001A60C046BD4602B080BDED
:1004A00000E100E080B584B000AF78607B681B6835
:1004B000FB60FB68DB695A1E9341DBB21800BD4646
:1004C00004B080BD80B582B000AF7860C0467B6864
:1004D0001800044B9847031EF9D1C046BD4602B030
:1004E00080BDC046A504000080B582B000AF786032
:1004F0007B688022D2051A607B6800225A607B6884
:10050000FF221A817B6800229A727B680022DA72CD
:100510007B68962292011A627B68242201219954F9
:100520007B682522012199547B6826220021995459
:100530007B682722002199547B6800229A627B689D
:1005400088225203DA607B682C22002199547B6850
:100550002D22002199547B6800221A637B680022B7
:100560005A637B6800229A637B680022DA637B68A7
:1005700000225A617B6800221A827B680022DA76A8
:100580007B6800221A767B6800221A777B6800223B
:100590005A767B6813229A767B6800225A77C04687
:1005A000BD4602B080BD000080B584B000AF786069
:1005B0007B681B68FB607B681B681800094B9847C9
:1005C00003001800084B98477B681800074B9847B2
:1005D000FB681B6802221A43FB681A60C046BD46CE
:1005E00004B080BDE14C000079040000C5040000A7
:1005F00080B582B000AF78600A00FB1C1A707B687F
:1006000031229B5C5AB2FB1C1B78012199400B00E4
:100610005BB213435BB2D9B27B6831229954C046B6
:10062000BD4602B080BD000080B582B000AF7860EA
:10063000194B1B7801225340DBB2002B07D0174B1C
:100640001B783C2B03D1144B01221A7020E0134B72
:100650001B783E2B0FD1124B1800124B9847124BB0
:100660001B781800114B98470F4B00221A700A4B49
:1006700000221A700CE00C4B1B781A00074B1978FB
:10068000074B9954084B1B780133DAB2064B1A70AA
:10069000C046BD4602B080BD94000020C4010020C9
:1006A000D80100204D08000095000020E50600005C
:1006B00080B582B000AF7860074B1B781800074BFD
:1006C0009847054B00221A70054B00221A70C0464D
:1006D000BD4602B080BDC04695000020E506000082
:1006E0009400002080B584B000AF78600023FB60E8
:1006F00007E0084AFB68D31800221A70FB68013330
:10070000FB60FA687B689A42F3DBC046BD4604B0E2
:1007100080BDC046D801002080B590B000AF1A4B14
:1007200000221A60194B00221A70194B00221A700D
:100730003B001800174B98473B00962292011A6223
:100740003B0080225203DA603B00134A1A633B00ED
:10075000124A5A633B00012252429A633B00012233
:100760005242DA63C0463A000D490E4B18000E4B58
:100770009847031EF7D10B4B18000C4B9847C04607
:10078000BD4610B080BDC046F8010020FF0100202A
:10079000D4010020E9040000020010000200110052
:1007A000000C00423401002095440000A90500001F
:1007B00080B500AF0C490D4B002218000C4B984738
:1007C0000C490A4B01221800094B9847074B00219E
:1007D0001800094B9847054B01211800064B984714
:1007E000C046BD4680BDC046B106000034010020B1
:1007F0004948000029060000F105000080B582B0DC
:1008000000AF78600A00BB1C1A80BB1C1A8879688C
:10081000034B1800034B9847C046BD4602B080BD4D
:10082000340100209148000080B500AF0449054B19
:1008300001221800044B9847C046BD4680BDC04603
:10084000C401002034010020D948000080B58AB0DE
:1008500000AF7860744B1B7801225340DBB2002B51
:100860000BD0724A7B6811001800714B9847031E29
:1008700000D0D4E06F4B9847D1E07B681B78572BB2
:1008800000D09DE07B6802331B78303BFB61042382
:100890007B6200233B6285E07B6A7A68D3181B7811
:1008A0004C2B0AD17B6A02337A68D3181B78303B11
:1008B000DBB21800604B98476EE07B6A7A68D31809
:1008C0001B78462B0AD17B6A02337A68D3181B78CF
:1008D000303BDBB21800594B98475DE07B6A7A6881
:1008E000D3181B78492B30D17B6A02337A68D3182E
:1008F0001B78303B9BB21A1C9200D318DB189AB2BB
:100900007B6A03337968CB181B789BB2D3189AB2F1
:100910001A23FB18303A1A801A23FB181B88484AFE
:100920005A43484B64211000984703009AB2182399
:10093000FB1864321A801823FB181B881800424BDE
:1009400098477B6A01337B6226E07B6A7A68D3181A
:100950001B78502B20D17B6A02337A68D3181B781E
:10096000303B9BB21A1C9200D318DB189AB27B6AF8
:1009700003337968CB181B789BB2D3189AB216232D
:10098000FB18303A1A801623FB181B8818002F4BCF
:1009900098477B6A01337B623B6A01333B627B6A27
:1009A00004337B623A6AFB699A4200DA74E7284BA7
:1009B0003B613969274B04221800274B98472EE0EA
:1009C0007B681B78442B06D101201B4B9847164BA4
:1009D00000221A7023E07B681B78432B14D17B68BC
:1009E00002331B78312B03D11C4B01221A7002E019
:1009F0001A4B00221A70164BFB60F968154B042243
:100A00001800154B98470AE0154A7B68110018003A
:100A1000074B9847031E02D1124B00221A70C046A2
:100A2000BD460AB080BDC046FF010020488D0000D1
:100A300049850000690A0000D5630000F5630000E5
:100A400052030000B5690000156400003564000021
:100A5000508D000034010020914800002D0100203D
:100A6000588D0000D401002080B582B000AF0A4B41
:100A70007B607968094B07221800094B9847094B9E
:100A800000221A60084B01221A70084B00221A70CB
:100A9000C046BD4602B080BD5C8D00003401002020
:100AA00091480000F8010020FF010020D40100203F
:100AB00080B582B000AF78607B68002B0CD0084B0B
:100AC0007A685A60064B00229A60C046044B1A6846
:100AD00080235B021340F9D0C046BD4602B080BD02
:100AE00010E000E080B500AF00200F4B98470200F7
:100AF0000E4B1A600D4B18680D4BFA229100984767
:100B000003001A00094B1A60084B1868084BFA22B8
:100B10009100984703001A00064B1A60064B052205
:100B20001A60C046BD4680BDB158000000000020DC
:100B3000A16800000400002010E000E080B582B051
:100B400000AF786004E0074B1B681800064B98471D
:100B50007B685A1E7A60002BF5D1C046BD4602B0B4
:100B600080BDC04604000020B10A000080B582B0FC
:100B700000AF786004E0074B1B681800064B9847ED
:100B80007B685A1E7A60002BF5D1C046BD4602B084
:100B900080BDC04600000020B10A000080B582B0D0
:100BA00000AF78607B6800221A70C046BD4602B074
:100BB00080BD000080B582B000AF02003960FB1D2F
:100BC0001A70FB1D1B78012B0AD0022B0FD0002BB3
:100BD00014D10E4B0D4A91693A680A439A610FE0AD
:100BE0000A4B0A4AD1693A680A43DA6108E0074BBE
:100BF000064A116A3A680A431A6201E0172300E0C4
:100C000000231800BD4602B080BDC046000400406D
:100C100080B582B000AF0200FB1D1A70064BFA1DB2
:100C2000127811001F220A40012191400A001A6027
:100C3000C046BD4602B080BD00E100E080B582B094
:100C400000AF0200FB1D1A70074AFB1D1B7819003C
:100C50001F230B40012199400B0019008023D15024
:100C6000C046BD4602B080BD00E100E080B584B062
:100C700000AF78607B681B68FB60FB689B7ADBB227
:100C80005BB2002B01DA012300E000231800BD460F
:100C900004B080BD80B584B000AF78607B681B680D
:100CA000FB6003200A4B9847C0467B681800094B3D
:100CB0009847031EF9D1FB681B889BB2022213439D
:100CC0009AB2FB681A80C046BD4604B080BDC046DB
:100CD000110C00006D0C000080B584B000AF78608E
:100CE0007B681B68FB6003200A4B9847C0467B6803
:100CF0001800094B9847031EF9D1FB681B889BB26B
:100D0000022293439AB2FB681A80C046BD4604B0E3
:100D100080BDC0463D0C00006D0C000080B584B065
:100D200000AF78607B681B68FB607B6818000D4B28
:100D300098477B6800229A827B680022DA82C0464C
:100D40007B681800084B9847031EF9D1FB681B8885
:100D50009BB2012213439AB2FB681A80C046BD467B
:100D600004B080BDD90C00006D0C000080B584B0CB
:100D700000AF786039607B681B68BB603B681A888D
:100D8000BB681A803B689B78002B3AD0012B00D0BF
:100D90006CE0BB681B889AB2BB681A803B68DB7842
:100DA000002B07D0BB681B889BB2802213439AB2EA
:100DB000BB681A800F23FB1800221A701BE0C04684
:100DC0007B681800334B9847031EF9D10F23FB189B
:100DD0001A783B6802329200D1580F23FB181A7818
:100DE0007B6818002C4B98470F23FB181A780F23A9
:100DF000FB1801321A700F23FB181B78002BDED072
:100E000036E0BB681B889BB2042213439AB2BB68CE
:100E10001A803B68DB78002B01D0172336E00E23C5
:100E2000FB1800221A701BE0C0467B681800194BA3
:100E30009847031EF9D10E23FB181A783B6802323B
:100E40009200D1580E23FB181A787B681800124BB9
:100E500098470E23FB181A780E23FB1801321A70DC
:100E60000E23FB181B78012BDED901E017230DE0C0
:100E70003B681B79002B08D0BB685B889BB2802243
:100E8000D20113439AB2BB685A8000231800BD46B2
:100E900004B080BD6D0C00002D0F000080B586B041
:100EA00000AFF860B9607A60FB68BA681A60202108
:100EB0000020174B98471423FB181800154B984730
:100EC0001423FB1802221A701423FB1819000420A3
:100ED000114B98470420114B9847FB681800104BA2
:100EE00098477B689A78FB681A717B681A79FB6867
:100EF0005A710C4BFA681A607A68FB681100180086
:100F0000094B984703001800BD4606B080BDC04697
:100F1000B50B00009D0B000089590000CD59000061
:100F20001D0D0000040200206D0D000080B586B08C
:100F300000AFF860B960FB1D1A70FB681B687B612D
:100F4000C046FB6818001A4B9847031EF9D1FB688E
:100F50001B79002B0FD0012B22D1FB1D1B78012BFD
:100F600001D917231FE0FB1D1A787B690632920016
:100F7000B968D15016E0FB1D1B78022B01D917234D
:100F800011E0BB680B4A934201D917230BE0FB1D0C
:100F90001A78BB6899B27B690C325200D15201E0D9
:100FA0001A2300E000231800BD4606B080BDC046ED
:100FB0006D0C0000FFFF000080B584B000AF7860CA
:100FC0000A00BB1C1A807B681B68FB607B681B796E
:100FD000002B01D015230BE0C0467B681800064BA0
:100FE0009847031EF9D1FB68BA1C12889A82002325
:100FF0001800BD4604B080BD6D0C000080B586B001
:1010000000AFF860B960FB1D1A701723FB180022AF
:101010001A70FB1D1B78022B04D11723FB1800222A
:101020001A701FE0FB681B79002B0AD0012B11D12D
:10103000FB1D1B78012B12D91723FB1817221A70DE
:101040000DE0FB1D1B78022B0BD91723FB18172271
:101050001A7006E01723FB1817221A7002E0C04628
:1010600000E0C0461723FB181B78002B15D1FB1D91
:101070001A78FB6802329200B968D150FB689B8AEB
:101080009BB21AB2FB1D1B78012199400B001BB2C9
:1010900013431BB29AB2FB689A821723FB181B7882
:1010A0001800BD4606B080BD80B584B000AF786042
:1010B0000A00FB1C1A707B681B68FB60FB1C1B781A
:1010C000022B03D1FB688022DA710AE0FB1C1B783B
:1010D00001229A401300DBB203221340DAB2FB680C
:1010E000DA717B68DB8A9BB21AB2FB1C1B78012188
:1010F00099400B001BB213431BB29AB27B68DA8291
:10110000C046BD4604B080BD80B586B000AF7860F3
:10111000314B7A689200D3587B617B691B683B61D5
:101120000E23FB187A69D28A1A807B699B8A9AB24D
:101130000E23FB180E21791809880A401A803B6992
:101140001B7ADAB20C23FB181A803B69DB79DBB21D
:101150009AB20C23FB180C21791809880A401A80CE
:101160000C23FB181B88802213400CD00E23FB1885
:101170001B880422134002D07B691B6998473B6996
:1011800080221A7224E00C23FB181B8801221340D2
:101190000CD00E23FB181B880122134002D07B6960
:1011A0009B6898473B6901221A7211E00C23FB18D7
:1011B0001B88022213400BD00E23FB181B8802222F
:1011C000134002D07B69DB6898473B6902221A72A0
:1011D000C046BD4606B080BD0402002080B500AF09
:1011E0000020024B9847C046BD4680BD0911000053
:1011F00080B582B000AF0200FB1D1A70064BFA1DCD
:10120000127811001F220A40012191400A001A6041
:10121000C046BD4602B080BD00E100E080B584B0AC
:1012200000AF78607B681B68FB60FB685B7EDBB2AD
:101230005BB2002B01DA012300E000231800BD4659
:1012400004B080BD80B586B000AF78607B681B6855
:101250003B613B691B7EDBB2FB6000237B61FB686B
:101260000122134003D07B69012213437B61FB6899
:101270000422134003D07B69022213437B61FB6885
:101280000222134003D07B69042213437B617B69F4
:101290001800BD4606B080BD80B584B000AF786050
:1012A00039607B681B68BB600023FB603B680122E0
:1012B000134003D0FB6801221343FB603B6802220A
:1012C000134003D0FB6804221343FB603B680422F5
:1012D000134003D0FB6802221343FB60FB68DAB2C1
:1012E000BB681A76C046BD4604B080BD80B584B0E8
:1012F00000AF78607B681B68FB60C0467B681800A5
:101300000D4B9847031EF9D117200C4B9847FB68EB
:101310001B78DBB202221343DAB2FB681A70C046B4
:101320007B681800044B9847031EF9D1002318006E
:10133000BD4604B080BDC0461D120000F111000082
:1013400080B584B000AF78607B681B68FB60C046E6
:101350007B6818000B4B9847031EF9D1FB681B7B79
:10136000DBB202221343DAB2FB681A73C0467B6811
:101370001800044B9847031EF9D1C046BD4604B07F
:1013800080BDC0461D12000080B584B000AF7860FB
:1013900039607B681800184B9847020001231340FE
:1013A00001D1052323E07B681B68FB60C0467B6896
:1013B0001800124B9847031EF9D1FB685B8B9AB259
:1013C0003B681A807B68012118000D4B98477B68A9
:1013D0001800094B984702000423134006D07B688D
:1013E00004211800064B98471E2300E00023180034
:1013F000BD4604B080BDC046451200001D1200006D
:101400009912000080B58CB000AF3B0018000B4B68
:1014100098473B0003225A703B0004221A733A009B
:101420000749084B1800084B9847064B1800074B14
:10143000984701231800BD460CB080BD4D1C00002C
:1014400000400042080200209D220000ED12000032
:1014500080B584B000AF78603960134B1800134B2F
:1014600098470823FA18104B11001800104B9847A2
:101470000300052BF5D0BB680E4A53431A0B13002B
:101480009B009B189B011A000B4BDC211000984716
:101490000300FB60BA687B681A603B68FA681A60F0
:1014A000C046BD4604B080BD0802002041130000C4
:1014B00089130000E40C0000A168000080B584B02E
:1014C00000AF0200FB1D1A700F23FB18FA1D1278E3
:1014D000D2091A700E23FB18FA1D127852091A70DD
:1014E0000D4BBB600F23FB181B78002B0FD10F2374
:1014F000FB181B789B0010229446BC446344083BB5
:101500001A680E23FB181B78DB01D31800E00023B8
:101510001800BD4604B080BD0044004180B582B0D3
:1015200000AF0200FB1D1A70FB1D1B781800034B57
:10153000984703001800BD4602B080BDBD140000EE
:1015400080B582B000AF78607B6800221A707B683B
:1015500001225A707B6800229A70C046BD4602B0D4
:1015600080BD000080B584B000AF0200FB1D1A7082
:10157000BB1D0A1C1A70FB1D1B7818000D4B9847E9
:101580000300FB60FB1D1B781F22134001229A40C1
:101590001300BB60BB1D1B78002B03D0FB68BA682F
:1015A0009A6102E0FB68BA685A61C046BD4604B061
:1015B00080BDC0461D15000080B582B000AF3B0065
:1015C0001800094B98473B0000221A703A0007495F
:1015D000074B1800074B9847054B1800064B9847D8
:1015E000C046BD4602B080BD0D2700000048004245
:1015F0002C020020492700005928000080B586B041
:1016000000AF0200BB1D1A80BB1D1B88632B12D8C4
:10161000254B00221A701023FB181800234B984703
:101620001023FB1819000120214B984700210120AD
:10163000204B984733E01C4B1B7801225340DBB210
:10164000002B11D0184B01221A700C23FB18180024
:10165000164B98470C23FB1819000120144B984790
:1016600001210120134B9847134BBA1D12881A8091
:10167000BB1D1B885622FF325A4310000F4BFA2223
:101680009100984703001A001623FB181A801623AE
:10169000FB181A880A4B002118000A4B9847C046CD
:1016A000BD4606B080BDC0460800002041150000C0
:1016B0006D2A00006515000028020020B5690000B1
:1016C0002C020020B528000080B582B000AF0200D7
:1016D000FB1D1A70064BFA1D127811001F220A40DA
:1016E000012191400A001A60C046BD4602B080BD8B
:1016F00000E100E080B584B000AF78607B681B68D3
:10170000FB60FB68DB69072213405A1E9341DBB282
:101710001800BD4604B080BD80B582B000AF7860CF
:10172000C0467B681800044B9847031EF9D1C04699
:10173000BD4602B080BDC046F516000080B582B03F
:1017400000AF78607B6864221A607B681B4A5A602D
:101750007B6800229A607B6800221A737B680022F3
:101760001A767B68802292031A617B6801225242BA
:10177000DA827B68012252429A827B680022DA6117
:101780007B6800221A627B682422002199547B68BE
:1017900000229A627B682C22002199547B682D22BA
:1017A000002199547B682E22002199547B68D7220E
:1017B0001A86C046BD4602B080BDC046480D000036
:1017C00080B584B000AF78607B681B68BB60002385
:1017D000FB607B681800144B9847BB681B680222AB
:1017E0001A43BB681A607B681B6818000F4B984748
:1017F000030018000E4B98470CE0FB680133FB60B8
:101800007B68DB881A00FB689A4203D8BB68102209
:101810005A8306E0BB685B8B9BB21A00102313400F
:10182000EBD0BD4604B080BD19170000E14C0000AC
:10183000C916000080B590B000AF78600C23FB188B
:101840001800114B98470C23FB1864221A600C23D4
:10185000FB180E4ADA610C23FB180D4A1A620C239E
:10186000FA180C490C4B18000C4B98470A4B1800FF
:101870000B4B98477B6818000A4B98470A4B9847D0
:10188000C046BD4610B080BD3D17000002000800F4
:10189000020009000008004250020020C52F00008D
:1018A000C1170000AD1800004519000090B587B0C1
:1018B00000AF78607A6813001B049A1A1C4B6421ED
:1018C0001000984703001A001623FB181A80194BC2
:1018D00002221A701623FB181B881B0A9BB2DAB26D
:1018E000144B5A700823FB18134A13CA13C3C0467B
:1018F0000823FA18114B11001800114B9847031ECA
:10190000F6D10C4B03221A701623FB181B88DAB28F
:10191000084B5A70C0460823FA18084B11001800EB
:10192000074B9847031EF6D1C046BD4607B090BD91
:10193000A168000098000020708D00005002002077
:101940003536000090B585B000AF3B1D074A13CA7D
:1019500013C3C0463A1D064B11001800054B9847AB
:10196000031EF7D1C046BD4605B090BD7C8D00007A
:10197000500200203536000090B589B000AF786085
:1019800039601F23FB1800221A700C23FB181F4A12
:1019900013CA13C30C23FB181D4A5A600C23FA18F0
:1019A0001C4B110018001C4B9847031E27D1184BE5
:1019B0009B781B021AB2164BDB781BB213431AB288
:1019C0001C23FB181A801C23FB181B8864225A4313
:1019D000124B13491000984703001A001A23FB18F2
:1019E0001A801C23FB181A887B681A601A23FB18BC
:1019F0001A883B681A601F23FB1801221A701F23E4
:101A0000FB181B781800BD4609B090BD948D0000EE
:101A10009C000020500200207D340000B5690000C9
:101A2000FFFF000080B584B000AF78607B68A02223
:101A300012011A807B6801229A707B680022DA709A
:101A40007B6800221A710F23FB1800221A700EE027
:101A50000F23FB181A787B68023292000021D150C4
:101A60000F23FB181A780F23FB1801321A700F236B
:101A7000FB181B78012BEBD9C046BD4604B080BDD6
:101A800080B584B000AF3B001800144B98473B0072
:101A900000221A803B0000229A703B0001221A713A
:101AA0003A000F490F4B18000F4B98470D4B180089
:101AB0000E4B98470E490B4B022218000D4B9847CE
:101AC000084B022118000C4B9847064B01211800C7
:101AD0000A4B9847C046BD4604B080BD251A000099
:101AE00000140040780200209D0E0000950C0000BC
:101AF000011B0000FD0F0000A9100000B90F00003D
:101B000080B500AF034B1B685A1C024B1A60C046DD
:101B1000BD4680BDA000002080B500AF024B1B6811
:101B20001800BD4680BDC046A000002080B582B030
:101B300000AF7860034B1A687B68D31A1800BD4663
:101B400002B080BDA000002080B582B000AF7860F8
:101B50007B6800221A70C046BD4602B080BD0000FE
:101B600080B582B000AF02003960FB1D1A70FB1D0A
:101B70001B78012B0AD0022B0FD0002B14D10E4B57
:101B80000D4A91693A680A439A610FE00A4B0A4A82
:101B9000D1693A680A43DA6108E0074B064A116ADC
:101BA0003A680A431A6201E0172300E00023180094
:101BB000BD4602B080BDC0460004004080B582B082
:101BC00000AF78607B6880221A707B6800225A70B0
:101BD0007B6801229A707B680022DA70C046BD469D
:101BE00002B080BD80B582B000AF0200FB1D1A704C
:101BF000FB1D1B78002B02D0012B07D00DE0084BFA
:101C0000074A126C02210A431A6406E0044B044A94
:101C1000126C04210A431A64C046BD4602B080BD5E
:101C20000008004080B584B000AF78607B681B6816
:101C3000FB60FB685B7EDBB25BB2002B01DA012349
:101C400000E000231800BD4604B080BD80B582B01E
:101C500000AF78607B6800221A707B6800225A709F
:101C60007B6800225A807B6800221A717B68002200
:101C70001A767B6800221A627B680022DA617B6830
:101C800000229A607B6800221A737B68C02252018E
:101C9000DA817B6800221A747B6800225A747B68A0
:101CA00000229A747B680022DA747B6800221A751D
:101CB0007B682A22002199547B6800225A757B6830
:101CC00000229A757B682422002199547B680022A7
:101CD000DA847B6800221A857B680022DA757B68CB
:101CE0002B22002199547B682C2200219954C04654
:101CF000BD4602B080BD000080B598B000AF7860EE
:101D00000C23FA18154B1000190050231A00144B1D
:101D10009847144BFB657B68132B1AD80C23FB18D0
:101D20007A689200D358FB650823FB1818000E4B05
:101D300098470823FB1800229A700823FB180122F9
:101D40001A70FB6DDBB20822BA1811001800074B9D
:101D50009847C046BD4618B080BDC046A08D000063
:101D6000F1840000FFFF0000BD1B0000755C000057
:101D7000F0B589B000AF786039601F23FB180022EE
:101D80001A701023BB611723FB1800221A707B689E
:101D90001B683B610C23FB181800CE4B98473B682F
:101DA0001A780C23FB181A700C23FB1819001E203C
:101DB000C94B98471E20C94B98473B682C229B5C17
:101DC000002B40D01623FB183A682B21525C1A7066
:101DD0003B68197B1523FB181622BA1812788A184B
:101DE0001A703B682C22995C0F23FB181522BA1835
:101DF00012788A181A7018E01623FB181B780F2225
:101E000013403A68127B9B181800B54B984715236E
:101E1000FB181A781523FB1801321A701623FB18C9
:101E20001A781623FB1801321A701523FA180F239B
:101E3000FB1812781B789A42DED33B68DB891800C6
:101E4000A74B984709E03B681B7B1800A44B9847B9
:101E50003B68DB891800A24B98473B685B7D9B0081
:101E6000DAB23B691A703B689B7DDB015AB23B6872
:101E70005B785BB213435BB2DAB23B695A703B6882
:101E80001B79342B46D89A00964BD3181B689F4673
:101E90001F23FB183A68527C1A701723FB183A6804
:101EA000127C1A701023BB6136E01F23FB1801223D
:101EB0001A701723FB1802221A701023BB612BE043
:101EC0001F23FB1802221A701723FB1804221A7012
:101ED0001023BB6120E01F23FB1801221A70172377
:101EE000FB1806221A701023BB6115E01F23FB1894
:101EF00000221A701723FB1808221A701023BB61E6
:101F00000AE03023BB6107E02023BB6104E000232B
:101F1000BB6101E01723AEE11F23FB181B781B01F7
:101F2000DBB270221340DAB21723FB181B7813437D
:101F3000DAB23B699A703B68DB7D3F2B01D91723EE
:101F400099E13B68DA7D3B69DA70C0467B6818002E
:101F5000654B9847031EF9D13B685A88BB699BB211
:101F600013439AB23B6824215B5C9BB2DB009BB2BB
:101F700013439AB23B681B7D9BB29B009BB21343F9
:101F80009AB23B689B7C9BB2DB189BB213439AB21C
:101F90003B68DB7C9BB213439AB23B699A803B68F7
:101FA0001B7E002B00D1C4E0BB69102B00D176E072
:101FB00002D8002B4DD0BCE0202B23D0302B00D0FA
:101FC000B7E03B68DB7C002B11D03B68DB697F2BE3
:101FD0000BDC3B68DB69803307DB3B681B6A7F2BCC
:101FE00003DC3B681B6A803301DA172343E13B685B
:101FF000DB69FF2B04DC3B681B6AFF2B00DC91E0F4
:10200000172338E13B68DB7C002B15D03B68DB698C
:10201000364A93420EDC3B68DB69354A934209DB62
:102020003B681B6A314A934204DC3B681B6A304AB6
:10203000934201DA17231EE13B68DB692D4A934284
:1020400005DC3B681B6A2B4A934200DC6CE01723DB
:1020500011E13B68DB7C002B15D03B68DB69264A2D
:1020600093420EDC3B68DB69244A934209DB3B6800
:102070001B6A214A934204DC3B681B6A1F4A934255
:1020800001DA1723F7E03B68DB691D4A934204DC61
:102090003B681B6A1A4A934248DD1723EBE03B6812
:1020A000DB7C002B32D03B68DB69164A93420EDCA6
:1020B0003B68DB69144A934209DB3B681B6A114A9F
:1020C000934204DC3B681B6A0F4A93421EDA1723D3
:1020D000D1E0C046491B000089590000CD590000DD
:1020E000F91C0000F08D0000251C0000FF0100001D
:1020F00000FEFFFFFF030000FF07000000F8FFFFE6
:10210000FF0F0000FF7F00000080FFFF3B68DB69DE
:102110005B4A934204DC3B681B6A594A934207DDE1
:102120001723A8E0C04604E0C04602E0C04600E035
:10213000C046C0467B681800524B9847031EF9D131
:102140003B681A7E3B691A72C0467B6818004D4B8B
:102150009847031EF9D13B68DB699AB23B699A83C1
:10216000C0467B681800474B9847031EF9D13B686F
:102170001B6A9AB23B691A841423FB183A682C2113
:10218000525C1A701423FB181B78002B06D0142302
:10219000FB181A781423FB18013A1A701423FB1841
:1021A0001B780F2B04D83B682B229B5C0F2B01D98B
:1021B000172360E0C0467B681800324B9847031E27
:1021C000F9D13B689B683A682B21525C1205134396
:1021D0001422BA181278120413433A68D2891343AE
:1021E0003A68127B1A433B691A613B682A229A5C5F
:1021F0003B691A753B690F229A753B6824229B5CE8
:10220000002B1ED03B68DB8C1F4A934201D9172359
:1022100031E03B68DA8C3B699A843B6828229B5EFC
:102220001A4A934205DC3B6828229B5E184A934277
:1022300001DA17231FE03B6828229B5E9AB23B69B4
:10224000DA84144B1B68DB089BB21B029AB2E023B2
:10225000DB0013409AB2104B5C681B686101DD0E15
:102260000D43E60EABB2FF210B409BB213439AB273
:102270003B691A8500231800BD4609B0F0BDC04671
:10228000FFFF0000251C0000FF0F0000FF070000FB
:1022900000F8FFFF246080002060800080B586B0D9
:1022A00000AFF860B9607A60FB68BA681A60802392
:1022B0005B0219000220324B9847BB681B78DBB2E7
:1022C0001A000123134001D0052355E0BB681B7899
:1022D000DBB21A000223134001D01C234CE07B68C0
:1022E0005A78FB681A71FB681B79002B02D1012018
:1022F000244B98471723FB1800221A700EE017236F
:10230000FB181A78FB68023292000021D150172383
:10231000FB181A781723FB1801321A701723FB18C1
:102320001B78022BEBD9FB6800229A76FB6800220F
:10233000DA76FB6800221A83FB6800221A77124BB8
:10234000FA681A607B682A229B5C002B0AD17B68A2
:102350001B7D01225340DBB2002B03D0FB6801221E
:102360005A7702E0FB6800225A777A68FB6811000E
:102370001800064B984703001800BD4606B080BD04
:10238000611B0000E51B000090020020711D000091
:1023900080B584B000AF78607B681B68FB60FB6829
:1023A0005B7EDBB25BB2002B01DA012300E000238D
:1023B0001800BD4604B080BD80B584B000AF786021
:1023C0007B681B68FB60C0467B6818000B4B984716
:1023D000031EF9D1FB681B7BDBB202221343DAB286
:1023E000FB681A73C0467B681800044B9847031EAD
:1023F000F9D1C046BD4604B080BDC046912300005F
:1024000080B584B000AF78600A00FB1C1A707B684E
:102410001B68FB60FB68FA1C12789A75C046BD46C3
:1024200004B080BD80B584B000AF0200FB1D1A70FF
:10243000FB1D1A78444B9200D358FB60FB681B6865
:102440001B7EDBB2BB60BB680122134045D0FB683A
:10245000DB7E1A00012313403FD0FB689B7E1A00ED
:102460000123134039D0FB681B6801221A76C0464D
:10247000FB681800354B9847031EF9D1FB685B6970
:10248000991CFA685161FA681268528B92B21A80EC
:10249000FB681B8B9BB2013B9BB2FA68191C118332
:1024A000002B08D0FB685B7F002B16D0FB68180060
:1024B000274B984711E0FB681B7FDBB2052B0CD143
:1024C000FB6800221A77FB6801211800214B98470E
:1024D000FB689B68FA6810009847BB6804221340A9
:1024E00014D0FB681B6804221A76FB68DB7E1A0096
:1024F000022313400AD0FB689B7E1A00022313407C
:1025000004D0FB68DB68FA6810009847BB680222B9
:10251000134014D0FB681B6802221A76FB68DB7E2E
:102520001A00042313400AD0FB689B7E1A00042380
:10253000134004D0FB681B69FA6810009847C04636
:10254000BD4604B080BDC04690020020912300002B
:10255000B92300000124000080B500AF0020024B29
:102560009847C046BD4680BD2524000080B582B096
:1025700000AF78607B6800221A70C046BD4602B08A
:1025800080BD000080B582B000AF02003960FB1D45
:102590001A70FB1D1B78012B0AD0022B0FD0002BC9
:1025A00014D10E4B0D4A91693A680A439A610FE0C3
:1025B0000A4B0A4AD1693A680A43DA6108E0074BD4
:1025C000064A116A3A680A431A6201E0172300E0DA
:1025D00000231800BD4602B080BDC0460004004084
:1025E00080B582B000AF78607B6880221A707B680B
:1025F00000225A707B6801229A707B680022DA7090
:10260000C046BD4602B080BD80B582B000AF0200BA
:10261000FB1D1A70FB1D1B78002B02D0012B07D06D
:102620000DE0084B074A126C02210A431A6406E0C7
:10263000044B044A126C04210A431A64C046BD4686
:1026400002B080BD0008004080B586B000AF786061
:1026500039607B681B68FB603B685A787B681A713D
:102660007B6800229A7100237B6100233B613B68F9
:102670009B79002B03D07B69042213437B613B6869
:102680001B781A003B6913433B613B689B78002B26
:1026900003D03B69042213433B613B681B79002B49
:1026A00003D03B69102213433B613B685B79002BED
:1026B00003D03B69082213433B617B69DAB2FB68B4
:1026C0001A70C0467B681800054B9847031EF9D165
:1026D0003B69DAB2FB685A70C046BD4606B080BDA1
:1026E000E526000080B584B000AF78607B681B6889
:1026F000FB60FB68DB79DBB25BB2002B01DA012304
:1027000000E000231800BD4604B080BD80B582B053
:1027100000AF78607B6800221A707B6801225A70D3
:102720007B6800229A707B6800221A717B68002205
:102730005A717B680022DA707B6800229A71C04669
:10274000BD4602B080BD000080B586B000AFF86025
:10275000B9607A60FB68BA681A608023DB021900EE
:102760000220354B9847BB681B78DBB21A00022366
:10277000134001D01C235BE0BB681B78DBB21A005E
:102780000123134001D0052352E01423FB18180045
:102790002A4B98477B68DA781423FB181A701423A5
:1027A000FB1819002120264B98472120254B9847DC
:1027B0001023FB181800244B98471023FB18012204
:1027C0001A701023FB1800225A701023FB180022E5
:1027D0009A701023FB18190002201C4B98477A6846
:1027E000FB68110018001A4B98477B681A78FB6841
:1027F0005A711723FB1800221A7010E01723FB18D8
:102800001B78FA6804339B00D318043300221A6043
:102810001723FB181A781723FB1801321A70172395
:10282000FB181B78022BE9D90A4BFA681A600023BF
:102830001800BD4606B080BD852500006D2500004E
:1028400089590000CD590000E1250000755C0000A9
:10285000492600009402002080B584B000AF786063
:102860007B681B68FB60FB685B78DAB27B681B796E
:102870001343DAB2FB685A70C0467B6818000B4BF2
:102880009847031EF9D1FB681B78DBB20222134381
:10289000DAB2FB681A707B685B79002B02D10120E9
:1028A000034B9847C046BD4604B080BDE5260000F6
:1028B0000926000080B584B000AF786008001100E0
:1028C000FB1C021C1A703B000A1C1A807B681B68E8
:1028D000FB60C0467B6818000A4B9847031EF9D17D
:1028E0007B689B79002B04D0FB683A0012889A81A0
:1028F00003E0FB683A0012881A8100231800BD46E5
:1029000004B080BDE526000080B582B000AF0200B3
:10291000FB1D1A70074AFB1D1B7819001F230B4073
:10292000012199400B0019008023D150C046BD46BB
:1029300002B080BD00E100E080B584B000AF0200CD
:10294000FB1D1A70FB1D1A78374B9200D358FB60A1
:10295000FB681B68BB60BB689B79DBB21A00012374
:1029600013400ED0BB6801229A71FB681433002B10
:1029700007D0FB685B7C002B03D0FB689B690020C1
:102980009847BB689B79DBB21A000223134047D0FB
:10299000BB6802229A71FB689B899BB2002B33D0E3
:1029A000FB689A68FB68DB899BB2591C88B2F9689E
:1029B000C8815B00D3181B889AB2BB689A81FB68F8
:1029C0009B899BB2013B9AB2FB689A81FB689B8909
:1029D0009BB2002B18D1FB68202200219954BB68C0
:1029E00002221A71BB6802229A7119200F4B984774
:1029F000FB681433002B07D0FB689B7C002B03D0B3
:102A0000FB68DB6900209847FB681433002B07D074
:102A1000FB681B7C002B03D0FB685B690020984798
:102A2000C046BD4604B080BD9402002009290000C4
:102A300080B500AF0020024B9847C046BD4680BD20
:102A40003929000080B582B000AF78607B688022B1
:102A50001A707B6800225A707B6801229A707B682A
:102A60000022DA70C046BD4602B080BD80B584B099
:102A700000AF02003960FB1D1A700C23FB18180010
:102A8000104B98470C23FB1880221A703B681A7869
:102A90000C23FB185A703B685A780C23FB189A7069
:102AA0003B689A780C23FB18DA700C23FA18FB1D8C
:102AB0001B7811001800044B9847C046BD4604B06F
:102AC00080BDC046452A0000755C000080B582B01C
:102AD00000AF78607B6800221A70C046BD4602B025
:102AE00080BD000080B582B000AF02003960FB1DE0
:102AF0001A70FB1D1B78012B0AD0022B0FD0002B64
:102B000014D10E4B0D4A91693A680A439A610FE05D
:102B10000A4B0A4AD1693A680A43DA6108E0074B6E
:102B2000064A116A3A680A431A6201E0172300E074
:102B300000231800BD4602B080BDC046000400401E
:102B400080B582B000AF78607B6880221A707B68A5
:102B500000225A707B6801229A707B680022DA702A
:102B6000C046BD4602B080BD80B500AF054B9B7826
:102B7000DBB21A00022313405A1E9341DBB2180045
:102B8000BD4680BD0020004180B584B000AF7860B4
:102B90007B681B68FB60FB68DB69072213405A1ED9
:102BA0009341DBB21800BD4604B080BD80B582B051
:102BB00000AF7860C0467B681800044B9847031E3E
:102BC000F9D1C046BD4602B080BDC046892B000089
:102BD000F0B595B000AFF860B96000237B630023C7
:102BE000BB6400237B643B2308229446BC446344BB
:102BF00000221A70FB681B683B63FB681B68FB6262
:102C000023230822BA18D418FB6A1800DB4B984714
:102C1000030023700C2308229446BC44634418002C
:102C2000D74B9847BB68DB69FB63BB681B6ABB6318
:102C3000FB6B002B06D1FB6A00211800D14B984793
:102C40000300FB63FB6BDAB20C2308218C46BC4407
:102C500063441A700C2308229446BC446344022245
:102C60005A70FB6B1B0CDBB20C2208218C46BC4457
:102C7000624411001800C44B9847BB6B002B06D16F
:102C8000FB6A01211800BF4B98470300BB63BB6B75
:102C9000DAB20C2308218C46BC4463441A700C231E
:102CA00008229446BC44634402225A70BB6B1B0C3E
:102CB000DBB20C2208218C46BC446244110018008F
:102CC000B14B9847BB689A8AFB68DA80BB68DA8A9E
:102CD000FB681A81BB681B7E002B03D1AB4B984766
:102CE000031E02D08023FB6401E00023FB64BB6869
:102CF0001B69002B04D0BB681B69FA6C1343FB648F
:102D0000BB689B68FA6C1343FB64BB6824229B5C22
:102D1000002B04D0FB6C8022D2051343FB64BB68FC
:102D20009B6A002B04D0BB689B6AFA6C1343FB645C
:102D3000BB682C229B5C002B05D1BB689A68802362
:102D40009B049A4204D1FB6C802212051343FB645E
:102D5000BB682D229B5C002B04D0FB6C80221204EC
:102D60001343FB64BB682E229B5C002B04D0FB6CDE
:102D70008022D2031343FB643B6B1A68FB6C1A433B
:102D80003B6B1A603B6B802252005A60232308225F
:102D90009446BC4463441B781433DBB218007C4B6C
:102DA000984703007B62BB681B68FA22920053437A
:102DB0003B62BB685B68FA2292005343FB61BB68CD
:102DC0001B8EBB61734B786A984705000E00714BF0
:102DD000386A9847386079607B6ABA695A436D4BA4
:102DE000100098476C4C6D4A6D4BA04703000C00D7
:102DF000180021006B4C00226B4BA04703000C0015
:102E00001A002300644C38687968A04703000C005E
:102E10001A002300654C28003100A04703000C0075
:102E20001D0026003B6A5A005A4B100098470200CA
:102E30000B005C4C28003100A04703000C00180078
:102E400021005A4C00225A4BA04703000C001D00E1
:102E500026003B6A5A004F4B1000984702000B00B7
:102E6000544C28003100A04703000C001900220038
:102E7000514B08001100984703007B63BB689A68B8
:102E800080239B049A4245D1424B786A9847454C2F
:102E900002000B00A04703000C001D0026003D4B64
:102EA000F86998473C4C0022444BA04703000C00B3
:102EB0001A0023003F4C28003100A04703000C00FB
:102EC00018002100394C0022394BA04703000C00A8
:102ED00019002200384B08001100984703007B645A
:102EE0007B6C002B09D0364BF969786A9847030050
:102EF0009A1E7B6CD31ABB640CE0FB695A007B6A98
:102F0000D3185A1EFB6959002D4B10009847030037
:102F1000013BBB647B6BFF2B08DC7B6B002B05DB71
:102F2000BB6CFF2B02DCBB6C002B06DA3B230822B8
:102F30009446BC44634440221A703B2308229446C2
:102F4000BC4463441B78402B0ED07B6BFF221A409D
:102F5000BB6C1B041900FF231B040B4013437A6C4A
:102F600012061A433B6BDA603B2308229446BC44AA
:102F700063441B781800BD4615B0F0BD75400000D5
:102F8000412B0000453F0000755C0000692B0000EC
:102F9000AD5A0000FD8300006978000095D626E850
:102FA0000B2E113EE16B000000002440697D000003
:102FB0000000F03F0172000095830000000008400F
:102FC000A168000090B58BB000AFF860B9607A607E
:102FD000FB68BA681A60FB681B687B62FB681B6849
:102FE00018003B4B984703003B623B6A0233FB618E
:102FF0003B6A1433BB610122FB699A40130019003C
:103000000220344B98471423FB181800324B984782
:103010007B681A7B1423FB181A70BB69DBB214227D
:10302000BA18110018002D4B9847BB69DBB2180085
:103030002B4B98477B681B7B00211800294B984736
:103040007B6A1B680222134001D01C233BE07B6A91
:103050001B680122134001D0052334E0FB681B6884
:103060001722BC1818001A4B9847030023701E4AF9
:103070001723FB181B78110018001C4B98471723C7
:10308000FB181A781A4B9200F968D150FB6800229D
:103090001A76FB6800225A76FB6800225A83FB6886
:1030A00000229A83FB68252200219954FB680022A4
:1030B0001A627B6A14221A607A68FB681100180091
:1030C0000C4B984703001800BD460BB090BDC0469E
:1030D00075400000E52A0000CD2A00008959000053
:1030E000CD590000B93E0000E5380000754C0000E5
:1030F00098020020D12B000080B584B000AF78602A
:103100007B681B68FB60FB681B7EDBB21A00022336
:1031100013400BD0FB6802221A76FB685B8B9BB2D4
:103120001A000223134011D0412310E0FB685B8B8F
:103130009BB21A000423134008D0FB685B68C022CE
:1031400092021A43FB685A60182300E0002318001B
:10315000BD4604B080BD80B584B000AF78607B68A8
:103160001B68BB600E23FB1800221A800FE00E23A1
:10317000FB180E22BA18128801321A807B681B894C
:103180000E22BA1812889A4201D312230EE0BB68AD
:103190001B7EDBB21A000123134006D1BB681B7EE5
:1031A000DBB21A0002231340E1D000231800BD4611
:1031B00004B080BD90B585B000AF78600A00FB1CFC
:1031C0001A707B681B68FB60FB685B688022D20218
:1031D0001A43FB685A60FB1C1A78FB685A620B237F
:1031E000FC187B681800074B984703002370FB68A6
:1031F00001221A760B23FB181B781800BD4605B078
:1032000090BDC0465731000090B587B000AF7860E0
:1032100039607B681B68FB601423FB183A6852888E
:103220001A801223FB1800221A80FB681B681B01FE
:10323000DB0FDBB21A000B23FB18511E8A411A70F8
:103240003B685B7A002B06D03B689A7A7B6811005A
:103250001800854B9847FB685B68844A1A40FB68F6
:103260005A603B681B7A002B42D03B681B885A008F
:103270003B685B7A9B0313431A0080231B021A43AB
:10328000FB685A621723FC187B681800784B984734
:1032900003002370FB685B68744A1A40FB685A603D
:1032A0001723FB181B78002B07D11723FC187B680A
:1032B0001800704B9847030023701723FB181B78E6
:1032C000002B11D13B681B881B0A9BB27822134349
:1032D0009BB25A003B685B7A9B0313430122134362
:1032E0001A00FB685A620FE01723FB181B78B6E040
:1032F0003B681B885B0001221A433B685B7A9B0397
:1033000013431A00FB685A621723FC187B681800E5
:10331000574B9847030023700B23FB181B78002B97
:103320000BD03B685B88012B07D1FB685B68802270
:10333000D2021A43FB685A6005E0FB685B684B4A9F
:103340001A40FB685A601723FB181B78002B07D123
:103350001723FC187B681800464B9847030023701E
:103360001723FB181B78002B00D075E04BE0FB689F
:103370005B8B9BB21A002023134001D141236EE0E6
:103380007B68DB7A002B1ED00B23FB181B780122F5
:103390005340DBB2002B04D01423FB181B88002BF6
:1033A00009D00B23FB181B78002B0CD01423FB181F
:1033B0001B88012B07D1FB685B688022D2021A436D
:1033C000FB685A601AE07B6818002B4B98473B68F3
:1033D0005A681223FB181B8812217918581C088080
:1033E000D318FA682821525CD2B21A701723FC183D
:1033F0007B6818001E4B9847030023701723FB18A7
:103400001B78002B09D11423FB181B881422BA182F
:10341000591E1180002BAAD100E0C0467B689B7A20
:10342000002B0AD07B681800134B9847FB685B6839
:10343000C02292021A43FB685A607B6818000E4B48
:1034400098473B685A681223FB181B88D318FA6800
:103450002821525CD2B21A701723FB181B7818006F
:10346000BD4607B090BDC046B5310000FFFFFBFF71
:1034700057310000F9300000AD2B000080B582B05C
:1034800000AF786039607B689B8B9BB2002B01D0CA
:1034900005230CE07B6801229A727B680122DA72B4
:1034A0003A687B6811001800034B98470300180026
:1034B000BD4602B080BDC0460932000090B587B05D
:1034C00000AF786039607B681B68FB601423FB18D1
:1034D0003A6852881A807B681800514B98473B68BD
:1034E0005B7A002B06D03B689A7A7B681100180043
:1034F0004C4B9847FB685B684B4A1A40FB685A6024
:103500003B681B7A002B0DD03B681B885A003B6838
:103510005B7A9B0313431A0080231B021A43FB6848
:103520005A6209E03B681B885A003B685B7A9B0340
:1035300013431A00FB685A621723FC187B681800B3
:103540003A4B9847030023701723FB181B78002B76
:1035500007D11723FC187B681800354B98470300E8
:1035600023701723FB181B78002B52D11223FB1852
:1035700000221A8033E0FB685B8B9BB21A00202389
:10358000134001D1412347E07B681800244B984742
:103590003B685A681223FB181B8812217918581CA3
:1035A0000880D3181978FB68282299541723FC182F
:1035B0007B6818001D4B9847030023701723FB18E6
:1035C0001B78002B15D1FB685B8B9BB21A00042380
:1035D000134004D01723FB181E221A700AE014238C
:1035E000FB181B881422BA18591E1180002BC2D157
:1035F00000E0C0467B689B7A002B0AD07B681800ED
:10360000074B9847FB685B68C02292021A43FB682D
:103610005A601723FB181B781800BD4607B090BDF1
:10362000AD2B0000B5310000FFFFFBFF573100005C
:10363000F930000080B582B000AF786039607B68F7
:103640009B8B9BB2002B01D005230CE07B680122F1
:103650009A727B680122DA723A687B68110018005E
:10366000034B984703001800BD4602B080BDC0461A
:10367000BD34000080B584B000AF78607B681B6803
:10368000FB60FB68DB69072213405A1E9341DBB2E3
:103690001800BD4604B080BD80B582B000AF786030
:1036A000C0467B681800044B9847031EF9D1C046FA
:1036B000BD4602B080BDC0467536000080B584B0FE
:1036C00000AF78607B681B68FB60FB681B681B01B0
:1036D000DB0FDBB21A000B23FB18511E8A411A7054
:1036E0000823FB187A68528B1A807B689B8B9AB2EE
:1036F0000823FB180821791809888A1A1A807B6820
:103700009B8B9BB2013B9AB27B689A830B23FB187D
:103710001B78002B10D07B68DB7A002B1CD07B68D9
:103720009B8B9BB2012B17D1FB685B688022D20276
:103730001A43FB685A600FE07B68DB7A002B0BD0E2
:103740007B689B8B9BB2002B06D1FB685B68802259
:10375000D2021A43FB685A607B689B8B9BB2002B9A
:103760000ED17B689B7A002B0AD07B6818000E4B29
:103770009847FB685B68C02292021A43FB685A6054
:103780007B681800084B98477B681A6A0823FB1867
:103790001B88D318FA682821525CD2B21A70C0462E
:1037A000BD4604B080BDC0469936000080B584B0E7
:1037B00000AF78607B681B68FB60FB685B8B9BB22B
:1037C0001A000423134004D07B6825221E2199543B
:1037D00024E00A23FB187A68528B1A807B689B8B43
:1037E0009AB20A23FB180A21791809888A1A1A80C2
:1037F0007B689B8B9BB2013B9AB27B689A837B6808
:103800001800084B98477B681A6A0A23FB181B8824
:10381000D3181B78D9B2FB6828229954BD4604B04E
:1038200080BDC0469936000080B584B000AF786096
:103830007B681B68FB60FB681B7EDBB21A00012300
:1038400013402BD0FB6801221A76FB685B8B9BB27E
:103850001A000223134004D07B6825224121995489
:103860001CE0FB685B8B9BB21A000423134015D04D
:103870007B682522182199547B6800229A837B68F3
:103880009B7A002B0AD07B681800134B9847FB6883
:103890005B68C02292021A43FB685A607B689B8B6C
:1038A0009AB27B685A837B6825229B5CDBB2052B2E
:1038B0000ED17B6824229B5CDBB2002B04D17B6899
:1038C0001800064B984703E07B681800044B9847A4
:1038D000C046BD4604B080BD99360000AD3700003B
:1038E000BD36000080B586B000AF0200FB1D1A7027
:1038F000FB1D1A78934B9200D3587B617B691B6840
:103900003B613B691B681B01DB0FDBB21A000F2315
:10391000FB18511E8A411A700E23FB187A69527ED9
:103920001A707B691B7EDAB20E23FB180E21791800
:1039300009780A401A707B695B8B9BB2002B09D116
:103940007B699B8B9BB2002B04D07B6918007E4B5C
:10395000984770E07B695B8B9BB2002B39D07B6909
:103960009B8B9BB2002B34D17B6925229B5CDBB205
:10397000052B2ED17B6924229B5CDBB2002B28D146
:103980003B6903221A757B6900225A837B692522D1
:10399000002199547B699B7A002B0BD07B6918001E
:1039A0006A4B98473B695B68C02292021A433B69A5
:1039B0005A6002E03B6901221A760E23FB181B783D
:1039C0000122134037D07B69DB687A691000984781
:1039D00031E07B695B8B9BB2002B2CD07B699B8B8E
:1039E0009BB2002B27D03B695B8B9BB21A00202334
:1039F000134011D10F23FB181B7801225340DBB277
:103A0000002B04D17B699B8B9BB2012B04D07B697B
:103A10002522412199540EE07B6924229B5CDBB274
:103A2000002B04D17B691800494B984703E07B6960
:103A30001800484B98477B695B8B9BB2002B47D0A3
:103A40007B699B8B9BB2002B42D17B6925229B5CBF
:103A5000DBB2052B3CD17B6924229B5CDBB2012BC2
:103A600036D13B691B7EDBB21A000223134002D021
:103A70003B6902221A763B6903221A757B69002290
:103A80005A837B692522002199540E23FB181B7849
:103A9000022213400BD07B6924229B5CDBB2012BFA
:103AA00005D17B691B697A691000984710E00E23E5
:103AB000FB181B78012213400AD07B6924229B5CEF
:103AC000DBB2002B04D17B69DB687A691000984770
:103AD0007B6925229B5CDBB2052B2ED07B692522DE
:103AE0009B5CDBB2002B28D03B6903221A757B69F3
:103AF00000225A837B6900229A837B6925229B5C82
:103B0000DBB2412B0ED07B699B7A002B0AD07B69FC
:103B100018000E4B98473B695B68E022D2021A43BB
:103B20003B695A600E23FB181B780422134004D013
:103B30007B695B697A6910009847C046BD4606B04C
:103B400080BDC04698020020293800009936000048
:103B5000AD370000BD36000080B582B000AF7860A0
:103B60007B6800221A70C046BD4602B080BDF0B529
:103B70008DB000AFB860F9603A607B60002300242C
:103B80003B627C6200230024BB61FC613F23FB623B
:103B900053E0FB6A203B002B04DB01229A40130018
:103BA0007B610BE0FB6A2022D31A0122DA4013006A
:103BB0000021FA6A91400A0013437B610122FB6AEB
:103BC0009A4013003B61BB69FC69DB186441BB612F
:103BD000FC61BB683A691A401500FB687A691A40B3
:103BE00016002B00334307D0BB6901221343BB618E
:103BF000FB6900221343FB617A68FB699A4219D87A
:103C00007A68FB699A4203D13A68BB699A4211D833
:103C1000B969FA693B687C68C91AA2410B001400B3
:103C2000BB61FC613A6A3B6913433B627A6A7B6918
:103C300013437B62FB6A013BFB62FB6A002BA8DA41
:103C40003B6A7C6A18002100BD460DB0F0BD80B50E
:103C500086B000AFF860B9607A601623FB180022C6
:103C60001A80BB683B61BB685A08FB689A4201D264
:103C7000402326E0BB685B083B610AE03A69FB68C9
:103C8000D31A3B611623FB181A881623FB1801323E
:103C90001A803A69FB689A42F0D21623FB18162262
:103CA000BA181288013A1A801623FB181B88FF2BBA
:103CB00001D9402305E07B681622BA1812881A80C1
:103CC00000231800BD4606B080BD0000F0B59DB0D1
:103CD00000AFF863B9637A633322BA181370002314
:103CE0000024BB65FC65002300243B657C65002344
:103CF0000024BB66FC6600233B66582330229446B2
:103D0000BC4463441A78FB6B5A43BB6B9A4201D99B
:103D10004023C6E03323FB181B78002B3DD15823EA
:103D200030229446BC4463441B78DBB23B610023E1
:103D30007B61FB6BBB600023FB605C4CBA68FB687B
:103D400038697969A04703000C001B00FB6400235D
:103D5000BB64BB6B3B6000237B60B86CF96C3A685A
:103D60007B68534CA04703000C00BB65FC65002139
:103D70000122BB6DFC6DC91AA2410B0014003B650A
:103D80007C653B6D1B0C7A6D16041E433B6D1D0458
:103D90003300BB660023FB667DE03323FB181B78F2
:103DA000012B00D077E0372330229446BC44634493
:103DB00000221A704EE0BB6BBB620023FB62B86A44
:103DC000F96A03005B0F0A00D2001343FB6403008F
:103DD000DB00BB64FB6B3B6200237B625823302219
:103DE0009446BC4463441B78DBB2BB610023FB6197
:103DF0002E4CBA69FB69386A796AA04703000C0047
:103E00003B647C643B6C7C6CB86CF96C1A002300DE
:103E1000274CA04703000C003B6637233022944612
:103E2000BC4463441B783A6ED31A3B663B6EDB0896
:103E30003B663B6E1F4A934215D937233022944686
:103E4000BC4463441A78372330218C46BC44634415
:103E500001321A70372330229446BC4463441B78E5
:103E6000072BA8D900E0C046372330229446BC4433
:103E700063441B78082B01D1402312E03723302202
:103E80009446BC4463441B785B031A003B6E1343A7
:103E9000BB660023FB66BB6EFC6E9AB27B6B1A801E
:103EA00000231800BD461DB0F0BDC0468D6B00005C
:103EB0006F3B0000FF1F000080B584B000AF020020
:103EC000FB1D1A70BB1D0A1C1A701A4B1B780122AD
:103ED0005340DBB2002B03D1BB1D1B78002B1BD042
:103EE0000C23FB181800144B98470C23FB18FA1DE1
:103EF00012781A700C23FB18190013200F4B9847E7
:103F000013200F4B98470B4BFA1D12785A70094B30
:103F100001221A70002308E0064B5B78FA1D127824
:103F20009A4201D1002300E01D231800BD4604B0D1
:103F300080BDC046A4000020593B00008959000004
:103F4000CD59000080B582B000AF78600A00FB1C3C
:103F50001A707B68344A934222D0334A934203D882
:103F6000324A934207D05AE0314A93422DD0314A27
:103F700093423FD053E0FB1C1B78012B0AD002DC9C
:103F8000002B05D04BE0022B06D0032B06D046E0D9
:103F9000294B45E0294B43E0294B41E0294B3FE0C9
:103FA000FB1C1B78012B0AD002DC002B05D036E06D
:103FB000022B06D0032B06D031E0032330E0224B46
:103FC0002EE0224B2CE0224B2AE0FB1C1B78012B1D
:103FD0000AD002DC002B05D021E0022B06D0032BF7
:103FE00006D01CE01B4B1BE01B4B19E01B4B17E0E2
:103FF0001B4B15E0FB1C1B78012B0AD002DC002BAD
:1040000005D00CE0022B06D0032B06D007E0154BA1
:1040100006E0154B04E0154B02E0154B00E00023D1
:104020001800BD4602B080BD000C004200080042EE
:1040300000100042001400420300040003000500C9
:1040400003000600030007000300010003001E0038
:1040500003001F00030008000300090003000A001A
:1040600003000B0003001000030011000300120006
:104070000300130090B589B000AF78600C23FB18E3
:104080000F4A13CA13C312681A600023FB610EE0C3
:104090000C23FB18FA699200D3581A007B689A42E5
:1040A00002D1FB69DBB206E0FB690133FB61FB690E
:1040B000032BEDD900231800BD4609B090BDC046C2
:1040C000C48E000080B582B000AF78607B680022AB
:1040D0001A70C046BD4602B080BD000080B582B0F7
:1040E00000AF02003960FB1D1A70FB1D1B78012B0D
:1040F0000AD0022B0FD0002B14D10E4B0D4A916920
:104100003A680A439A610FE00A4B0A4AD1693A6851
:104110000A43DA6108E0074B064A116A3A680A4323
:104120001A6201E0172300E000231800BD4602B028
:1041300080BDC0460004004080B582B000AF78600A
:104140007B6880221A707B6800225A707B6801228B
:104150009A707B680022DA70C046BD4602B080BD0E
:1041600080B500AF054B9B78DBB21A0002231340E9
:104170005A1E9341DBB21800BD4680BD00200041AD
:1041800080B584B000AF78607B681B68FB60FB681B
:10419000DB695A1E9341DBB21800BD4604B080BDF6
:1041A00080B582B000AF7860C0467B681800044BD1
:1041B0009847031EF9D1C046BD4602B080BDC04637
:1041C00081410000B0B58CB002AF786039607B6887
:1041D0001B68BB617B681B681800A84B98470300ED
:1041E0007B617B6914333B6100237B6200233B626C
:1041F0000A23FB1800221A801F23FB1800221A70C2
:104200001E23FB1810221A703B681B8A8022D201E1
:1042100093421CD08022D201934206DC002B0DD0A9
:1042200080229201934224D035E0C022D2019342F1
:1042300028D080221202934212D02CE01F23FB18B8
:1042400000221A701E23FB1810221A7023E01F236D
:10425000FB1800221A701E23FB1808221A701AE09D
:104260001F23FB1800221A701E23FB1803221A704A
:1042700011E01F23FB1801221A701E23FB181022C5
:104280001A7008E01F23FB1801221A701E23FB1866
:1042900008221A70C0463B681A683B68DB681A43FC
:1042A0003B685B6913433A68128A13433A68127E8B
:1042B000120213433A682621525C520713437B6271
:1042C0001D23FB1800221A703B685B68FB60FB68CB
:1042D000002B1ED08022520593424FD13B682722EB
:1042E0009B5C01225340DBB2002B46D03B681D6A29
:1042F0003B69DBB21800624B984701001D23FC1894
:104300000A23FB181A0028005E4B9847030023700D
:1043100033E03B6827229B5C002B14D03B68186A73
:104320003B68996A1D23FC181F23FB181D780A237C
:10433000FA181E23FB181B7800932B00524DA84738
:10434000030023701AE03B681D6A3B69DBB218006A
:104350004B4B98471D23FC181F23FB1819780A2381
:10436000FA181E23FB181B7800930B00010028008D
:10437000454DA8470300237000E0C0461D23FB18ED
:104380001B78002B03D01D23FB181B7871E03B68C2
:104390005B7E002B03D03B689A7EBB699A737B6877
:1043A00018003A4B98470A23FB181A88BB699A8170
:1043B0007A6AFB6813437B623B6827229B5C01227D
:1043C0005340DBB2002B03D07B6A042213437B6291
:1043D0003B685B7E9A023B681B7F5B021A433B682B
:1043E0005B7F1B021A433B6824215B5C5B041A431E
:1043F0003B6825215B5C1B0413433B623B68DB7A13
:104400001A003B6A13433B623B681B89FF2B0BD0AE
:104410007B6A8022520413437B623B681B891A002B
:104420003B6A13433B6208E03B68DB7E002B04D011
:104430007B6A8022D20413437B623B682C229B5C04
:10444000002B03D1124B9847031E03D07B6A8022B6
:1044500013437B627B6818000C4B9847BB693A6A30
:104460005A607B681800094B9847BB697A6A1A60E2
:1044700000231800BD460AB0B0BDC046754000001C
:10448000AD5A00004F3C0000CD3C0000A1410000AF
:104490006141000090B593B000AFF860B9607A60F8
:1044A0003B23FB1800221A70FB68BA681A60FB688D
:1044B0001B687B63FB681B681800864B98470300EA
:1044C0003B633B6B0233FB623B6B1433BB627B6B26
:1044D0001B680122134001D00523F6E07B6B1B68AB
:1044E0000222134001D01C23EFE00122FB6A9A4014
:1044F000130019000220784B98472423FB1818005A
:10450000764B98477B682D229A5C2423FB181A70FF
:10451000BB6ADBB22422BA1811001800704B98470E
:10452000BB6ADBB218006F4B98477B682D229B5CFF
:10453000002118006C4B98477B68DA7AFB685A7147
:104540007B6824229A5CFB689A717B6825229A5CBE
:10455000FB68DA717B68DA7EFB681A727B681A7F07
:10456000FB685A723B23FC187A68FB68110018003C
:104570005E4B9847030023703B23FB181B78002BEE
:1045800003D03B23FB181B789FE02023FB18180067
:10459000574B98472023FB1800225A702023FB1802
:1045A00000229A707B681A6B1023FB181A607B68D4
:1045B0005A6B1023FB185A607B689A6B1023FB1808
:1045C0009A607B68DA6B1023FB18DA604723FB18CC
:1045D00000221A702CE04723FB181A781023FB18CE
:1045E0009200D3583B643B6C002B09D14723FB1846
:1045F0001A78BB68110018003E4B984703003B64D3
:104600003B6C01330DD03B6CDAB22023FB181A70DF
:104610003B6C1B0CDBB22022BA1811001800364B81
:1046200098474723FB181A784723FB1801321A7062
:104630004723FB181B78032BCDD90023FB630AE02B
:10464000FA68FB6B02339B00D318043300221A6014
:10465000FB6B0133FB63FB6B052BF1D9FB6800227D
:104660009A62FB6800225A62FB680022DA85FB68C6
:1046700000229A85FB68302200219954FB68312280
:1046800000219954FB68322200219954FB6833229F
:1046900000219954FB681B682722BC1818000D4B99
:1046A000984703002370154A2723FB181B78110035
:1046B0001800134B98472723FB181A78114B9200C8
:1046C000F968D1503B23FB181B781800BD4613B086
:1046D00090BDC04675400000DD400000C5400000B0
:1046E00089590000CD590000B93E0000C5410000C5
:1046F00039410000453F0000755C00002149000081
:10470000754C00009802002080B500AF024B98471E
:10471000C046BD4680BDC046D54F000080B500AF45
:10472000024B9847C046BD4680BDC0462950000098
:1047300080B584B000AF78607B681B68FB60FB6865
:10474000DB695A1E9341DBB21800BD4604B080BD40
:1047500080B582B000AF7860C0467B681800044B1B
:104760009847031EF9D1C046BD4602B080BDC04681
:104770003147000080B586B000AFF860B960BB1D5E
:104780001A80FB681B687B610F4B9847FB68DB8DC9
:104790009BB2002B03D00D4B9847052310E0FB681C
:1047A000BA1D1288DA85094B9847FB68BA689A6285
:1047B000FB683322052199547B6901229A750023F5
:1047C0001800BD4606B080BD094700001D47000027
:1047D00080B586B000AFF860B960BB1D1A80FB6879
:1047E0001B687B61164B9847FB689B8D9BB2002B27
:1047F00003D0144B984705231EE0FB68BA1D1288AE
:104800009A85104B9847FB68BA685A62FB68322257
:10481000052199547B6904229A75FB681B7A002B49
:1048200002D07B6920229A75FB685B7A002B02D04C
:104830007B6908229A7500231800BD4606B080BD2A
:10484000094700001D47000080B584B000AFF86044
:10485000B960FB1D1A70FB1D1B78FA6802339B00C0
:10486000D3180433BA681A60FB6830229B5C5AB2D2
:10487000FB1D1B78012199400B005BB213435BB217
:10488000D9B2FB6830229954C046BD4604B080BD01
:1048900080B584B000AFF860B960BB1D1A80BB1D45
:1048A0001B88002B01D1172310E0FB68DB79012264
:1048B0005340DBB2002B01D01C2307E0BB1D1A883C
:1048C000B968FB681800034B984703001800BD4601
:1048D00004B080BD7547000080B584B000AFF860BB
:1048E000B960BB1D1A80BB1D1B88002B01D117238B
:1048F00010E0FB689B7901225340DBB2002B01D012
:104900001C2307E0BB1D1A88B968FB681800034B1D
:10491000984703001800BD4604B080BDD147000091
:1049200080B588B000AF0200FB1D1A70FB1D1A781D
:10493000A34B9200D358BB61BB691B687B61BB6909
:104940001800A04B98477B691B7EDAB21223FB1834
:104950001A807B699B7DDBB29AB21223FB1812216D
:10496000791809880A401A80BB6930229B5CBA69B1
:104970003121525C1340DAB21023FB181A80122343
:10498000FB181B880122134044D0BB69DB8D9BB20E
:10499000002B3CD0BB699B6A1B78DAB21C23FB1846
:1049A0001A80BB699B6A5A1CBB699A62BB695B79B6
:1049B000012B13D1BB699B6A1B78DBB21B021AB2B5
:1049C0001C23FB1800215B5E13431AB21C23FB1847
:1049D0001A80BB699B6A5A1CBB699A621C23FB182C
:1049E0001B88DB05DB0D9AB27B691A85BB69DB8D01
:1049F0009BB2013B9BB2BA69191CD185002B09D12E
:104A00007B6901221A757B6902229A7502E07B6933
:104A100001221A751223FB181B880222134011D0A1
:104A20007B6902221A75BB69332200219954102335
:104A3000FB181B880122134004D0BB69DB68BA69EC
:104A4000100098471223FB181B880422134000D142
:104A5000BDE0BB699B8D9BB2002B00D1B4E07B69AC
:104A60005B8B9BB2DAB21F23FB183F210A401A70FE
:104A70001F23FB181B780822134007D01F23FB18A5
:104A80001F22BA18127808218A431A701F23FB18B4
:104A90001B78002B50D01F23FB181B7802221340D9
:104AA00007D0BB6932221A2199547B6902225A83AA
:104AB00036E01F23FB181B780422134007D0BB6984
:104AC00032221E2199547B6904225A8328E01F2335
:104AD000FB181B780122134007D0BB693222132137
:104AE00099547B6901225A831AE01F23FB181B7813
:104AF0001022134007D0BB693222422199547B69AE
:104B000010225A830CE01F23FB181B78202213402D
:104B100006D0BB693222412199547B6920225A83F5
:104B20001023FB181B880422134050D0BB695B691B
:104B3000BA69100098474AE07B691B8D9AB20E2330
:104B4000FB18D205D20D1A80BB695B6A0E22BA1817
:104B50001288D2B21A70BB695B6A5A1CBB695A626E
:104B6000BB695B79012B0DD1BB695B6A0E22BA1858
:104B70001288120A92B2D2B21A70BB695B6A5A1CCE
:104B8000BB695A62BB699B8D9BB2013B9BB2BA6900
:104B9000191C9185002B1AD17B6904221A75BB69F7
:104BA0003222002199541023FB181B880222134043
:104BB0000DD0BB691B69BA691000984707E0C04671
:104BC00098020020514700007B6904221A751223C5
:104BD000FB181B881022134010D07B6910221A7515
:104BE0007B6910221A761023FB181B8810221340B1
:104BF00004D0BB69DB69BA69100098471223FB181F
:104C00001B882022134010D07B6920221A757B69F3
:104C100020221A761023FB181B880822134004D088
:104C2000BB699B69BA69100098471223FB181B885F
:104C30000822134010D07B6908221A757B6908226C
:104C40001A761023FB181B882022134004D0BB695E
:104C50001B6ABA6910009847C046BD4608B080BDBF
:104C600080B582B000AF0200FB1D1A70C046BD4681
:104C700002B080BD80B584B000AF02003960FB1D7A
:104C80001A70134B1B7801225340DBB2002B15D056
:104C90000023FB600CE00F4BFA6892000E49D150E4
:104CA0000E4BFA6892000021D150FB680133FB6083
:104CB000FB68032BEFD9064B01221A70FB1D1A78F3
:104CC000044B92003968D150C046BD4604B080BD47
:104CD000A6000020A8000020614C000098020020DF
:104CE00090B585B000AF78600823FA180C4B10001F
:104CF000190004231A000B4B98470F23FC187B68FC
:104D00001800094B9847030023700F23FB181B78EA
:104D10000822BA18D35C5BB21800BD4605B090BD3E
:104D2000D48E0000F18400007540000080B500AF13
:104D3000034B1B6800209847C046BD4680BDC04657
:104D4000A800002080B500AF034B5B6801209847A6
:104D5000C046BD4680BDC046A800002080B500AF5B
:104D6000034B9B6802209847C046BD4680BDC046A5
:104D7000A800002080B500AF034BDB6803209847F4
:104D8000C046BD4680BDC046A800002080B584B0A6
:104D900000AF0200FB1D1A700F23FB18FA1D1278DA
:104DA000D2091A700E23FB18FA1D127852091A70D4
:104DB0000D4BBB600F23FB181B78002B0FD10F236B
:104DC000FB181B789B0010229446BC446344083BAC
:104DD0001A680E23FB181B78DB01D31800E00023B0
:104DE0001800BD4604B080BD0044004180B582B0CB
:104DF00000AF0200FB1D1A70FB1D1B781800034B4F
:104E0000984703001800BD4602B080BD8D4D0000DC
:104E100080B582B000AF78607B6800221A707B6832
:104E200001225A707B6800229A70C046BD4602B0CB
:104E300080BD000080B584B000AF0200FB1D1A7079
:104E4000BB1D0A1C1A70FB1D1B7818000D4B9847E0
:104E50000300FB60FB1D1B781F22134001229A40B8
:104E60001300BB60BB1D1B78002B03D0FB68BA6826
:104E70009A6102E0FB68BA685A61C046BD4604B058
:104E800080BDC046ED4D000080B500AF124B18004C
:104E9000124B9847104B01221A700F4B19000F202C
:104EA0000F4B984701210F200E4B98470A4B1900D2
:104EB00001200B4B9847012101200A4B9847064BD4
:104EC00019001C20064B984701211C20054B9847D0
:104ED000C046BD4680BDC046FC010020114E00000A
:104EE0006D2A0000354E000080B500AF224B18003F
:104EF000224B9847204B01221A701F4B19000E209D
:104F00001F4B984700210E201E4B98471A4B190043
:104F10000F201B4B984700210F201A4B9847164B28
:104F200019000120164B984700210120154B984786
:104F30000120154B9847104B19000A20104B984739
:104F400000210A200F4B98470B4B19001C200C4BDB
:104F5000984700211C200B4B9847074B00221A70E2
:104F6000054B00225A70044B19001820044B984737
:104F7000C046BD4680BDC046FC010020114E000069
:104F80006D2A0000354E00008D4F000080B582B0C4
:104F900000AF0200FB1D1A700A4B18000A4B98471D
:104FA000084B01221A70074B19000320074B984742
:104FB000FB1D1B7819000320054B9847C046BD46D2
:104FC00002B080BDFC010020114E00006D2A0000DF
:104FD000354E000080B582B000AF104B1B68002B2F
:104FE00012D1EFF310837B607B68002B09D172B67E
:104FF000BFF35F8F0A4B00221A700A4B01221A700E
:1050000002E0084B00221A70044B1B685A1C034B29
:105010001A60C046BD4602B080BDC046B800002040
:1050200012000020BC00002080B500AF0B4B1B68B5
:105030005A1E0A4B1A60094B1B68002B0AD1084BF9
:105040001B78DBB2002B05D0064B01221A70BFF390
:105050005F8F62B6C046BD4680BDC046B800002026
:10506000BC0000201200002080B582B000AF786044
:105070007B6801225A607B6800225A707B68062296
:105080001A707B6800221A727B6800225A72C0462E
:10509000BD4602B080BD80B582B000AF78607B684D
:1050A00001225A707B6801229A707B680022DA70B4
:1050B0007B6801221A717B6807221A707B680022C4
:1050C0005A71C046BD4602B080BD80B582B000AF07
:1050D00078607B6803221A707B6800225A707B68B4
:1050E00001229A70C046BD4602B080BD80B582B034
:1050F00000AF0200FB1D1A70034AFB1D1B781372E0
:10510000C046BD4602B080BD0004004080B582B0FC
:1051100000AF0200FB1D1A70BB1D0A1C1A70FB1D9C
:105120001B78012B08D0022B0BD0002B0ED10B4A81
:10513000BB1D1B7853720BE0084ABB1D1B78937292
:1051400006E0064ABB1D1B78D37201E0172300E07E
:1051500000231800BD4602B080BDC04600040040D8
:1051600080B582B000AF0200FB1D1A70084AFB1D1B
:105170001B780F210B40D9B253680F200140490022
:105180001E2083430B435360C046BD4602B080BD22
:105190000040004180B500AFC046044BDB681022E0
:1051A0001340FAD0C046BD4680BDC046000800404E
:1051B00080B500AF0C4B02229A840C4B98470A4AE8
:1051C0000B4B9B68D362084A094B5B689362064BA2
:1051D00000229A84054B9847034A054B1B689BB2F3
:1051E0009384C046BD4680BD000800409551000034
:1051F000C000002080B582B000AF0200FB1D1A7015
:10520000FB1D1B78082B40D89A00224BD3181B6833
:105210009F46214B1B6939E0204B1B6A9B059B0F66
:10522000DBB21A001E4BD34030E080231B022DE07E
:1052300080231B022AE0184B5B6927E0164B1B6892
:105240000222134001D1002320E0164B9847124B55
:105250001B680422134009D00020134B984702001A
:105260000D4B9B681B041B0C53430FE00F4B0DE0D1
:105270000A4A5023D35CDBB21A000423134001D145
:10528000002303E0044BDB6800E000231800BD4668
:1052900002B080BDD88E0000C00000200008004091
:1052A00000127A0095510000AD5A0000006CDC023B
:1052B00080B584B000AF78601A4B1B6AFB607B68D6
:1052C0001B781A1C03231340DAB20D23FB180321A9
:1052D0000A4010001A7803218A43111C021C0A4359
:1052E0001A707B689A780C23FB18D0011A787F21FA
:1052F0000A40111C021C0A431A707B685A780C235E
:10530000FB1801210A4090011A7840218A43111CA0
:10531000021C0A431A70034BFA681A62C046BD4663
:1053200004B080BD0008004080B584B000AF786054
:105330002F4B9B69FB607B685A780C23FB1801217B
:105340000A40D0001A7808218A43111C021C0A4323
:105350001A707B689A780C23FB1801210A40900090
:105360001A7804218A43111C021C0A431A707B68B4
:105370001B781A1C07231340DAB20D23FB180721F0
:105380000A4010001A7807218A43111C021C0A43A4
:105390001A707B681A790C23FB18D0011A787F21C8
:1053A0000A40111C021C0A431A707B68DA780C232D
:1053B000FB1801210A4090011A7840218A43111CF0
:1053C000021C0A431A707B685A790D23FB180121CD
:1053D0000A4010011A7810218A43111C021C0A434A
:1053E0001A70034BFA689A61C046BD4604B080BD8E
:1053F0000008004080B582B000AF0200FB1D1A70AB
:10540000FB1D1B78082B3BD89A00214BD3181B6837
:105410009F46204B1F4A126A02210A431A62002348
:1054200031E01C4B1B4A926902210A439A6129E030
:10543000184A184B1B8A9BB202210B439BB2138262
:1054400020E0144A134B9B8A9BB202210B439BB270
:10545000938217E0104B1B6802221A430E4B1A600E
:105460000E4B98470EE00B4A0A494423CB5CDBB253
:1054700002210B43D9B24423D15403E0002302E0BC
:10548000172300E000231800BD4602B080BDC046CF
:10549000FC8E000000080040C0000020B151000058
:1054A00080B582B000AF3B0001221A7000237B6000
:1054B00009E07B68DBB23A0011001800054B984701
:1054C0007B6801337B607B68242BF2D9C046BD46E4
:1054D00002B080BD8959000080B5A2B000AF4F4B2B
:1054E000C222D2009A6000204D4B98474D4B9847FE
:1054F0004A4A4D4B1B689B09DBB2191C7F230B40AA
:10550000D9B293697F2001400904484803400B4306
:1055100093618023FB181800454B98478023FB18A4
:1055200007221A708023FB1801225A708023FB186F
:1055300001229A708023FB1801221A718023FB1824
:105540000022DA708023FB1818003A4B9847042099
:10555000394B98477C23FB181800384B98477C231D
:10556000FB1800221A707C23FB1801229A707C23FE
:10557000FB1800225A707C23FB181800304B984708
:1055800006202D4B98472F4B98475823FB1818009F
:105590002D4B98475823FB1804221A705823FB18E8
:1055A00020225A605823FB1800221A725823FB1835
:1055B00000225A725823FB1819000220234B9847E7
:1055C0000220234B98470020224B984700210020BF
:1055D000214B9847002101201F4B984700210220B2
:1055E0001D4B98473B1D1800174B98473B1D062243
:1055F0001A703B1D01225A603B1D00221A723B1D8E
:1056000000225A723B1D19000020104B98470020C1
:105610000F4B9847C046BD4622B080BD00080040F1
:1056200061510000A154000024608000FFFF80FF52
:105630009750000029530000F5530000CB500000A4
:10564000B1520000015700006950000031570000BE
:1056500055580000ED5000000D51000080B582B09B
:1056600000AF02003960FB1D1A70FB1D1B78012B77
:105670000AD0022B0FD0002B14D10E4B0D4A91698A
:105680003A680A439A610FE00A4B0A4AD1693A68BC
:105690000A43DA6108E0074B064A116A3A680A438E
:1056A0001A6201E0172300E000231800BD4602B093
:1056B00080BDC0460004004080B500AF024B984753
:1056C000C046BD4680BDC046D54F000080B500AF86
:1056D000024B9847C046BD4680BDC04629500000D9
:1056E00080B500AF054B5B78DBB25BB2002B01DA13
:1056F000012300E000231800BD4680BD000C0040DF
:1057000080B500AF08210020074B9847074B0122C6
:105710001A70C046054B1B78DBB21A0001231340F8
:10572000F8D1C046BD4680BD5D560000000C00406B
:1057300080B586B000AF02003960FB1D1A70FB1DFA
:105740001B787B61FB1D1B783B613B681B781B0250
:105750001A007B6913437B613B685B78002B04D0A4
:105760007B698022D20213437B613B685B7A002B0A
:1057700004D07B698022120313437B613B685B6822
:10578000012B2CD93B685A683B685B68013B13408E
:105790001AD10023FB600223BB6005E0FB680133E4
:1057A000FB60BB685B00BB603B685A68BB689A42A1
:1057B000F4D8FB681B023A6913433B617B69802282
:1057C000520313437B610AE03B685B681B023A6942
:1057D00013433B617B698022920213437B613B68E8
:1057E0001B7A002B04D07B698022920313437B61D8
:1057F000C046134B9847031EFBD1124B9847124AE1
:10580000FB1D1B781370C0460D4B9847031EFBD140
:105810000E4B3A699A60C046094B9847031EFBD16C
:105820000A4B0A4A51688022520211407A690A439F
:105830005A60074B9847C046BD4606B080BDC0467B
:10584000E1560000B9560000080C0040000C004072
:10585000CD56000080B582B000AF0200FB1D1A706B
:10586000C0460E4B9847031EFBD10D4B98470D4A7F
:10587000FB1D1B781370C046084B9847031EFBD1D5
:10588000094B094A5268802149020A435A60074B72
:105890009847C046BD4602B080BDC046E1560000F4
:1058A000B9560000040C0040000C0040CD5600002A
:1058B00080B586B000AF0200FB1D1A70C0462A4BAF
:1058C0009847031EFBD1294B9847294AFB1D1B789B
:1058D0001370C046244B9847031EFBD1254B5B68D1
:1058E000DB04DB0EDBB21800234B984703007B611F
:1058F0001F4AFB1D1B7813701E4B5B68DB02DB0F1E
:10590000DAB21323FB181A701C4AFB1D1B781370A4
:10591000C046154B9847031EFBD1164B9B681B02D4
:105920001B0C9BB2FB60164B98471323FB181B788C
:10593000002B09D1FB68012B06D9124BF968786955
:10594000984703007B610AE01323FB181B78002BA8
:1059500005D0FB6801337A69DA4013007B617B690B
:105960001800BD4606B080BDE1560000B9560000E3
:10597000040C0040000C0040F5510000080C0040F1
:10598000CD560000A168000080B584B000AF0200D1
:105990003960FB1D1A70FB1D1B78FB603B681B7890
:1059A0001B021A00FB681343FB60FB1D1B781800E9
:1059B000044B9847044BFA6892B25A80C046BD46E1
:1059C00004B080BD155A0000000C004080B582B0C4
:1059D00000AF0200FB1D1A700A4B98470A4AFB1DD4
:1059E0001B7813700949094B5B889BB28022D20156
:1059F00013439BB24B80064B9847C046BD4602B04E
:105A000080BDC046B9560000020C0040000C0040AA
:105A1000CD56000080B584B000AF0200FB1D1A70A7
:105A20001C4B98471C4AFB1D1B7813701B4B5B8853
:105A30001B051B0FDBB2FB60184A538818490B404B
:105A40005380164A154B5B889BB216490B409BB29C
:105A50005380C046114B5B889BB21A008023DB0148
:105A60001340F7D10D4AFB68DBB2191C0F230B4022
:105A7000D9B25388081C0F210140080208490B4085
:105A8000191C031C0B435380074B9847C046BD4667
:105A900004B080BDB9560000020C0040000C00406C
:105AA000FFF0FFFFFFBFFFFFCD56000080B584B0C1
:105AB00000AF0200FB1D1A700D4B98470D4AFB1DED
:105AC0001B7813700C4B5B881B051B0FDAB20F237E
:105AD000FB181A70094B98470F23FB181B78180006
