:10000000F0210020292B0000252B0000252B0000CB
:1000100000000000000000000000000000000000E0
:10002000000000000000000000000000252B000080
:100030000000000000000000252B0000252B000020
:10004000252B0000252B0000252B00007D0500003E
:10005000252B0000252B0000252B0000252B000060
:10006000252B0000B1230000C1230000D123000094
:10007000E12300000000000000000000252B00002C
:10008000252B0000252B0000252B0000252B000030
:10009000252B00000000000000000000D50E00002D
:1000A000252B0000E9100000252B0000252B000067
:1000B0000000000010B5064C2378002B07D1054B3B
:1000C000002B02D0044800E000BF0123237010BDC4
:1000D0007000002000000000105E0000084B10B50A
:1000E000002B03D00749084800E000BF0748036819
:1000F000002B00D110BD064B002BFBD09847F9E731
:100100000000000074000020105E0000105E00007F
:10011000000000007047C04610B580221202044B58
:10012000DA61052203490448044B984710BDC046D4
:100130000044004138010020D0000020752100005B
:1001400070B582B005000E0000226B46DA80064CC6
:100150006B46991D2800A0470028F9D16B4606334D
:100160001B88337002B070BD6120000070B50500BF
:100170008CB2034E21002800B0470028FAD170BD90
:100180003520000030B591B08023DB0500930023BB
:100190000193FF2269460A8100228B72CB7296215D
:1001A00089010891012124206C46215401302154F9
:1001B00025316354013163540A930531635401318D
:1001C000635405932382E3762276227762761323A3
:1001D000A376627780235B030393324B0C93324BFD
:1001E0000D9301235B420E930F93304D304C6A46C2
:1001F00030492800A0470028F9D12C4D2C68200058
:100200002D4B98471F2318401E3B83402B4A1360F9
:100210002A68D369002BFCD1226802331343236080
:100220002248274B1860274A274B1A60274A284B39
:100230001A606A461F491E4B9847264D2B689868DE
:100240000021254CA0472B6858680021A047962321
:100250009B01089380235B030393204B0C93204B5B
:100260000D9301235B420E930F931E4D104C6A4673
:100270001D492800A0470028F9D11A4D2C682000FC
:100280000D4B98471F2318401E3B83400B4A1360B9
:100290002A68D369002BFCD1226802331343236000
:1002A00011B030BD0200160002001700040100204A
:1002B000FD1C0000001400428523000000E100E066
:1002C0004C0100206D0100004801002041010000A8
:1002D000440100206C0000200D4B000002001000C3
:1002E00002001100D0000020000C004270B5084C44
:1002F000002208492000084DA84701220749200094
:10030000A8473122A15C03230B43A35470BDC04610
:10031000D0000020150100005D210000190100003F
:1003200010B5052202490348034B984710BDC0464B
:1003300038010020D00000209521000070B5002079
:10034000084B98470500084CFA218900A047074B45
:10035000186007492800A047064B18600522064B85
:100360001A6070BDB5280000ED2D000004000020CB
:1003700040420F000000002010E000E00368987A7F
:10038000C009704770B5040006680822054B1A6062
:10039000054D2000A8470028FBD1328802231343D3
:1003A000338070BD00E100E07D03000070B5040003
:1003B000066808218023064AD150064D2000A84730
:1003C0000028FBD1338802229343338070BDC0469E
:1003D00000E100E07D03000070B504000668074BF3
:1003E00098470023A382E382054D2000A8470028F8
:1003F000FBD1328801231343338070BDAD0300006D
:100400007D03000070B5040006684379002B06D117
:10041000094B7380094D2000A8470028FBD12379A0
:10042000002B04D00020012B04D1306902E0308A77
:1004300080B2FFE770BDC0460080FFFF7D03000073
:10044000F0B583B00400019115000668114F20003B
:10045000B8470028FBD12379002B0AD0012B16D1F5
:100460001730012D14D80635AD00019BAB5100208B
:100470000EE01720022D0BD8074B019A9A4207D89D
:100480006B469B880C356D00AB53002000E01A20B2
:1004900003B0F0BD7D030000FFFF0000F0B583B0A6
:1004A0000400160001602E4A916920230B439361DA
:1004B00001A902230B7004202A4B984704202A4BE1
:1004C00098472000294B9847B3782371337963719B
:1004D000274B1C60276833883B80B378002B17D0EC
:1004E0001720012B3AD13B889BB23B80F378002B3D
:1004F00003D03A88802313433B801E4D2000A84739
:100500000028FBD10022B16820001B4B98471BE05C
:100510003A88042313433B80F3781720002B1DD126
:10052000144D2000A8470028FBD10022B16820000C
:10053000114B98470F4D2000A8470028FBD10122FE
:10054000F16820000C4B984733790020002B05D030
:100550007A888023DB0113437B80FFE703B0F0BD83
:1005600000040040CD29000041290000D90300000B
:10057000400100207D0300004104000010B5124B33
:100580001A681468D38A918A1940237AE079034063
:10059000D80906D04B0701D51369984780232372E9
:1005A00010E0D80706D5CB0701D5936898470123FB
:1005B000237207E09B0705D58B0701D5D3689847C1
:1005C0000223237210BDC04640010020F0B547460B
:1005D00080B40C00904600280DD1002A0EDD8F1843
:1005E000084E094D306821002B6898470134A74216
:1005F000F8D1404603E00120404200E0002004BC66
:100600009046F0BD4C01002044010020F0B5474663
:1006100080B40E0015000138022811D8002A12D02B
:1006200000240C4B98460C4F43461868315D3B68DC
:100630009847002809DB0134A542F5D1200006E0E7
:100640000120404203E0002001E00120404204BCC0
:100650009046F0BD4C0100204801002010B58CB040
:100660006846114B984703236A465370013313734E
:100670000E4C0F4920000F4B98472268537E5BB207
:10068000002BFBDB802109040B4B1960117802233E
:100690000B431370054B1A68537E5BB2002BFBDBD8
:1006A00001200CB010BDC046610A000050010020BE
:1006B00000400042A90A000000E100E010B58CB043
:1006C0006846114B984703236A46537004331373EB
:1006D0000E4C0F4920000F4B98472268537E5BB2A7
:1006E000002BFBDB802109040B4B196011780223DE
:1006F0000B431370054B1A68537E5BB2002BFBDB78
:1007000001200CB010BDC046610A0000500100205D
:1007100000400042A90A000000E100E00A4B1A680C
:100720008020000480230949C850537E5BB2002B0F
:10073000FBDB137802218B431370034B1A68537E43
:100740005BB2002BFBDB70475001002000E100E0B2
:10075000F0B583B00F00204B19684B7E5BB2002BC5
:10076000FBDB0A7B022313430B734B7E5BB2002B34
:10077000FBDB0124042602250B7EDBB222001A409B
:100780001E4200D02A431D4200D032431442F3D00F
:100790004B7E5BB2002BFBDB4A8B01AB1A80012343
:1007A0000B760A7ED2B21340540701D502242343AC
:1007B000920701D5042213435B0701D502230B7670
:1007C000019B036005485843DC210903044B98470B
:1007D000386003B0F0BDC04650010020001D10007D
:1007E000ED2D0000F0B583B00F00224B19684B7E51
:1007F0005BB2002BFBDB0A7B022313430B734B7EA4
:100800005BB2002BFBDB0124042602250B7EDBB24E
:1008100022001A401E4200D02A431D4200D032431B
:100820001442F3D04B7E5BB2002BFBDB4A8B01AB57
:100830001A8001230B760A7ED2B21340540701D5E9
:1008400002242343920701D5042213435B0701D5F9
:1008500002230B76019A0260074B53431B0BFA20CD
:1008600080004343054AD01A0549064B9847386033
:1008700003B0F0BD50010020E40C0000FC5A1C0045
:100880008F040000ED2D000010B582B06846074BC4
:10089000984700236A461370054C06492000064B12
:1008A00098472000054B984702B010BD990F0000F3
:1008B0007001002000480042AD0F000085100000CC
:1008C00010B55623FF335843FA218900034B98474C
:1008D00082B200210248034B984710BD012F00004F
:1008E00070010020C110000030B58FB001AA642350
:1008F0000193214B5360002393601373137680217F
:100900008903116101214942D182918225315354D9
:100910009362083153540131535401315354D73346
:100920001386164BD361164B1362164C16492000E2
:10093000164B984724680722E3691A42FCD12268C3
:100940000223134323600F4D2868114B98471F2340
:1009500018401E3B83400F4A1360E8880023102193
:1009600005E00133834202D31023638302E0628BEC
:100970000A42F6D00FB030BD480D0000020008005A
:10098000020009009401002000080042BD1100008F
:100990008523000000E100E0F0B585B005000C0003
:1009A00001A90E4B0A00C1CBC1C20D480D4B98479F
:1009B000002300280FD10C4B187800025B781843F5
:1009C0002860FA239B0058430849094B98470004C4
:1009D000000C20600123180005B0F0BDA05A0000F3
:1009E00094010020B51600008C000020FFFF0000DD
:1009F000012F000010B584B001226B469A700023CD
:100A00006946CB70029303930B800A71054C6A46CA
:100A100005492000054B98472000054B984704B036
:100A200010BDC046BC010020001400409D04000021
:100A30008503000010B50248024B984710BDC04620
:100A4000BC0100200504000010B504000248034B5F
:100A50009847001B10BDC046BC01002005040000E3
:100A600010B5002200230270427000214280017103
:100A700003760262C26182600373C0246401C48190
:100A8000037443748374C37403752A240355437534
:100A90008375063C0355C2840285C1752B23C1545E
:100AA0000133C15410BDC046F0B55F4656464D46B1
:100AB0004446F0B497B0070016000160C24A136ABA
:100AC00080204002034313620B780520DB0700D52A
:100AD000F3E10B7817309B0700D5EEE173783B719B
:100AE000002B04D1B94A116C04330B431364002367
:100AF000BB60FB603B61BB76FB763B833B77B44BD3
:100B00001F602A23F35C002B05D1337D002B02D11B
:100B100001337B7701E000237B773B689B4633788A
:100B20006A46137069461E20AA4B98471E20AA4B9E
:100B300098472C23F35C002B47D02B22B55C327BEB
:100B40009146AA18D2B29B18DBB298469A4226D296
:100B5000A24B9A4633004E46B946474698460F2464
:100B60002C4043461B7BE41850229D4902A8D047E5
:100B7000132C0CD8A40002ABE05801A900234B7041
:100B8000CB708B7001330B70C0B2964B9847013518
:100B9000EDB27319DBB2BB42E1D34F464646F4894E
:100BA00050228F4902A88D4B9847132C37D8A400A8
:100BB00002ABE05801A900234B70CB708B7001335E
:100BC0000B70C0B2874B984729E0347B5022844990
:100BD00002A8824B9847132C0CD8A40002ABE05813
:100BE00001A900234B70CB708B7001330B70C0B226
:100BF0007C4B9847F4895022794902A8774B984753
:100C0000132C0CD8A40002ABE05801A900234B70B0
:100C1000CB708B7001330B70C0B2724B9847737DF1
:100C20009B00DBB25A461370B37DDB01727813432D
:100C3000DBB25A4653703379342B00D93CE19B0028
:100C4000694AD3589F460421102402221AE0727C7C
:100C5000317C102416E006211024012212E0082124
:100C6000102400220EE00021302400220AE000219E
:100C70002024002206E000210024002202E00221BC
:100C8000102401221201702313400B435A46937023
:100C9000F37D17203F2B00D90FE1D3703A68537EC4
:100CA0005BB2002BFBDBF27C738813432422B25C23
:100CB000D2001343327D92001343B27C520013439F
:100CC00023435A469380337E002B20D0102C5CD0D7
:100CD00002D8002C3BD01AE0202C1AD0302C16D190
:100CE000F27C002A0AD0F26980321720FF2A00D94C
:100CF000E3E0326A8032FF2A00D9DEE01720F26991
:100D0000FF2A00DDD9E0326AFF2A00DDD5E039682C
:100D100072E0F27C002A0FD0F269802189008C46B3
:100D20006244172031498A4200D9C6E0326A6244DF
:100D30002E498A4200D9C0E017202C4AF16991421D
:100D400000DDBAE0316A914200DDB6E0DFE7F27C17
:100D5000002A0FD0F269802109018C4662441720D5
:100D600023498A4200D9A8E0326A624420498A4273
:100D700000D9A2E017201E4AF169914200DD9CE0F3
:100D8000316A914200DD98E0C1E7F27C002A0FD081
:100D9000F269802109028C466244172015498A4273
:100DA00000D98AE0326A624412498A4200D984E05A
:100DB0001720104AF169914200DD7EE0316A9142CC
:100DC00000DD7AE0A3E7C0460004004000080040D0
:100DD000D4010020CD29000041290000B54A0000BF
:100DE000805B0000C52A0000AC5A0000FF03000031
:100DF000FF0F0000FFFF00004A7E52B2002AFBDB1B
:100E00005A4613723A68537E5BB2002BFBDBB38BFE
:100E10005A4693833A68537E5BB2002BFBDB338CDC
:100E20005A4613842C23F35C002B04D0013BDBB225
:100E300017200F2B41D82B22B25C17200F2A3CD849
:100E40003868417E49B20029FBDBF089317B0143E0
:100E5000B068014312050A431B0413435A46136149
:100E60002A23F35C13750F2393751533F35C002B62
:100E700010D0F38C1720144A93421ED85A469384FC
:100E8000328D80231B01D3189BB20F498B4214D89B
:100E90005B46DA840D4B19684901E023DB001940F9
:100EA0000B4B5A6850011A68D30E0343DBB20B4355
:100EB0005A461385002000E0172017B03CBC90462E
:100EC0009946A246AB46F0BDFF0F000024608000AB
:100ED0002060800070B52D4B1C6823681D7EEDB22C
:100EE000EA0735D5E27ED20732D5A27ED2072FD5CA
:100EF00001221A762268537E5BB2002BFBDB61690C
:100F00008B1C6361538B9BB20B80238B013B9BB289
:100F10002383002B11D0637F002B19D02268537ECE
:100F20005BB2002BFBDB117B02230B4313732268A4
:100F3000537E5BB2002BFBDB0AE0237F052B07D13E
:100F4000002323770133226893752000A368984714
:100F50006B070BD5042322681376E37E9B0705D528
:100F6000A37E9B0702D52000E3689847AB070BD50B
:100F7000022322681376E37E5B0705D5A37E5B0719
:100F800002D523692000984770BDC046D4010020D7
:100F90000368D879C00970470023037001224270AA
:100FA000837003714371C37083717047F0B5474616
:100FB00080B484B00500140001602C4A136A8020BC
:100FC000C002034313620B781C209B074AD40B78A2
:100FD0001738DB0746D403A9E3780B701C30244B89
:100FE00098472120234B9847002602AB5E70DE70A5
:100FF000012302AA13709670110002201E4B98471D
:101000002F6863782B71AE71A3795A1E93419B00B0
:101010002178A2788846002A02D00422114388460B
:101020002279002A03D01022414611438846627972
:10103000002A03D00822414611438846DBB23B70A8
:101040000E4E2800B0470028FBD143466A46D371B4
:10105000D3797B7023786B7100236B61AB61EB619B
:10106000074B1D6004B004BC9046F0BD0004004076
:10107000CD29000041290000C52A0000910F000081
:10108000D801002070B50400066872780379134314
:101090007370094D2000A8470028FBD13278022345
:1010A000134333706379002B04D1044A116C043369
:1010B0000B43136470BDC046910F00000008004050
:1010C000F8B5040017000668064D2000A847002860
:1010D000FBD1A379002B01D0B78100E0378100203C
:1010E000F8BDC046910F000070B5264B1C682568FE
:1010F000AB79DB070AD50123AB712300143305D08C
:10110000637C002B02D00020A3699847AB799B0732
:1011100037D50223AB71A3899BB2002B28D0E3897A
:101120009BB25A1C92B2E2815B00A268944663446F
:101130001B889BB2AB81A389013B9BB2A381A3898E
:101140009BB2002B14D100222033E2541E3B2B71A2
:10115000AB71802189047E330B4AD15023001433B4
:101160000FD0A37C002B06D00020E369984702E053
:101170002300143305D0237C002B02D063690020A8
:10118000984770BDD801002000E100E000B583B0B1
:1011900001AB80221A700A785A704A789A708A785D
:1011A000DA701900014B984703B000BDC52A000052
:1011B00001680722CB691A42FCD17047F0B55F463F
:1011C00056464D464446F0B48BB007000D0016005D
:1011D00039600800994B984799490A6A841C012391
:1011E000A34013430B6209A9337B0B701430C4B2C4
:1011F0002000944B98472000934B9847307B002168
:10120000924B98472B681C209B0700D50FE12B6859
:101210001738DB0700D50AE13868884B99469847AC
:1012200004008B498B4B9847A4008B4BE75000235D
:101230003B767B7600247B83BB832522BC543B62B8
:1012400014332B603B6898461800C84781468023BA
:1012500008AA1370547001239370D470F069356A32
:10126000002803D1002140467C4B984708AB1870FA
:10127000022308AA5370000CC0B21100784B9847A3
:10128000002D04D101214046744B9847050008AB5E
:101290001D70022308AA5370280CC0B21100704BB5
:1012A0009847B38AFB80F38A3B81327E8023002AF1
:1012B00004D16C4B9B789B07DB0FDB01B168326973
:1012C0000A4313432422B25C002A02D08022D205B2
:1012D0001343B26A13432C22B25C002A03D180224A
:1012E0009204914202D18022120513432D22B25C56
:1012F000002A02D08022120413432E22B25C002A5C
:1013000002D08022D203134342461268134342465E
:10131000136080235B00536048461430C0B2524BC8
:10132000984705000790FA27BF0033685F4373684A
:101330009A464E4CA047029003917800A047009037
:101340000191308E6843A047494B9B46494A4A4B1E
:10135000D8474A4D00224A4BA847049005913800CF
:10136000A04702000B0004980599D84702000B0023
:10137000444C02980399A047009A019BA847002279
:10138000414BA047009A019B404CA047404B9847D7
:101390000400B26880239B049A4242D1FA2189005A
:1013A00057464F430298039902000B00A84700904C
:1013B000019138002D4B98470022364BD847020048
:1013C0000B0000980199314EB04700222E4B2D4E54
:1013D000B0472F4B9847061E06D0390007982E4B72
:1013E00098470238831B07E07900481E079B9C46FC
:1013F0006044294B9847431EFF2C03D8FF2B03D989
:10140000402014E0402012E0FF221440360634430E
:101410001B04FF22120413401C434346DC600020DF
:1014200005E04020FF2C02D800260023ECE70BB09B
:101430003CBC90469946A246AB46F0BDB91C0000A4
:1014400000040040CD29000041290000651B000078
:10145000A117000045230000DC010020B11B0000A3
:10146000C52A000000200041E9290000BD49000014
:10147000B53D000095D626E80B2E113E3131000017
:1014800000002440A94200000000F03F893700001E
:101490005149000000000840ED2D000003681A7E4D
:1014A000920707D502221A765B8B9B074120DB1738
:1014B00018400AE05A8B520706D55A68C0218902A3
:1014C0000A435A60182000E00020704730B50268D7
:1014D00000230124022504E001339BB201899942D3
:1014E00007D9117E214206D1117E2942F4D0002075
:1014F00002E0122000E0002030BDC04610B50468B4
:1015000063688022D202134363606162024B984792
:101510000123237610BDC046CD140000F0B55F4610
:1015200056464D464446F0B483B0060089460568E9
:101530004C882B681B01DB0F9A464B7A002B02D09C
:10154000897A564B98476A68554B13406B604B46F7
:101550001B7A002B28D04B461B885A004B465B7ADF
:101560009B0313438022120213436B6230004D4BE6
:10157000984769684A4B0B406B60002800D086E0B2
:101580003000494B9847002800D080E04B461B882C
:101590001B0A7822134359004B465B7A9B03773A28
:1015A00013430B436B6209E04B461B885A004B46C2
:1015B0005B7A9B031343012213436B623000394B68
:1015C000984702005346002B09D04B465B88012BFD
:1015D00005D16B688021C9020B436B6003E0696829
:1015E0002F4B0B406B60002A51D130002E4B984797
:1015F000019000284BD1013CA4B280462B4B9B4666
:1016000029E06B8B9B0641D5F37A002B0FD0534614
:10161000002B02D1002C02D009E0012C07D16B680D
:101620008022D20213436B60013CA4B213E030006D
:101630001F4B984743465F1CBFB22823EB5C4A46CA
:101640005268414653543000164B9847013CA4B2AF
:10165000002803D1B8465C45D3D101E0B8460190DB
:10166000B37A002B07D03000114B98476B68C0222B
:10167000920213436B6030000D4B98472823EA5CBD
:101680004B465B6841465A54019800E0412003B044
:101690003CBC90469946A246AB46F0BDFD14000006
:1016A000FFFFFBFFCD1400009D140000FFFF0000B2
:1016B000B111000010B5838B9BB20522002B05D120
:1016C00001338372C372024B98470200100010BDB1
:1016D0001D15000001680722CB691A42FCD1704732
:1016E00070B5040006683268438B858B5D1BADB214
:1016F000838B013B9BB2838313010CD5C37A002BF0
:1017000015D0838B9BB2012B11D173688022D2023A
:10171000134373600BE0C37A002B08D0838B9BB21A
:10172000002B04D173688022D20213437360A38B11
:101730009BB2002B0AD1A37A002B07D02000084BC4
:1017400098477368C0229202134373602000044BD1
:101750009847236A5D192823F35CDBB22B7070BDB8
:10176000D516000070B504000668738B5B0703D5BF
:101770001E222523C2540FE0438B858B5D1BADB227
:10178000838B013B9BB28383044B9847236A5D198B
:101790002B78DBB22822B35470BDC046D5160000AA
:1017A00070B580006F4BC45825682B681B01DA0F99
:1017B000637E267E1E40638B9BB2002B35D1A38BAC
:1017C0009BB2002B31D02B7EDB071BD501232B7660
:1017D0006B8B9B0703D541222523E25412E06B8BD0
:1017E0005B070FD518222523E2540023A383A37A95
:1017F000002B07D020005C4B98476B68C0229202F8
:1018000013436B60A38B9BB263832523E35C052B9F
:1018100056D11F33E35C002B03D12000534B984774
:101820004EE02000524B98474AE0638B9BB2002B5E
:1018300026D0A38B9BB2002B22D12533E35C052B52
:101840001ED11F33E35C002B1AD103332B75002309
:10185000638325330022E254A37A002B08D02000B2
:10186000414B98476B68C022920213436B6001E0C2
:1018700001232B76F30723D5E368200098471FE068
:10188000638B9BB2002B1BD0A38B9BB2002B17D07A
:101890006B8B9B0609D4002A03D0A38B9BB2012B30
:1018A00003D041222523E2540AE02423E35C002BE9
:1018B00003D120002D4B984702E020002C4B984785
:1018C000638B9BB2002B2AD0A38B9BB2002B26D11B
:1018D0002533E35C052B22D11F33E35C012B1ED1A2
:1018E0002B7E9B0701D502232B7603232B75002328
:1018F000638325330022E254B30707D52423E35C36
:10190000012B03D123692000984708E0F30706D58F
:101910002423E35C002B02D1E368200098472523B1
:10192000E35C052B1CD02523E35C002B18D003239C
:101930002B7500236383A3832533E35C412B0AD0FB
:10194000A37A002B07D02000074B98476B68E02252
:10195000D20213436B60730702D563692000984776
:1019600070BDC046DC010020D516000065170000E0
:10197000E116000010B5490840230024814201D23D
:101980000AE01C00091A631C9BB28842F9D9402363
:10199000FF2C01D814800023180010BDF0B55F465D
:1019A00056464D464446F0B489B00C00059212AA42
:1019B000117802004A434025A24200D9C6E0002B1C
:1019C00051D1020008000021644DA847834626003B
:1019D00000270023002400930194002200233F20CD
:1019E00020218C461F390296039720246442041953
:1019F00003D40D00A540A84604E06446241A0D0057
:101A0000E540A8460C008440A14614001D00A4181F
:101A10005D4122002B0046465F463E4203D00E0049
:101A2000264332002B00029C039D9D420FD801D11A
:101A300094420CD8029C039D121BAB414D46009E64
:101A4000019F35433C0046463443009501940138DC
:101A5000CBD20022012300980199121A8B41120C5B
:101A60001B041A436FE00022012B6CD1630F049317
:101A7000E30098460A0000230021384CA0470400E8
:101A80000D0000239C46069320339B4601266346A7
:101A9000079300230293002200233F210094019525
:101AA0000F0020214942791803D430008840844631
:101AB00004E05946C91B3000C84084463100B94093
:101AC0008946100019008018594102000B00444655
:101AD0004D462C40A2466446049D2C40A4465446E4
:101AE00065462C4303D03400044322000B000098C9
:101AF000019999420AD801D1904207D800980199DA
:101B0000121A8B410299484601430291013FC8D203
:101B1000009C019D0299079A8B1ADB0810498B42A1
:101B20000BD9069B0133DBB2190006931300013376
:101B300007930829ADD1402508E04025069A082AD8
:101B400004D052031A43059B1A800025280009B0CF
:101B50003CBC90469946A246AB46F0BDD930000049
:101B6000FF1F000010B582B004000E4B1B78002B45
:101B700001D000290DD001A90C7013200A4B984701
:101B800013200A4B9847074B5C7001221A70002003
:101B900006E0044B5B78834201D01D2000E000206A
:101BA00002B010BD90000020CD29000041290000A6
:101BB0002E4B98421CD003D82D4B984207D04AE0B8
:101BC0002C4B984225D02C4B984233D043E001292E
:101BD00006D0002941D0022906D0032906D001E011
:101BE000264841E000203FE025483DE025483BE015
:101BF000012906D0002932D0022906D0032906D0B7
:101C000001E0214830E000202EE020482CE0204870
:101C10002AE0012906D0002923D0022906D0032971
:101C200006D001E01B481FE000201DE01A481BE021
:101C30001A4819E0012906D0002914D0022906D03B
:101C4000032906D001E016480EE000200CE01548FC
:101C50000AE0154808E0002006E0144804E00320EC
:101C600002E0134800E013487047C046000C0042F1
:101C7000000800420010004200140042030005006A
:101C800003000600030007000300010003001E001C
:101C900003001F000300090003000A0003000B00FB
:101CA00003001100030012000300130003000400EE
:101CB000030008000300100030B585B06A460E4BE3
:101CC00032CB32C21B6813600300009A82420FD0ED
:101CD000019A824208D0029A824207D00020039AD9
:101CE0009A4207D1033004E0012002E0022000E024
:101CF0000020C0B205B030BDD05B0000F0B55F463B
:101D000056464D464446F0B491B005000C0016000E
:101D100029600800B94B984722680523D20700D5EF
:101D200064E122681733920700D55FE1B4490A6A7B
:101D3000871C1B3BBB4013430B620FA92D27F35D90
:101D40000B701430C3B202931800AE4B9847029840
:101D5000AD4B9847F05D0021AC4B9847F37A6B711F
:101D60002423F35CAB712523F35CEB71F37E2B72C0
:101D7000337F6B722B6899461800A04B984714303C
:101D800000220E2306A98C4663441A80328A0292EE
:101D90008023DB019A421AD004D880239B019A4207
:101DA0000BD004E1C023DB01029A9A420AD08023BF
:101DB0001B029A4200D1FFE0F9E0102306930F3B8B
:101DC0000793FDE008230693073B0793F8E0336889
:101DD0000493F3689B4673690393337E98462623E6
:101DE000F35C059373689A46002B15D080235B053E
:101DF0009A4536D12723F35C002B36D1336A1F0076
:101E0000C0B2834B984701000E2206AB9C46624449
:101E10003800804B984725E008230693002307935A
:101E20002723F35C002B0BD0069B0093079B0E220D
:101E300006A98C466244B16A306A774FB84711E010
:101E4000336A1F00C0B2724B98470100069B009393
:101E5000079B0E2206A88446624438006E4FB8479E
:101E600000E00020031E00D0C0E0737E002B02D0F3
:101E7000B37E4A4693732A68029FD369002BFCD134
:101E80000E3306AA944663441B884A469381049BFA
:101E90005A461343039A1343524613433B43424665
:101EA00012021343059A57071F432723F35C002BA5
:101EB00001D104331F43717E8902337F5B021943D2
:101EC000737F1B0219432423F35C5B04194325230E
:101ED000F25C12041143F37A19433389FF2B04D0C7
:101EE000802252041743194305E0F37E002B02D0F1
:101EF0008023DB041F432C23F35C002B03D1474BCF
:101F00009B789B0701D580231F432A68D369002B48
:101F1000FCD14B4659602A68D369002BFCD14B4653
:101F20001F600EAB80221A7000225A70DA709A700D
:101F3000336B0A93736B0B93B36B0C93F36B02933A
:101F40000D9300270EAEF9B2BB000AAA98580028DC
:101F500002D12000324B9847431C05D03070000C52
:101F6000C0B231002F4B98470137042FEBD100232B
:101F7000EB602B616B61AB61EB612B62AB626B62FF
:101F80000022EB85AB853033EA540133EA54013348
:101F9000EA540133EA542868184B98470400224950
:101FA000224B9847A400224BE55000231EE010234B
:101FB00006930023079303E003230693002307936C
:101FC00033680493F3689B4673690393337E9846A2
:101FD0002623F35C059373689A46002B00D11FE714
:101FE00080235B059A4500D104E73EE7180011B055
:101FF0003CBC90469946A246AB46F0BDB91C0000D9
:1020000000040040CD29000041290000651B0000AC
:10201000E9290000751900009D1900000020004109
:10202000B11B0000C52A0000B521000045230000B7
:10203000DC010020C2791C23002A0ED0C28D92B28E
:10204000173B002A09D10368DA69002AFCD11985F7
:1020500002211A7E0A42FCD0002318007047C046B5
:1020600082791C23002A30D0828D92B2173B002A3D
:102070002BD10268107E400727D5D369002BFCD1F5
:10208000538BDBB298061DD0980703D502235383E8
:1020900018331AE0580703D5042353831A3314E086
:1020A000D80703D50123538312330EE0D80603D596
:1020B00010235383323308E09B0603D52023538338
:1020C000213302E0138D0B80002318007047C046B7
:1020D000F8B506000C00150007680A4B9847F38D09
:1020E0009BB2002B03D0084B9847052009E0F585EB
:1020F000054B9847B46205223323F254323BBB753B
:102100000020F8BD3D2400007D240000F8B5040047
:102110000D00160007680F4B9847A38D9BB2002B4C
:1021200003D00D4B9847052013E0A6850A4B98472E
:10213000656205223223E2542E3BBB75237A002BC5
:1021400001D02023BB75637A0020002B01D0082327
:10215000BB75F8BD3D2400007D240000931C9B004E
:10216000C3185960302101239340425C1343435408
:102170007047C04610B51723002A06D0C47905332E
:10218000002C02D0024B98470300180010BDC04637
:10219000D120000010B51723002A06D0847905331A
:1021A000002C02D0024B98470300180010BDC04617
:1021B0000D210000F8B58000604BC5582C68E3691C
:1021C000002BFCD1237EA67D1E403023EB5C312208
:1021D000AF5C1F40F30722D5EB8D9BB2002B1CD0C8
:1021E000AA6A1378DBB2511CA9626979012901D06E
:1021F0009BB204E0517809020B430232AA62DB056C
:10220000DB0D2385EB8D013B9BB2EB85002B06D1CB
:10221000013323750133A37501E001232375B3074F
:1022200009D50223237500223133EA54FB0702D576
:102230002800EB689847730760D5AB8D9BB2002BE5
:102240005AD0638BDBB21A0702D43F22134001E05D
:1022500037221340002B2DD09A0705D51A2232239E
:10226000EA54303B63831FE05A0705D51E22322310
:10227000EA542E3B638317E0DA0705D51322322395
:10228000EA54313B63830FE0DA0605D5422232235C
:10229000EA54223B638307E020221A4204D0213211
:1022A0003223EA54123B63837B0727D528006B69EE
:1022B000984723E0238DDB05DB0DDAB2696A0A70EB
:1022C0006A6A511C69626979012904D11B0A537039
:1022D0006B6A01336B62AB8D013B9BB2AB85002B0C
:1022E0000CD10433237500222E33EA54BB0705D5E5
:1022F00028002B69984701E004232375F30607D5CE
:10230000102323752376FB0602D52800EB69984736
:10231000B30607D52023237523763B0702D5280073
:10232000AB699847330707D5082323752376BB0687
:1023300002D52B6A28009847F8BDC046DC01002072
:102340007047C04630B50B4B1B78002B0ED10A4CA2
:102350000A4D25600A4B00221A6065605A60A5602C
:102360009A60E560DA600132024B1A708000024B1D
:10237000C15030BD92000020940000204123000095
:10238000DC01002030B583B0050001AC0422054912
:102390002000054B98472800044B9847205603B06F
:1023A00030BDC046E05B0000B54A0000B91C00002B
:1023B00010B5024B1B680020984710BD9400002008
:1023C00010B5024B5B680120984710BD94000020B7
:1023D00010B5024B9B680220984710BD9400002066
:1023E00010B5024BDB680320984710BD9400002015
:1023F00070B582B001AC012363700022A27023701B
:1024000021000E200B4EB0470B4D8023DB016B618A
:1024100021000F20B04780231B026B6121000120A7
:10242000B0470223AB6121000320B0470823AB6112
:1024300002B070BD8D110000004400410C4B1B68C0
:10244000002B10D1EFF31083002B09D172B6BFF32C
:102450005F8F0022074B1A700132074B1A7002E09F
:102460000022054B1A70024A13680133136070474B
:10247000A400002008000020A8000020084B1A68D3
:10248000013A1A601B68002B09D1064B1B78002B00
:1024900005D00122044B1A70BFF35F8F62B67047FC
:1024A000A4000020A80000200800002010B5082883
:1024B00003D880001B4B1B589F46002030E01A4B6E
:1024C00018692DE0194B1B6A9B059B0F1848D840D3
:1024D00026E0154B586923E0134B1B680220184077
:1024E0001ED012491022CB681A42FCD00E4B1B683A
:1024F0005B0714D500200F4B98470B4B9B681B04C0
:102500001B0C58430CE05023084AD35C00205B07A7
:1025100006D5054BD86803E08020000200E006489D
:1025200010BDC046E45B0000AC0000200008004085
:1025300000127A00E9290000006CDC0270B50C4C36
:10254000236A017885784278012002409201402672
:10255000B343134302002A40D2017F308343134325
:1025600003220A40120203490B401343236270BD49
:1025700000080040FFFCFFFFF0B557464E464546B9
:10258000E0B41C4EB3699C46417805780779C3785E
:10259000994644798378012003409B009A4604229F
:1025A0009046624643469A43130052461A4313002C
:1025B0000140C900082293430B434A46024092015E
:1025C00040218B4313430740FF01802293433B4349
:1025D000793A15402D02084F3B402B43044020031D
:1025E000064C1C400443B4611CBC90469946A2466C
:1025F000F0BDC04600080040FFF8FFFFFFEFFFFFFF
:10260000082803D88000254B1B589F46172044E01C
:10261000234A116A02230B43136200203DE0204A43
:10262000916902230B439361002036E01C4A118A12
:1026300002230B43138200202FE0194A918A0223C0
:102640000B439382002028E016490B6802221343B3
:102650000B60134B9A8419000E32CB681A42FCD0DF
:10266000104A91680E4BD96252689A6200229A848D
:1026700019001032CB681A42FCD00A4B1B689BB27F
:10268000074A9384002008E005494422885C02231D
:1026900003438B54002000E000207047085C0000DA
:1026A00000080040AC000020F0B587B0C222D20084
:1026B0002C4B9A602C4A53681E218B435360012394
:1026C0006A4613700024294DE0B26946A8470134D8
:1026D000252CF9D1264B1A68D20422498869520E5A
:1026E0001204244B034013438B6104A80125457059
:1026F00085700024C47005710723037044711E4B5C
:10270000984704201D4EB04703A84470857004709C
:102710001B4B98470620B0471A4B98476B465C7096
:102720001C725C7204236A4613701C330193694661
:102730000220154FB8470220144EB047144B1C72AC
:102740005C729C72DC7201956B465C7006236A4673
:1027500013701472547269460020B8470020B047C5
:1027600007B0F0BD0008004000400041CD29000046
:1027700024608000FFFF80FF792500000126000013
:102780003D25000095270000B927000071280000B2
:1027900000040040064A916908230B43936101221B
:1027A000044B1A7019000B781342FCD17047C046D5
:1027B00000040040000C004070B5060005000C78D5
:1027C000240204434B78002B02D08023DB021C43FD
:1027D0004B7A002B02D080231B031C43486801283E
:1027E00018D9431E184210D1022806D9022300220C
:1027F00001325B009842FBD800E000221202324313
:10280000150080235B031C4304E00502354380234D
:102810009B021C430B7A002B02D080239B031C439A
:102820000F4A53785BB2002BFBDB0E4B98470E4BE5
:102830001E700B4A53785BB2002BFBDB084B9D608C
:102840001A0053785BB2002BFBDB054A51688023EA
:102850005B020B401C435460044B984770BDC0465C
:10286000000C00403D240000080C00407D240000C6
:1028700010B504000B4A53785BB2002BFBDB0A4B0C
:1028800098470A4B1C70074A53785BB2002BFBDB5E
:10289000044A5368802149020B435360044B984714
:1028A00010BDC046000C00403D240000040C004058
:1028B0007D24000070B504001A4A53785BB2002BE7
:1028C000FBDB194B9847194B1C70164A53785BB2C7
:1028D000002BFBDB134E7068C004C00E144B9847EE
:1028E0000500124B1C707668F602F60F114B1C7037
:1028F0000C4A53785BB2002BFBDB0A4B9C6824022A
:10290000240C0D4B9847002E07D1012C07D921002C
:1029100028000A4B9847050001E00134E5402800F3
:1029200070BDC046000C00403D240000040C004077
:10293000AD240000080C00407D240000ED2D0000B7
:1029400010B50400064B9847064B1C70064A518888
:102950008023DB010B435380044B984710BDC046D6
:102960003D240000020C0040000C00407D240000CB
:1029700010B504000F4B98470F4B1C700F4B5A8833
:102980001205100F59880E4A0A405A8059880D4A7C
:102990000A405A8019008022D2014B881342FCD190
:1029A00006494C880202064B234013434B80064BDA
:1029B000984710BD3D240000020C0040000C004070
:1029C000FFF0FFFFFFBFFFFF7D24000010B50C7874
:1029D00024020443024B9847A4B2024B5C8010BD12
:1029E00071290000000C004010B50400064B984708
:1029F000064B1C70064B5C882405240F054B98473A
:102A00002000054B984710BD3D240000020C0040FB
:102A1000000C00407D240000B528000030B5D378BC
:102A2000002B1ED11378802B04D01B068024640257
:102A3000234300E0002354780225AC430AD1947864
:102A4000002C03D18024A402234302E0C024E4022A
:102A5000234341605478013C012C12D8184C234088
:102A60000FE041600B041B0CA024E40523438362A8
:102A70000B0CD024240623438362D378002B18D078
:102A80001CE00C04240CA025ED052C431C4384629F
:102A90000C0CD0252D062C431C438462D478002CCA
:102AA0000CD15B0305D59378012B01D1816100E046
:102AB00041615378013B012B00D8816030BDC04695
:102AC000FFFFFBFF10B503000A00C1090020002929
:102AD00004D15809C00105498C4660441F210B40B0
:102AE0001E399940024B984710BDC0460044004132
:102AF0001D2A00007047C04610B5054B9847054B8E
:102B00009847054B9847054B9847054B984710BD8C
:102B1000A9260000F1230000F52A0000F52A000094
:102B2000F52A0000FEE7C04670B52E4B2E4A9A42A9
:102B300003D02E4B2B4A9A4204D32D4B2D4A9A4256
:102B400010D31EE02C4A294B03339B1A9B080133F8
:102B50009B000022234824498C58845004329A4216
:102B6000FAD1EAE7254A224B03339B1A9B0801332B
:102B70009B0000221F4800211418216004329A4251
:102B8000FAD11F4AFF211F4B8B439360FD399023DD
:102B90005B001D4AD1501D48C3780324A343022281
:102BA0001343C370C3780C26B34308210B43C3708F
:102BB000174B987B3025A8430500202028439873A5
:102BC000987BB04301439973997BA1430A439A735D
:102BD000104A516880230B4353600F4B98470F4BAB
:102BE0009847FEE700000020105E00007000002003
:102BF000F00100207000002004000020740000207C
:102C000000ED00E0000000000070004100500041B5
:102C10000048004100400041694A00005D2D00006D
:102C20000300064A1268002A02D10549034A1160CE
:102C3000024A1068C31813607047C046C4000020E1
:102C4000F0210020012040427047C04680239B01B4
:102C50004B6000207047C04601207047002070473D
:102C600070B582B08022D201254B9A610122254B9A
:102C70001A70BFF35F8F62B6234B9847234B984778
:102C8000234A24492448254B9847254B9847002040
:102C9000244B9847244B9847002301930093234BE0
:102CA0009847694601A8224B9847002804D0009A0B
:102CB00001992048194B98471F4B9847694601A82E
:102CC0001E4B9847009A01991D48144CA0471D4B74
:102CD00098471D4B9847694601A81C4B9847009D93
:102CE0000A2128001A4B98470E000A212800194B88
:102CF00098470200330001991748A04702B070BD01
:102D0000004400410800002085010000ED020000A1
:102D10002C5C0000385C0000445C0000D94A0000D4
:102D200089080000C1080000F5090000E90800005A
:102D3000990900005C5C00005D060000510700007E
:102D4000805C00001D070000BD060000E5070000D4
:102D5000F92E0000ED2D0000A85C0000F0B583B056
:102D6000164B9847164B98470122164B1A70BFF323
:102D70005F8F62B6144B9847144B98470500144F69
:102D8000144EFA24A4002800B8472100B0470029B7
:102D900011D100230093019301A968460E4B984777
:102DA000002804D0019A00990C480D4B98478022C6
:102DB000D2010C4BDA610C4B9847E4E7F92A00008A
:102DC0003D03000008000020612C0000350A0000CF
:102DD000490A0000F92E0000990900005C5C00001F
:102DE000D94A0000004400412103000000224308AA
:102DF0008B4274D303098B425FD3030A8B4244D3C3
:102E0000030B8B4228D3030C8B420DD3FF22090204
:102E100012BA030C8B4202D31212090265D0030BC3
:102E20008B4219D300E0090AC30B8B4201D3CB03B9
:102E3000C01A5241830B8B4201D38B03C01A5241FB
:102E4000430B8B4201D34B03C01A5241030B8B42FD
:102E500001D30B03C01A5241C30A8B4201D3CB02E8
:102E6000C01A5241830A8B4201D38B02C01A5241CD
:102E7000430A8B4201D34B02C01A5241030A8B42D0
:102E800001D30B02C01A5241CDD2C3098B4201D3E8
:102E9000CB01C01A524183098B4201D38B01C01A66
:102EA000524143098B4201D34B01C01A52410309DD
:102EB0008B4201D30B01C01A5241C3088B4201D38C
:102EC000CB00C01A524183088B4201D38B00C01A39
:102ED000524143088B4201D34B00C01A5241411A60
:102EE00000D20146524110467047FFE701B500206D
:102EF00000F0F0F802BDC0460029F7D076E7704731
:102F000003460B437FD4002243088B4274D303094A
:102F10008B425FD3030A8B4244D3030B8B4228D3EB
:102F2000030C8B420DD3FF22090212BA030C8B4211
:102F300002D31212090265D0030B8B4219D300E0B1
:102F4000090AC30B8B4201D3CB03C01A5241830B36
:102F50008B4201D38B03C01A5241430B8B4201D3E6
:102F60004B03C01A5241030B8B4201D30B03C01A0F
:102F70005241C30A8B4201D3CB02C01A5241830A89
:102F80008B4201D38B02C01A5241430A8B4201D3B8
:102F90004B02C01A5241030A8B4201D30B02C01AE2
:102FA0005241CDD2C3098B4201D3CB01C01A524149
:102FB00083098B4201D38B01C01A524143098B42D2
:102FC00001D34B01C01A524103098B4201D30B01BB
:102FD000C01A5241C3088B4201D3CB00C01A5241E0
:102FE00083088B4201D38B00C01A524143088B42A5
:102FF00001D34B00C01A5241411A00D2014652413E
:10300000104670475DE0CA0F00D04942031000D35C
:103010004042534000229C4603098B422DD3030AB1
:103020008B4212D3FC22890112BA030A8B420CD3C1
:10303000890192118B4208D3890192118B4204D3EA
:1030400089013AD0921100E08909C3098B4201D36A
:10305000CB01C01A524183098B4201D38B01C01AA4
:10306000524143098B4201D34B01C01A524103091B
:103070008B4201D30B01C01A5241C3088B4201D3CA
:10308000CB00C01A524183088B4201D38B00C01A77
:103090005241D9D243088B4201D34B00C01A52414E
:1030A000411A00D20146634652415B10104601D3DB
:1030B0004042002B00D54942704763465B1000D365
:1030C000404201B5002000F005F802BD0029F8D00B
:1030D00016E770477047C046F0B54F464646C0B445
:1030E0001604360C9946330005042C0C070C150CFD
:1030F00063437E436F4365431C0CAD1964199C46C2
:10310000A64203D980235B02984647446346250CB8
:10311000EF191D044B464A4343432D0C2404641904
:103120009918C91920000CBC90469946F0BDC046BC
:10313000F8B556465F464D464446F0B40F00FD0FC5
:10314000AA4609037C002E005F00450F490A7F0D47
:103150002943C5001803BC46400A570F640DDB0F16
:103160003843D2009A4500D1AAE06646A61B002E3D
:1031700000DCFFE06346002B39D10300134300D08D
:10318000D9E06B0709D00F232B40042B05D02B1D52
:10319000AB42AD416D4249191D000B0200D482E0E3
:1031A000CA4B01349C4200D1FEE00A005646C84B8F
:1031B000ED081A405007640552020543120B640DD6
:1031C000002112030B0D1B056405120B1A43630843
:1031D000C04CF60714401C436400640834432800C4
:1031E00021003CBC90469946A246AB46F8BDB74B81
:1031F0009C42C6D080231B041843382E00DDEBE030
:103200001F2E00DD1EE120239B1B9C46030067460A
:10321000BB40984613004746F3403B436746BA40DD
:10322000571EBA4113430200F240EB1A9D42B641C9
:103230001D008A1A7642911B0B0231D54A02560AAA
:10324000002E00D1B4E0300001F0F0FB0300083B99
:103250001F2B00DDB5E020222900D21AD1409E406C
:103260000A009D4032439C4200DDB1E01C1B631C00
:103270001F2B00DDD5E0202114002800C91A8C4046
:10328000D8408D400443DA40681E85411100254333
:10329000002476E74146314300D134E2310045460F
:1032A0006B0700D06FE756464807ED08C90805438D
:1032B000864B9C4235D00A036405120B640D7FE7F0
:1032C0006346E31A9B46002B00DC8BE06746002F29
:1032D0003CD07E4FBC4200D153E780273F043843A7
:1032E0005B46382B00DCF7E00243501E8241002091
:1032F000D2B253194218AB4289411D004942891884
:103300000B02CDD5714B01349C4200D13DE101202F
:103310006F4A6B080A4028401843D50705435108F7
:103320002FE72B000B4300D1CBE180231B030B4382
:103330001A03120B44E7013E002E6DD1AE1AB542BE
:103340009B41091A5B42C91A350075E7070017430C
:1033500000D116E701235B429C46E3445B46002B09
:1033600000D0E0E0AA18AA429B4109185B42591814
:103370001500C5E7002E75D1661C7605760D012E69
:1033800000DCF3E0AE1AB0464545BF410E1A7F425D
:10339000F61B370200D48FE0551BAA42B641411AF2
:1033A00076428E1B9A464BE756460022002507E7D9
:1033B000280001F03BFB20300300083B1F2B00DC02
:1033C00049E72A002838824000259C4200DC4DE76E
:1033D0003F49E41A1140D4E60243501E8241D3B261
:1033E000002222E7002B00D0F3E0631C9C465B0523
:1033F0005B0D012B00DC9FE0344B9C4500D1C3E00A
:10340000AA180918AA42804140424118CD07520823
:10341000154349086446B4E62C4B9C4200D0ECE6C8
:10342000AFE611001F3CE1400C00202B00D17FE0F3
:103430004021CB1A9A4015436A1E9541002125432D
:1034400000242DE733000700203BDF403B00202E07
:1034500070D04027BE1BB0400243501E8241134330
:103460000022E2E6002C4FD0184CA44500D1ABE07E
:103470008024240476422143382E00DDDFE01F2E15
:1034800000DD43E12027BC1BA1460C004F46BC4099
:10349000A0462C004746F4403C434F46BD406F1EBB
:1034A000BD41F1402C43151BAA429241411A5242A0
:1034B000891A64469A46BFE641464546314300D0E4
:1034C000BEE6002600240025F2E6C046FF07000005
:1034D000FFFF7FFFFFFF0F801F2B59DC2027FF1A04
:1034E000BC46070063469F405B46B9461700DF4075
:1034F000B8464F4643461F4363469A40531E9A417F
:103500005B463A43D840F4E60C002C435CD0F643CB
:10351000002E55D1551BAA42A441411A6442091BF1
:103520009A46644688E6964FBC4200D0D8E628E624
:10353000002280E700208FE70B002B43002C00D0F7
:10354000C2E0002B00D101E10300134300D118E6D3
:10355000AB18AB42B6410918764271180A0200D482
:1035600009E1884A1D00114064460AE6002C5BD13F
:103570000E002E4300D08AE00100114300D1C2E0CA
:10358000010015009A46FCE56446002100258FE6FF
:1035900020235B429C46DC4463460700DF405B46D9
:1035A000BC46202B00D1ACE040235F46DB1B98409B
:1035B0000243501E8241634613431A00002098E6DE
:1035C0006F4CA44500D057E70100150064469A46A9
:1035D000D7E5002C39D10C002C436ED0DB43002BF7
:1035E0001AD0674CA44568D0382B00DDA4E01F2B0F
:1035F00000DDAEE020240F00E41AA740B9462F00FA
:10360000DF40B846A3464F46444627435C46A540A4
:103610006C1EA541D9403D43AD1895429B41091808
:103620005B42591864466BE60C002C4315D101002F
:1036300011437BD0010015009A46514CA1E50D4382
:10364000691E8D410021ECB22DE74D4CA44534D0CC
:10365000802424045B422143C6E7040014434ED077
:10366000ED084C072C438025C9082D03294208D0BA
:10367000C6082E4205D1D208410711430C009A46D4
:103680003100620FC900E50011433D4C79E50600A9
:10369000164300D175E5AE1AB0464545BF410E1A36
:1036A0007F42F61B370200D4F4E5551BAA42B6410F
:1036B000411A7642891B9A4663E50100150064466B
:1036C0005FE5002200257BE5002B3BD00300134380
:1036D00015D0ED084B072B438025C9082D0329423F
:1036E00007D0C4082C4204D141070B002100D208A6
:1036F0001343C9005A0F1143DD00214C41E5204C12
:103700003FE5002054E700260025D1E534000F00F6
:10371000203CE7403C00202E2BD04027BE1BB14070
:103720000D43691E8D4100212C43BCE680210026FB
:103730000903134C0025BBE50D43691E8D41002193
:10374000EDB269E7010015000D4C1AE50100150006
:1037500017E51C000F00203CE7403C00202B0CD05C
:103760004027FB1A99400D43691E8D4100212543D6
:1037700052E70021D4E71D0092E50021F3E7C0469F
:10378000FF070000FFFF7FFFF0B556464D46444659
:103790005F46F0B41D000E034C00CB0F87B007004E
:1037A00092468146360B640D98466AD06D4B9C421A
:1037B00035D08022430F12041343F6001E43C3008A
:1037C0009946694B00279C460023644402932B03CF
:1037D00068001B0BED0F51469B46400D009500D134
:1037E00078E0604B98426CD05B46DA004B0F80214A
:1037F00009040B4313439B465346D9005A4B9C463E
:10380000002360444246201A6A40924601901F43BA
:103810000F2F00D9B0E05548BF00C0598746374345
:1038200000D088E00023994602330827002602933F
:10383000CDE74346B34649460093029B009A924621
:10384000022B00D0BFE10021534601220026894609
:103850001A40444B002136030C0D2405360B264339
:10386000434C1B0526401E437600D20776081643BC
:103870004846310007B03CBC90469946A246AB464C
:10388000F0BD330003434FD0002E00D1BCE1300027
:1038900001F0CCF803000B3B1C2B00DDADE11D2239
:1038A0000100D31A08393A008F408E40DA40B946F9
:1038B0001643304B00279C46002360444442029349
:1038C00085E753465A4613432CD1002300219B46DB
:1038D000023397E70B4320D05B46002B00D19EE1DB
:1038E000584601F0A3F803000B3B1C2B00DD8FE1D1
:1038F00002005946083A91408B461D21CB1A514689
:10390000D9400B0059460B4351469B469140194BF9
:103910009C4660444042002374E7002300219B46FC
:1039200001336FE703236DE7002399460133042732
:10393000002602934BE703230C27029347E701225B
:10394000D51A382D00DCB0E153461A40002100237F
:10395000002689467EE7002380269946002236030A
:10396000004B77E7FF07000001FCFFFFD45C00007D
:10397000FFFF0F80F30300005E4500D972E100D124
:103980006DE1019B4D46013B0193002334000293FE
:103990005B461E020B0E1E430B020393330C99462B
:1039A00033041B0C494620000093FFF71FFA009BCD
:1039B000370043430600494620009846FFF79CFA2B
:1039C0002C0C09040C43A04509D9E419731EA74225
:1039D00000D95CE1A04500D859E1023EE419434614
:1039E000E41A49462000FFF701FA0300009A8046D6
:1039F0005343494620009B46FFF77EFA2A040904F8
:103A0000120C0A4393450DD94346D219013B974204
:103A100000D93AE1934500D837E102235B429C4646
:103A2000D219E0445B46D21A4346360433439B46E0
:103A30000399180C0B0C1D00059309045B46090C37
:103A40000C001B041B0C4443049159436B43684313
:103A50001B190D0CEB189C4203D980246402A44668
:103A600060441C0C09041B04090C20185D188242D8
:103A700000D2DEE000D1D7E0161A029B9C465D1B07
:103A8000AC459B415B42F61AB74200D106E149467C
:103A90003000FFF7ABF9009B040043434946300078
:103AA0009846FFF729FA2E0C09040E43B04509D9B0
:103AB000F619631EB74200D9F3E0B04500D8F0E034
:103AC000023CF6194346F31A494618000293FFF7E1
:103AD0008DF9009B06004343494602989846FFF73C
:103AE0000BFA2D0409042D0C0D43A84509D9ED1935
:103AF000731EAF4200D9D6E0A84500D8D3E0023EFD
:103B0000ED192404210043463143049E059A3000F8
:103B1000ED1A0B040C0C1B0C5843664353435443DF
:103B20009A19030C9B189E4203D980225202944694
:103B300064441A0C00041B04000C14191B18A54241
:103B400050D34DD001231943964A019B94466344B8
:103B5000002B00DCF3E64A0709D00F220A40042AB2
:103B600005D00A1D8A42894149428B4411005A46B8
:103B7000D20108D55A468C4B1A4093468022D20077
:103B80009446019B6344894A934200DD5BE65A46B2
:103B9000C908500708435602514601225B05814679
:103BA000360B5B0D0A4055E680231B031E4211D0E5
:103BB0005A461A420ED15E461E433603360B2A0081
:103BC00089467B4B46E6032B00D1E1E0012BBBD1BC
:103BD0001A40BBE61E433603360B4246744B39E6A9
:103BE000002BB1D07D194A1EAF4252D91100A54217
:103BF000A8D1039A9A42A5D1A6E703003E00283B2C
:103C00009E400023994654E600F010FF203041E624
:103C100003005246283B9A400021934677E65046DF
:103C200000F004FF20305EE6029B0026AB4200D38A
:103C300023E7039E0299B44661448846B045B641E5
:103C40005B467642F619B218013B0291974213D2B5
:103C500090424FD800D18EE0161A9B460DE7894559
:103C600000D28EE674084B46F60735005B081D430C
:103C70004B46DB0702938BE69742EDD10399029CFA
:103C8000A142E5D93E1A9B46F7E69846CAE61E00D1
:103C9000A5E6AC423ED874D0110053E70121494259
:103CA00052E71C000EE71E002BE71F2D3CDC2023F3
:103CB0000A0058465B1B9840EA4099400243481E60
:103CC00081415E461143EE404B0709D00F230B4064
:103CD000042B05D00B00191D99429B415B42F6183D
:103CE00033023CD55346012200211A40002601230D
:103CF0008946AFE502235B429C46039CE344A4460D
:103D0000029B63449846A045B6417642F619029359
:103D1000B218B1E603988A1E41008142B64176424C
:103D2000F619AD19039161E71F225242D31A5A4680
:103D3000DA401300202D29D040225846551BA840B8
:103D40000143481E814107200B43184000260028EC
:103D500009D00F2200261A401900042ABBD10B00FB
:103D600070077602360BDB0803439946012253465F
:103D70001A4000236EE502998D42BBD89B4600266F
:103D80007BE603989842C5D3110032E70020D7E7BD
:103D900080265B4636031E433603360B009A89465F
:103DA000034B57E5FF030000FFFFFFFEFE07000087
:103DB000FF070000F0B55F4656464D464446F0B456
:103DC0000D0399464E002B0B87B0070092468046A4
:103DD0009B46760DCC0F002E69D06D4B9E4235D0A0
:103DE0005B468022DD001204430F13432B439B46A6
:103DF000C3009846674B00279C4600236644019306
:103E00004A4615035000D20F53462D0B400D9146E4
:103E100000D176E05E4A90426CD080225B0F1204A3
:103E200013435C4AED0094461D4353460022DB00D9
:103E3000604449463618701C6140029017430F2FAA
:103E400000D9AFE05448BF00C759BF465B461F4387
:103E500000D088E000239B46984602330827019350
:103E6000CEE74946022A6AD0032A00D109E2012A94
:103E700000D0BBE111400022002300259046CCB2C7
:103E800000212D030A0D12052D0B1543434A1B0576
:103E900015401D436D00E4076D0825434046290089
:103EA00007B03CBC90469946A246AB46F0BD0343E2
:103EB00052D05B46002B00D18AE1584600F0B6FD97
:103EC00003000B3B1C2B00DD7BE11D22D31A3A00C3
:103ED00001005D46DA4008398D4013008F402B43C6
:103EE0009B46B8462E4B00279C4600236044464222
:103EF000019385E752462A432CD100250023022254
:103F000097E752462A4321D0002D00D154E12800E2
:103F100000F08CFD03000B3B1C2B00DD46E11D2156
:103F2000CB1A51460200D9405346083A9540934077
:103F30000D431B4A944660444042002279E7012425
:103F400000220C40124B0025904699E700250023E3
:103F500001226EE703226CE700239B46984601335B
:103F6000042701934CE703230C27019348E7002320
:103F70008025984600242D03054B81E75D46434686
:103F8000019A6FE75D4643462100019A6AE7C04601
:103F9000FF07000001FCFFFF145D0000FFFF0F8022
:103FA000F30300004246120C91461A0C9446424616
:103FB00017044A461B041B0C5A43604690464A4667
:103FC00042431000039262461C003F0C7A437C433C
:103FD00042440192220C9246019A5244904506D9DD
:103FE0008246802040028046C24450460390100C16
:103FF000049048462404240C1204121905922A0C39
:104000002D042D0C68432C00824648467C435043C7
:104010008146200C8046574357444744BA4503D94C
:10402000802040028046C144380C3F04B8464844D2
:104030002404240C01900498A04440440490584661
:10404000000C814658460404200C8246070048466E
:104050005F434C4643436046604364468346504654
:104060004443380C8446E4186444A34203D98023B3
:104070005B029C46E34448463F04230C3F0C240467
:10408000E419574668436F4384464D4650465543AE
:104090004243380C814662444A445B44944503D908
:1040A000802040028446654403983F048346049878
:1040B0003F0C8446E344C34580414042824610049D
:1040C00084460198674484466744A344BC46A3459C
:1040D000A4419946D44464428742BF41D4458041BB
:1040E000E144A04699459B417F424042C844074372
:1040F000120CBA18A045A4415F423B00644223431E
:10410000D71843467D19DB0D6D021D435B465A02ED
:10411000059B1A43531E9A415B46DB0D1A434346E7
:104120005B021343EA0107D501225C0813402343D5
:10413000EA07029E13436D08574AB218002A4BDD66
:10414000580709D00F201840042805D0181D9842A0
:104150009B415B42ED180300E80104D54F4A15402E
:104160008022D200B2184E48824200DDE7E60124E8
:10417000DB08680718436D02530580462D0B5B0D65
:104180000C407DE6802259461203114208D01542A8
:1041900006D115432D0398462D0B4C46414B6FE637
:1041A0005D4615432D032D0B3E4B69E60300554636
:1041B000283B9D400023BCE6504600F037FC2030F1
:1041C000A8E60300283B9F400023BB46984689E6AB
:1041D00000F02CFC203073E60124A61A382E07DDEF
:1041E00000220C4000230025904649E6029EA3E7EA
:1041F0001F2E20DC20222C001800921BF04094403F
:1042000093400443581E83411C43F540630709D083
:104210000F232340042B05D023001C1D9C429241F8
:104220005242AD182B021FD5012400220C4001235D
:104230000025904624E61F202C004042821AD440DC
:10424000202E1CD04022961BB5402B43581E834184
:104250000720234318400025002809D00F220025FD
:104260001A401C00042AD8D1230068076D022D0BC8
:104270000124DB08034398460C40002300E6002598
:10428000E3E780220124120315432D0398462D0BEA
:104290000C40044BF4E5C046FF030000FFFFFFFEA7
:1042A000FE070000FF070000F0B557464E464546A2
:1042B000E0B40E001100F20F9246C500420F180341
:1042C00037037400400A4E0F7F0A3043CF4E174326
:1042D0005A00640D520DDB0FC900B24200D1E5E077
:1042E00001267340A61AB446534500D1AFE0002E14
:1042F00000DC0DE1002A3AD103000B4300D0E4E0DA
:104300006B0709D00F232B40042B05D02B1DAB428C
:10431000AD416D427F191D003B0200D488E0BB4BCC
:1043200001349C4200D110E13A00B94B51461A4089
:1043300001235007ED08520264050543120B640D7A
:104340000B400021280012030D0D120B64052D05F2
:1043500015436208AF4CDB072C401443640064082B
:104360001C4321001CBC90469946A246F0BDA74BB9
:104370009C42C5D080231B0418436346382B00DDC4
:10438000FDE01F2B00DD30E1624620239B1A020076
:104390009A40664690460A009940F24046464B1EB7
:1043A00099413243114363460200DA40691A8D4253
:1043B0009B410D00BA1A5B42D71A3B0235D57A02EF
:1043C000530A98464346002B00D1C4E0404600F013
:1043D0002DFB0300083B1F2B00DDC5E02022290038
:1043E000D21A4746D1409F400A009D403A439C4222
:1043F00000DDC0E01C1B631C1F2B00DDE4E020215E
:1044000014002800C91AD8408C408D400443DA407B
:10441000681E854117002543002471E74246634624
:104420001A4300D14CE2674645466B0700D069E766
:10443000012351467807ED08FA080B4005437349FC
:104440008C4238D012036405120B640D79E7002EFC
:1044500000DC9AE0002A47D06C4A944200D14FE732
:104460008022120410436246382A00DC08E101432E
:10447000481E81410022C9B24919D219A942BF413F
:104480000D007F42BF183A0200D442E15F4A013476
:10449000944200D14EE101205D4A69083A4028402B
:1044A0000843D507054357089A4629E706000E43F7
:1044B00000D017E714E72900114300D1F9E180216A
:1044C00009030A431203120B3BE701235B429846A0
:1044D000C4446346002B72D1691A8D429B413F1A36
:1044E0005B42FF1A0D0068E702000A4300D107E7AC
:1044F000012252429046C4446246002A00D0E6E0BF
:104500006918A942B6413F187642F7190D00BAE77B
:10451000002E00D080E0621C5205520D012A00DC02
:10452000F9E06A1A91464D45B6413A1A7642921B15
:104530009046120200D499E04D1BA9428941C71B45
:1045400049427A1A90469A463CE752460123002592
:1045500013400022F5E6280000F068FA203003003E
:10456000083B1F2B00DC39E72A0028388240002551
:104570009C4200DC3EE7264FE41A1740C0E60143A8
:10458000481E81410022C9B210E7002E00D0F1E0A0
:10459000621C94465205520D012A00DCA0E01B4A21
:1045A000944500D1C5E06918A94292413F18524292
:1045B000D2194908D5070D4357086446A0E6134BA6
:1045C0009C4200D0D9E69BE611001F3CE1400C0064
:1045D000202B00D180E04021CB1A9A4015436A1E5F
:1045E00095410027254300241FE763460200203B36
:1045F000DA406346202B71D0402366469B1B9840CF
:104600000143481E814111430022CFE6FF0700000D
:10461000FFFF7FFFFFFF0F80002C48D0CA4CA24253
:1046200000D1A2E07442A1468024240427434C46D2
:10463000382C00DDDBE01F2C00DD44E14E46202459
:10464000A41B3E00A640A246B0464C462E00E640C3
:10465000B4464646644626435446A5406C1EA541D2
:1046600034002C434D46EF400D1B28E04A4643469C
:104670004D461A4300D0A5E6002300240025DEE6BF
:104680001F2A5ADC66462022921B0600964091465D
:10469000B04662460E00D640424616434A46914016
:1046A0004A1E9141020060463143C240E4E63C00AC
:1046B0002C435AD0F443A146002C52D14D1BA942A1
:1046C0008941C71B49427F1A14009A4675E69E4AE3
:1046D000944200D0C7E613E600227FE700208FE770
:1046E000002C00D0C8E03B002B4300D10FE10300B9
:1046F0000B4300D104E66918A9429B413F185B4275
:10470000DF193B0200D41AE1904B0D001F406446B4
:10471000F6E59A4689E63A002A43002C5CD1002A45
:1047200075D102000A4300D1CAE007000D009A4685
:10473000E6E564460022002581E662460600203A4E
:10474000D6406246B046202A00D1B7E040226646F5
:10475000921B904001434246481E81411143002272
:104760008AE6794CA24200D061E707000D001400F0
:104770009A46C5E5002C41D13C002C4378D0F44347
:10478000A146002C20D0704CA24271D04C46382C4F
:1047900000DDB2E01F2C00DDBCE02026341BA24669
:1047A0003C005646B4404E46A0462C00F440A44679
:1047B000444666463443A4465446A54064466E1EAD
:1047C000B54125434C46E7406D188D4289413F185D
:1047D0004942CF19140056E6002A2FD102000A439D
:1047E00000D184E007000D009A46574C88E53D4310
:1047F0006F1EBD41ECB200270D1B60E7524CA24278
:1048000036D0744280263604A1463743BEE7020004
:104810000A4300D174E56A1A90464545B6413A1AF2
:104820007642921B9446120200D4F7E54D1BA94232
:104830008941C71B49427F1A9A4661E502000A4333
:104840003AD0ED087C072C438025FA082D032A4234
:1048500008D0C7082F4205D145072C003A009A46D8
:10486000C9080C43670FD200E5001743364C47E5F3
:1048700007000D00140043E53A002A4343D002002C
:104880000A4319D0ED087C072C438025FA082D0334
:104890002A4207D0C6082E4204D147073C00320006
:1048A000C9080C43D700620FE50017439A46264C0F
:1048B00026E50022002544E5234C21E5002049E7B8
:1048C00000230025BBE54C463E00203CE6404C461C
:1048D000B446202C31D040244E46A61BB7403D4361
:1048E0006C1EA54164462C4300270D1BE7E6802281
:1048F00000231203144C0025A1E53D436F1EBD416A
:104900000027EDB260E707000D000F4CF8E4070048
:104910000D00F5E44E463C00203EF440A0464C46D7
:10492000202C0ED040244E46A41BA7403D436F1EB2
:10493000BD4144460027254346E70027CFE70D0049
:1049400073E50027F2E7C046FF070000FFFF7FFF87
:104950000B0330B5134D1A0B4B005B0DC90F002430
:10496000AB4211DD104CA34210DC802464032243CF
:104970000E4CE41A1F2C0CDD0D48C31ADA4013004C
:104980005C42002900D11C00200030BD094BCC182E
:10499000FAE7E040084CA44663449A4013000343FE
:1049A000EEE7C046FE0300001D04000033040000D3
:1049B00013040000FFFFFF7FEDFBFFFF70B5051E36
:1049C00028D000F033F8154B154A1B1AD21A1F2AAB
:1049D00016DD2C00134A0025D21A94405A052403F0
:1049E000240B520D002124030B0D240B1B05234324
:1049F0000D4C1205234013435B002800590870BD7D
:104A00000B212C00081AC440954024035A05240B9E
:104A1000520DE7E700220024E4E7C0461E04000030
:104A20003304000013040000FFFF0F801C2101234A
:104A30001B04984201D3000C10391B0A984201D381
:104A4000000A08391B09984201D30009043902A25F
:104A5000105C40187047C0460403020201010101C6
:104A600000000000000000000E4B70B500251E0085
:104A70000D4CE41AA410A54204D0AB00F35898479B
:104A80000135F8E701F0B4F9084B00251E00084C89
:104A9000E41AA410A54204D0AB00F358984701359E
:104AA000F8E770BDFC5D0000FC5D0000FC5D0000EF
:104AB000005E0000002310B59A4203D0CC5CC454C1
:104AC0000133F9E710BD03008218934202D0197038
:104AD0000133FAE7704700000FB40B4B13B51C68A5
:104AE000002C05D0A369002B02D1200000F0BCF9F6
:104AF00005AB049AA1682000019300F07BFB16BC73
:104B000008BC04B01847C0466C0000204A424A4125
:104B1000802310B55200DB0000F002F810BD000049
:104B2000F0B51D00514B85B01E6804000F000092C7
:104B3000002E05D0B369002B02D1300000F094F9AB
:104B40004B4B9C4201D1746808E04A4B9C4201D116
:104B5000B46803E0484B9C4200D1F468009B022BF0
:104B600005D0012B00D97CE0002D00DA79E021008E
:104B7000300000F00BF9616B002908D023004433AA
:104B8000994202D0300000F071FA002363630023E1
:104B9000A3616360A3891B0603D52169300000F07F
:104BA00065FAA289354B1340A381009B022B21D0CB
:104BB00003AB02AA2100300000F0EAF9A3891843F0
:104BC000A081002D01D1029D01E0002F25D12800F8
:104BD00000F042FA0195071E1AD1029B0193AB42E5
:104BE00002D10120404206E0019800F035FA071E8C
:104BF0000ED1F6E700200222A3891343A3810023EC
:104C0000A3602300473323602361012363612AE00B
:104C10008022A389019D1343A381B369002B02D194
:104C2000300000F021F9009B012B03D1A389009AE9
:104C30001A43A2810823A289276013402761656176
:104C4000181E0CD001231A400023101E984204D0D5
:104C50006D42A360A561180005E0A56003E0A360B4
:104C600001E00120404205B0F0BDC0466C000020CC
:104C70005C5D00007C5D00009C5D00005CF3FFFF5C
:104C8000F7B58A8905000C0013075AD44B68002B2E
:104C900002DC0B6C002B19DDE76A002F16D0002315
:104CA0002E682B6080235B011A4001D0606D14E0F8
:104CB0000123216A2800B847431C0ED12B68002B22
:104CC0000BD01D2B01D0162B02D12E6000205AE0F4
:104CD0004022A3891343A38155E0A3895B0706D52E
:104CE0006368C01A636B002B01D0236CC01A0023C9
:104CF0000200216A2800E76AB847A389421C06D14E
:104D000029681D293AD8204ACA40D20736D5002240
:104D1000626022692260DB0405D5431C02D12B6846
:104D2000002B00D16065616B2E600029CED023007E
:104D30004433994202D0280000F098F900206063C3
:104D400021E00F69002FC1D00B680F60DB1B0193BE
:104D50000023920700D14B69A36003E0019B3F1839
:104D60001B1A0193019B002BB0DD019B3A00216AC5
:104D70002800A66AB0470028F0DCA3894022012061
:104D80001343A3814042FEBD010040200B6970B572
:104D900005000C00002B01D100201CE0002804D0ED
:104DA0008369002B01D100F05FF80B4B9C4201D1CD
:104DB0006C6808E0094B9C4201D1AC6803E0084BE9
:104DC0009C4200D1EC680C22A35E002BE4D02100B1
:104DD0002800FFF755FF70BD5C5D00007C5D0000A2
:104DE0009C5D000010B5024900F0B0F810BDC0464F
:104DF0008D4D0000002310B5040003604360836004
:104E000081814366C2810361436183611900082285
:104E10005C30FFF758FE054B24626362044BA362CB
:104E2000044BE362044B236310BDC046715700007E
:104E300099570000D1570000FD57000070B5682554
:104E40004B1E5D430E002900743100F055F9041E1D
:104E500008D000212A00016046600C30A060683252
:104E6000FFF731FE200070BD836913B50400002BED
:104E700028D18364C3640365134B144A1B688262A0
:104E80000193984201D101238361200000F020F8B2
:104E90006060200000F01CF8A060200000F018F80E
:104EA0000022E06004216068FFF7A4FF01220921CD
:104EB000A068FFF79FFF02221221E068FFF79AFF28
:104EC0000123A36113BDC046585D0000E54D0000FD
:104ED000F8B51D4B06001D68AB69002B02D12800F8
:104EE000FFF7C2FF4835AC686B68013B05D40C2264
:104EF000A75E002F10D06834F7E72B68002B01D095
:104F00002D68F0E704213000FFF798FF28600028A3
:104F1000F6D10C23336016E0012320005B42E381CD
:104F20000233A38167662760A760676027616761B6
:104F3000A7615C3008223900FFF7C5FD20006763D8
:104F4000A763A764E764F8BD585D0000F7B50400E7
:104F50000700002601914834002C16D06368A5682C
:104F60000093009B013B00930DD4AB89012B08D922
:104F70000E22AB5E013304D029003800019B984714
:104F800006436835EDE72468E6E73000FEBD000023
:104F900070B50E001D000E23C95E90B014000029EC
:104FA00006DA00232B60B3891B060FD540230FE0E0
:104FB00001AA00F01DFD0028F3DBF023029A1B027A
:104FC0001340054A9B185A4253412B608023DB0053
:104FD0000020236010B070BD00E0FFFFF7B502268F
:104FE0008B8905000C00334210D101AB6A46FFF7F4
:104FF000CFFF00990700280000F07EF800280CD1B0
:105000000C22A35E9A0523D43343A38123004733A4
:1050100023602361012363611AE080220D4BAB62A0
:10502000A38920601343A381009B20616361019BDE
:10503000002B0AD00E23E15E280000F0EBFC0028D4
:1050400003D00122A3891343A381A3891F43A7810E
:10505000F7BDC046E54D000010B5034B01001868D0
:1050600000F04AF810BDC0466C00002030B50029A1
:105070003ED004390B68002B00DAC9181D4A1368AA
:105080001400002B02D14B60116031E08B420DD92E
:105090000A688818834203D118685B6882180A601E
:1050A0004B60216024E08A4203D813005A68002A2A
:1050B000F9D11D685C198C420BD109686918581820
:1050C0001960824214D110685268411819605A6000
:1050D0000EE08C4202D90C23036009E008680C182A
:1050E000A24203D114685268201808604A605960CF
:1050F00030BDC046CC000020032370B5CD1C9D43BD
:10510000083506000C2D01D20C2505E0002D03DA30
:105110000C230020336040E0A942F9D81F4B1C68E3
:105120001A002100002913D00B685B1B0DD40B2B38
:1051300002D90B60CC181EE08C4202D16368136068
:105140001AE04B6863600C0016E00C004968E9E760
:10515000134C2368002B03D1300000F0F7FA2060D5
:105160002900300000F0F2FA431CD1D00323C41C04
:105170009C43A0420AD12560200007220B30231D4A
:105180009043C31A09D05A42E25006E0211A300077
:1051900000F0DCFA431CEED1BAE770BDCC00002071
:1051A000C8000020936810B5013B9360002B05DA1E
:1051B0009469A34208DBCBB20A2B05D01368581CB4
:1051C00010601970C8B201E000F01EFB10BDF8B508
:1051D00006000F001400D518AC4208D021783A0020
:1051E0003000FFF7DFFF0134431CF5D100E0002061
:1051F000F8BD0000F0B59FB006000F0002920593C5
:10520000002804D08369002B01D1FFF72DFE7F4BCE
:105210009F4201D1776808E07D4B9F4201D1B7687A
:1052200003E07C4B9F4200D1F768BB891B070AD57E
:105230003B69002B07D0002306AD6B6120336B76F2
:105240001033AB763DE03900300000F049FB002818
:10525000F1D001204042D6E0059A111D1268059157
:10526000002A00DA7FE00992013423782E2B00D146
:105270008DE021780322684800F0F2FB002807D077
:10528000654B2A68C01A4023834013432B600134C6
:105290002178631C062261480293297600F0E0FB26
:1052A000002800D19DE05E4B002B00D090E007224B
:1052B000059B07339343083305936B69039A9B1847
:1052C0006B61029C2378002B04D1029BE31A0493A8
:1052D00012D003E0252BF8D00134F3E7049B029AA7
:1052E00039003000FFF773FF431C00D186E06A6984
:1052F000049B944663446B612378002B7ED001228B
:10530000002352426A6002A95432521801342B60C1
:10531000EB60AB601370AB6521780522414800F06B
:105320009FFB002808D03F4B2A68C01A0123834006
:1053300013432B600134EFE72B68DA0604D55322C0
:10534000202102A8121811701A0704D553222B210C
:1053500002A81218117022782A2A00D17CE7099B32
:1053600000200A2105E05242EA60022213432B602A
:105370007AE72278303A092A04D84B4301349B1843
:105380000120F6E7002800D16FE709936DE7637805
:105390002A2B0AD1059B02341A1D1B680592002B8B
:1053A00001DA01235B42079363E700230A201A0016
:1053B00001346B6021783039092904D84243013423
:1053C00052180123F6E7002B00D152E7079250E76D
:1053D00005AB00933A00144B2900300000E000BFF9
:1053E00007E005AB00933A000F4B2900300000F0B6
:1053F0008BF80390039B013300D05EE7BB895B060B
:1054000000D526E70B981FB0F0BDC0465C5D0000DC
:105410007C5D00009C5D0000C25D0000C65D000078
:1054200000000000BC5D0000CF510000F7B5170080
:1054300001938A680B6900900C00934200DA130014
:1054400022003B6043321278002A01D001333B60D6
:1054500023689B0602D53B6802333B600625236820
:105460001D401ED0230043331B785A1E93412268EF
:1054700092061CD53020E1184331087021005A1CD7
:1054800045310978A2184332023311700FE022002F
:105490000123193201990098089EB047431C0ED091
:1054A0000135E3683A689B1A9D42F0DBDAE7220097
:1054B000019943320098089DA847431C02D101205E
:1054C000404220E006232068E1683A680340002556
:1054D000042B03D18D1AEB43DB171D40A36822690F
:1054E000934201DD9B1AED180027BD420AD022002D
:1054F00001231A3201990098089EB047431CDED060
:105500000137F2E70020FEBDF0B58BB006920A002D
:1055100043320793059004920A7E0C00109B6E2A7A
:1055200000D1ABE011D8632A22D009D8002A00D1DB
:10553000B5E0582A00D0C5E045310A70814A4FE0F5
:10554000642A1DD0692A1BD0BCE0732A00D1AAE0CE
:1055500009D86F2A29D0702A00D0B3E02022096828
:105560000A43226037E0752A1FD0782A33D0A9E099
:105570000E001A684236111D196013683370A4E0DA
:1055800021681A68080606D4490604D5111D196059
:105590000023D55E02E0111D19601568002D3BDA6D
:1055A0002D23049A6D42137036E021681A680806AC
:1055B00006D4490604D51568111D1960ADB202E084
:1055C000111D196015685F4B227E039308276F2A0F
:1055D0001DD00A271BE022007821453211705A4A5B
:1055E00019680392081D226818600D68100602D41D
:1055F000500600D5ADB2D30702D520231A4322604E
:105600001027002D03D1202322689A432260230013
:10561000002243331A7002E00A274A4B039363685F
:10562000A360002B09DB0422216891432160002D37
:1056300005D1049E002B11D07BE0002D79D0049E73
:1056400028003900FDF758FC039B013E5B5C2800F5
:1056500033703900FDF7CAFB051EF1D1082F09D1BF
:105660002368DB0706D563682269934202DC302396
:10567000013E3370049B9B1B23612BE009681A6871
:10568000080607D4490605D5111D19601368A28ABA
:105690001A8004E0111D1960136862691A60002302
:1056A000049E236116E01A68111D19601668002116
:1056B0006268300000F0D4F9002801D0801B6060DF
:1056C000636803E026004236327001232361002321
:1056D000049A1370079B09AA00932100069B059862
:1056E000FFF7A4FE431C02D10120404227E02369BA
:1056F000320006990598079DA847431CF4D02368FB
:1057000000259B070FD4099BE068984217DA180020
:1057100015E022000123193206990598079EB0472B
:10572000431CE1D00135E368099A9B1A9D42F0DBE6
:10573000E9E72600039B42361B7833708EE70BB0F7
:10574000F0BDC046CD5D0000DE5D0000002370B5F9
:10575000064C050008002360FDF762FA431C03D1E4
:105760002368002B00D02B6070BDC046EC010020E8
:1057700070B50C000E25495F00F07EF9002803DBB0
:10578000636D1B18636503E0A289024B1340A3817C
:1057900070BDC046FFEFFFFFF8B51F008B89050005
:1057A0000C001600DB0505D50E23C95E002202237E
:1057B00000F042F9A289054B28001340A381320072
:1057C0000E23E15E3B0000F077F8F8BDFFEFFFFF2E
:1057D00070B50C000E25495F00F02EF9A389421C1C
:1057E00003D1054A1340A38104E0802252011343F0
:1057F000A381606570BDC046FFEFFFFF10B50E23AB
:10580000C95E00F0E3F810BDF8B505000F00140004
:10581000002804D08369002B01D1FFF725FB234B1F
:105820009C4201D16C6808E0214B9C4201D1AC68DC
:1058300003E0204B9C4200D1EC68A369A360A389DC
:105840001B070AD52369002B07D023682269FEB203
:10585000981A636998420FDB08E02100280000F0E5
:105860003FF80028F1D0012040421DE0210028002F
:10587000FFF78CFA0028F6D1A3680130013BA36042
:1058800023685A1C22601F706369984205D0A3895F
:105890003000DB0708D50A2E06D121002800FFF7CB
:1058A00075FA0028DFD13000F8BDC0465C5D00000D
:1058B0007C5D00009C5D000070B5050008001100D3
:1058C0000022064C22601A00FAF7A0FE431C03D106
:1058D0002368002B00D02B6070BDC046EC01002077
:1058E000364B70B51D6806000C00002D05D0AB6965
:1058F000002B02D12800FFF7B7FA314B9C4201D1AF
:105900006C6808E02F4B9C4201D1AC6803E02E4B41
:105910009C4200D1EC680C22A35E9AB2110723D4FA
:10592000D10607D409220120326037321343A38104
:10593000404242E0530713D5616B002908D0230091
:105940004433994202D03000FFF790FB0023636399
:105950002422A3899343A3810023636023692360E6
:105960000822A3891343A3812369002B0BD1A02311
:10597000A2899B00134080229200934203D0210011
:105980003000FFF72BFB0123A289134005D0002331
:10599000A36063695B42A36103E0920700D463697B
:1059A000A36000202369834207D10C22A35E1A065C
:1059B00003D540221343A381013870BD6C00002041
:1059C0005C5D00007C5D00009C5D0000002370B504
:1059D000064C050008002360FDF734F9431C03D191
:1059E0002368002B00D02B6070BDC046EC01002066
:1059F000002370B5064C0500080011002360FDF778
:105A000025F9431C03D12368002B00D02B6070BD07
:105A1000EC010020002370B5064C0500080023604F
:105A2000FDF71AF9431C03D12368002B00D02B602B
:105A300070BDC046EC01002070B5050008001100E3
:105A40000022064C22601A00FDF708F9431C03D11E
:105A50002368002B00D02B6070BDC046EC010020F5
:105A6000C9B28218904204D003788B4202D0013030
:105A7000F8E700207047000070B50500080011002D
:105A80000022064C22601A00FAF7A0FD431C03D145
:105A90002368002B00D02B6070BDC046EC010020B5
:105AA000640002008C00002000000000760C000062
:105AB000B80E0000B80E0000B80E0000B80E0000CE
:105AC000B80E0000B80E0000B80E0000B80E0000BE
:105AD000B80E0000B80E0000B80E0000B80E0000AE
