:10000000A8220020792E0000752E0000752E000019
:1000100000000000000000000000000000000000E0
:10002000000000000000000000000000752E00002D
:100030000000000000000000752E0000752E00007A
:10004000752E0000752E0000752E0000E1070000DF
:1000500015010000752E0000752E0000752E0000A1
:10006000752E0000F526000005270000152700006A
:10007000252700000000000000000000752E000091
:10008000752E0000752E0000752E0000752E0000E4
:10009000752E000000000000000000006911000043
:1000A000752E000079130000752E0000752E0000DB
:1000B0000000000010B5064C2378002B07D1054B3B
:1000C000002B02D0044800E000BF0123237010BDC4
:1000D0007C00002000000000F05C0000084B10B520
:1000E000002B03D00749084800E000BF0748036819
:1000F000002B00D110BD064B002BFBD09847F9E731
:100100000000000080000020F05C0000F05C0000B7
:100110000000000070B50022104B1A700023104937
:100120001F25104E0D4C0AE00D4908E023780133DD
:10013000DBB223700F2B10D800211F2BF4D928001D
:1001400018400122824008691042EFD00A619B00EA
:100150009B59002BEAD09847E8E770BDE4000020E7
:1001600000180040E8000020044A137802210B43E5
:10017000137053785BB2002BFBDB70470018004014
:1001800000B583B0124A936940210B43936101A9E2
:1001900000230B7005200F4B984705200E4B984706
:1001A0000E4A137801210B43137053785BB2002B76
:1001B000FBDB0B4B19004031002204C39942FCD1F8
:1001C0001022084B1A60084B984703B000BDC04688
:1001D000000400401D2D0000912C0000001800407C
:1001E000E800002000E100E069010000002806DDD1
:1001F000034BC01800221A7001338342FBD17047B1
:10020000D001002010B5044C2078044B98470023FF
:100210002370034A137010BD98000020ED01000008
:100220009900002030B591B00023294A13600022C4
:1002300028490B7028490B708021C9050091019352
:10024000FF21684601818372C3729621890108915A
:10025000012124206C46215401302154253163545E
:10026000013163540A93053163540131635405939A
:100270002382E3762276227762761323A37662774F
:1002800080235B030393154B0C93154B0D930123B4
:100290005B420E930F93134D134C6A46134928008B
:1002A000A0470028F9D10F4D2C682000104B98472B
:1002B0001F2318401E3B83400E4A13602A68D369EF
:1002C000002BFCD1236802221343236011B030BD00
:1002D000F0010020F7010020CC01002002001000F6
:1002E0000200110030010020D5200000000C004267
:1002F000D126000000E100E070B5084C002208495A
:100300002000084DA847012207492000A8473122B4
:10031000A35C03210B43A35470BDC04630010020F1
:1003200005020000A1240000CD04000010B50A0061
:1003300001000248024B984710BDC0463001002022
:10034000B924000010B5012202490348034B984725
:1003500010BDC046C001002030010020D92400009B
:1003600010B5072206490748074B98470023074A5C
:1003700013600121064A1170064A137010BDC04671
:10038000F059000030010020B9240000F0010020E5
:10039000F7010020CC01002070B53C4B1B78002BEE
:1003A00008D13B493B4B9847002800D070BD3A4BE1
:1003B0009847FBE70378572B0CD0442B4ED0432BA8
:1003C00053D03649334B98470028EFD10022344BA5
:1003D0001A70EBE78678303E002E39DD041D0025CB
:1003E00008E0A0783038C0B22E4B9847013504346D
:1003F000AE422DDD23784C2BF3D0462B0FD0492B6A
:1004000013D0502BF2D1A07830388300C0184000B0
:10041000E378303BC01880B2234B9847E6E7A078DA
:100420003038C0B2214B9847E0E7A378303B9800C2
:1004300018184000E378303BC01880B21C4B58437A
:1004400064211C4B9847643080B21B4B9847CDE722
:1004500004221A491A481B4B9847A7E70120114B61
:1004600098470022094B1A70A0E78378312B08D0F7
:100470000022154B1A70042210491148114B98475D
:1004800094E70122104B1A70F5E7C046F7010020EF
:10049000DC590000DD51000061030000EC59000050
:1004A000CC01002051300000753000005D300000AC
:1004B000520300004936000069300000E459000092
:1004C00030010020B92400002901002010B5114B93
:1004D0001B78002B03D1104B1B783C2B0AD00E4B02
:1004E0001A783E2A0AD00D490B780D48C2540133C0
:1004F0000B7010BD0122074B1A70FAE70848094B30
:100500009847064C2078084B984700232370014AEF
:100510001370EEE799000020C00100209800002031
:10052000D001002099030000ED01000070B500200B
:10053000084B98470500084CFA218900A047074B53
:10054000186007492800A047064B18600522064B93
:100550001A6070BD052C0000353500000000002039
:1005600040420F000400002010E000E030B5084BCE
:100570001C68084A002580214902013807D3002C55
:10058000FBD05460956013680B42FCD0F5E730BD9A
:100590000000002010E000E00368987AC00970476E
:1005A00070B5040006680822054B1A60054D20004E
:1005B000A8470028FBD1338802221343338070BD43
:1005C00000E100E09905000070B50400066808210C
:1005D0008023064AD150064D2000A8470028FBD1B1
:1005E000338802229343338070BDC04600E100E0AF
:1005F0009905000070B504000668074B9847002372
:10060000A382E382054D2000A8470028FBD1338850
:1006100001221343338070BDC90500009905000015
:10062000F0B583B00400019115000668114F200059
:10063000B8470028FBD12379002B0AD0012B16D113
:100640001730012D14D80635AD00019BAB510020A9
:100650000EE01720022D0BD8074B019A9A4207D8BB
:100660006B469B880C356D00AB53002000E01A20D0
:1006700003B0F0BD99050000FFFF0000F0B583B0A6
:100680000400160001602E4A936920210B439361F8
:1006900001A902230B7004202A4B984704202A4BFF
:1006A00098472000294B9847B378237133796371B9
:1006B000274B1C60276833883B80B378002B21D000
:1006C0001720012B1CD13B889BB23B80F378002B79
:1006D00003D03B88802213433B801E4D2000A84757
:1006E0000028FBD10022B16820001B4B98473379CA
:1006F0000020002B04D07B888022D20113437B8012
:1007000003B0F0BD3B88042213433B80F3781720ED
:10071000002BF5D10F4D2000A8470028FBD1002267
:10072000B16820000C4B98470A4D2000A8470028CC
:10073000FBD10122F1682000074B9847D7E7C0465C
:10074000000400401D2D0000912C0000F505000064
:10075000FC0100209905000021060000F8B5040006
:100760000E0003791520002B00D0F8BD2768034D3B
:100770002000A8470028FBD1BE82F6E799050000BB
:10078000022A0BD00379002B05D0012B12D116338E
:10079000012A0DD802E01723022A09D8931C9B00D6
:1007A0001950838A012191400B439BB2838200231D
:1007B000180070471723FBE710B5046802290BD017
:1007C00001228A4003231340E371C38A01228A4035
:1007D00013439BB2C38210BD8023E371F5E7000091
:1007E00010B5144B1A681468D18A938A1940207A7C
:1007F000E379034058B2002806DBD8070FD5CB07B2
:100800000AD40123237210BD4B0702D48023237224
:10081000F9E713699847F9E793689847F1E79B0769
:10082000F1D58B0702D402232372ECE7D3689847F3
:10083000F9E7C046FC01002010B58CB06846114BAA
:10084000984703236A465370013313730E4C0F49C4
:1008500020000F4B98472268537E5BB2002BFBDBD6
:10086000802109040B4B1960137802210B4313708C
:10087000054B1A68537E5BB2002BFBDB01200CB0EA
:1008800010BDC046F90C00000002002000400042EC
:10089000410D000000E100E010B58CB06846114B3E
:1008A000984703236A465370043313730E4C0F4961
:1008B00020000F4B98472268537E5BB2002BFBDB76
:1008C000802109040B4B1960137802210B4313702C
:1008D000054B1A68537E5BB2002BFBDB01200CB08A
:1008E00010BDC046F90C000000020020004000428C
:1008F000410D000000E100E00A4B1A68802000046E
:1009000080230949C850537E5BB2002BFBDB137870
:1009100002218B431370034B1A68537E5BB2002B8A
:10092000FBDB70470002002000E100E0F0B583B07F
:100930000F00214B19684B7E5BB2002BFBDB0B7B5E
:10094000022213430B734B7E5BB2002BFBDB0124B3
:100950000426022501E014420AD10B7EDBB22200FC
:100960001A401E4200D02A431D42F4D03243F2E71F
:100970004B7E5BB2002BFBDB4A8B01AB1A80012361
:100980000B760A7ED2B21340540701D502242343CA
:10099000920701D5042213435B0701D502230B768E
:1009A000019B036005485843DC210903044B984729
:1009B000386003B0F0BDC04600020020001D1000EA
:1009C00035350000F0B583B00F00234B19684B7E1E
:1009D0005BB2002BFBDB0B7B022213430B734B7EC2
:1009E0005BB2002BFBDB01240426022501E014424C
:1009F0000AD10B7EDBB222001A401E4200D02A43ED
:100A00001D42F4D03243F2E74B7E5BB2002BFBDB9E
:100A10004A8B01AB1A8001230B760A7ED2B21340B7
:100A2000540701D502242343920701D5042213431E
:100A30005B0701D502230B76019B036007485843EF
:100A4000000BFA239B005843054B181A0549064B27
:100A50009847386003B0F0BD00020020E40C0000AD
:100A6000FC5A1C008F0400003535000010B582B020
:100A70006846074B984700236A461370054C0649A1
:100A80002000064B98472000054B984702B010BD48
:100A900031120000240200200048004245120000EC
:100AA0001513000010B582B00400632813D9194B48
:100AB0001B78002B1ED0184B1C805620FF30604343
:100AC000FA218900154B984782B200211448154B32
:100AD000984702B010BD00230E4A137001A90B7095
:100AE00001224A708B7001200F4B984702220F4B56
:100AF0005A61EEE70122074B1A7001A900230B701F
:100B00004A708B700120084B98470222074B9A616C
:100B1000D1E7C0460800002020020020493600002E
:100B20002402002051130000211400000044004161
:100B300030B585B001AA064B13CB13C2054D064C48
:100B400001A92800A0470028FAD105B030BDC04651
:100B5000F8590000480200206D1A000030B58FB02F
:100B600001AA64230193214B536000239360137304
:100B7000137680218903116101214942D18291823A
:100B80002531535493620831535401315354013188
:100B90005354D7331386164BD361164B1362164C3E
:100BA00016492000164B984724680722E3691A4229
:100BB000FCD123680222134323600F4D2868114B98
:100BC00098471F2318401E3B83400F4A1360E88854
:100BD00000231021628B0A4204D101338342F9D3EE
:100BE00010236383094B98470FB030BD480D0000B8
:100BF000020008000200090048020020000800422C
:100C000051140000D126000000E100E0310B00008B
:100C1000F0B585B005000C0001A90E4B18330A0091
:100C2000C1CBC1C20C480D4B9847002300280ED100
:100C30000B4A93781B02D0781843286064235843EA
:100C40000849094B98470004000C20600123180054
:100C500005B0F0BDF859000048020020491A000014
:100C60009C000020FFFF000049360000024A136884
:100C7000013313607047C046A000002010B584B057
:100C800000236A46D3700293039313809370012369
:100C900013710B4C0B4920000B4B984720000B4B5A
:100CA000984702220A4920000A4B98470221200057
:100CB000094B984701212000084B984704B010BD0C
:100CC00070020020001400407D060000A105000015
:100CD0006D0C000081070000B90700005D070000EF
:100CE000014B18687047C046A0000020014B1B68EC
:100CF000181A7047A000002010B5002200230270CF
:100D0000427000214280017103760262C2618260FA
:100D10000373C0246401C481037443748374C37473
:100D200003752A24035543758375063C0355C28415
:100D30000285C1752B23C1540133C15410BD00007D
:100D4000F0B5D6464F464646C0B596B007001600E9
:100D50000160C64A106A80235B02034313620B786A
:100D60000520DB0705D516B01CBC90469946A24667
:100D7000F0BD0B7817309B07F5D473783B71002BCF
:100D800004D1BB4A136C04210B4313640023BB60E2
:100D9000FB603B61BB76FB763B833B77B54B1F60CB
:100DA0002A23F35C002B05D1337D002B02D10133C4
:100DB0007B7701E000237B773B68984633786A466F
:100DC000137069461E20AC4B98471E20AB4B9847CA
:100DD0002C23F25C002A54D0013BF55C337BEB18EA
:100DE000DBB2D118C9B28B4221D25219D3B2994683
:100DF000A34B9A4603E00135EDB24D4517D00F24C1
:100E00002C40337BE41850229E4902A8D047132C73
:100E1000F1D8A40002ABE05801A900234B70CB70BD
:100E20008B7001330B70C0B2974B9847E3E7F4899E
:100E30005022944902A8924B9847132C13D9737DE2
:100E40009B00DBB242461370B37DDB017278134323
:100E5000DBB2424653703379342B00D97BE19B00DF
:100E60008A4AD3589F46A40002ABE05801A9002348
:100E70004B70CB708B7001330B70C0B2824B9847B4
:100E8000DDE7347B50227F4902A87D4B9847132C25
:100E900015D9F48950227B4902A8794B9847132C25
:100EA000CDD8A40002ABE05801A900234B70CB7051
:100EB0008B7001330B70C0B2734B9847BFE7A4002F
:100EC00002ABE05801A900234B70CB708B7001334B
:100ED0000B70C0B26C4B9847DBE70423102402214F
:100EE0001AE0717C337C102416E0062310240121C3
:100EF00012E00823102400210EE0002330240021FA
:100F00000AE000232024002106E000230024002121
:100F100002E0022310240121090170220A40134338
:100F200042469370F37D17203F2B00D91BE7D37007
:100F30003A68537E5BB2002BFBDBF37C7288134371
:100F40002422B25CD2001343327D92001343B27C60
:100F500052001343234342469380337E002B20D01C
:100F6000102C00D1D9E000D898E0202C00D1B6E0B8
:100F7000302C16D1F27C002A0AD0F2698032172078
:100F8000FF2A00D9EFE6326A8032FF2A00D9EAE66A
:100F90001720F269FF2A00DDE5E6326AFF2A00DD4C
:100FA000E1E639684A7E52B2002AFBDB4246137200
:100FB0003A68537E5BB2002BFBDBB38B42469383D4
:100FC0003A68537E5BB2002BFBDB338C42461384C2
:100FD0002C23F35C002B05D0013BDBB217200F2B39
:100FE00000D9C0E62B22B15C17200F2900D9BAE640
:100FF0003868427E52B2002AFBDBF289307B024322
:10100000B068024309050A431B04134342461361B7
:101010002A23F35C13750F2393751533F35C002BB0
:1010200012D0F38C1A4A1720934200D99BE642460D
:101030009384328D80231B01D31815499BB28B42B8
:1010400000D990E64346DA84124B1B685B01E0222C
:10105000D2001340104A516849011268D20E0A4367
:10106000D2B213434246138500207CE600040040C0
:1010700000080040880200201D2D0000912C000077
:1010800085510000F05A0000152E00001C5A000087
:10109000FF0F00002460800020608000002C00D042
:1010A0007FE7F27C002A0FD0F269802109018C468B
:1010B00062442A4917208A4200D954E6326A6244BF
:1010C00026498A4200D94EE6244A1720F169914206
:1010D00000DD48E6316A914200DD44E661E7F27CDA
:1010E000002A0FD0F269802189008C4662441C4995
:1010F00017208A4200D936E6326A624418498A4289
:1011000000D930E6164A1720F169914200DD2AE63F
:10111000316A914200DD26E643E7F27C002A0FD0D7
:10112000F269802109028C4662440E4917208A42E6
:1011300000D918E6326A62440A498A4200D912E6A6
:10114000084A1720F169914200DD0CE6316A9142AC
:1011500000DD08E625E7172005E6C046FF0F000082
:10116000FF030000FFFF000070B52E4B1C682368D2
:101170001D7EEDB2EA0705D5E27ED20702D5A27E3A
:10118000D20716D46B0708D5042322681376E37EB2
:101190009B0702D5A37E9B073CD4AB0708D502234F
:1011A00022681376E37E5B0702D5A37E5B0735D406
:1011B00070BD01221A762268537E5BB2002BFBDBE6
:1011C00061698B1C6361538B9BB20B80238B013B4A
:1011D0009BB22383002B11D0637F002BD2D02268D7
:1011E000537E5BB2002BFBDB137B02210B4313739B
:1011F0002268537E5BB2002BFBDBC3E7237F052B0A
:10120000C0D1002323770133226893752000A3689F
:101210009847B7E72000E3689847BEE723692000B6
:101220009847C5E7880200200368D879C00970474D
:101230000023037001224270837003714371C370F5
:1012400083717047F0B5C64600B582B00500140042
:1012500001602A4A106A8023DB02034313620B7881
:101260001C209B0703D502B004BC9046F0BD0B7850
:101270001738DB07F7D401A9E3780B701C30204B3B
:10128000984721201F4B984700266B465E70DE7002
:1012900001236A4613709670694602201A4B9847DC
:1012A0002B68984663782B71AE71A3795A1E9341CF
:1012B0009B002678A278002A01D0042216432279C6
:1012C000002A01D0102216436279002A01D0082298
:1012D0001643DBB2424613700C4F2800B847002873
:1012E000FBD1F6B243465E7023786B7100236B61CD
:1012F000AB61EB61064B1D60B5E7C04600040040E2
:101300001D2D0000912C0000152E00002912000058
:101310008C02002070B504000668737802791343CC
:101320007370094D2000A8470028FBD133780222B2
:10133000134333706379002B04D1044A136C0421E6
:101340000B43136470BDC046291200000008004022
:10135000F8B5040017000668064D2000A8470028CD
:10136000FBD1A379002B02D137810020F8BDB781D2
:10137000FBE7C0462912000070B5274B1C682568A2
:10138000AB79DB0707D50123AB712300143302D0FF
:10139000637C002B31D1AB799B0738D50223AB712D
:1013A000A3899BB2002B2CD0E3899BB25A1C92B22A
:1013B000E2815B00A268944663441B889BB2AB81C8
:1013C000A389013B9BB2A381A3899BB2002B18D1B7
:1013D00000222033E2541E3B2B71AB718021890423
:1013E0007E330E4AD1502300143310D0A37C002B3F
:1013F0000AD00020E369984706E00020A3699847D7
:10140000C9E72300143302D0237C002B00D170BD28
:10141000636900209847FAE78C02002000E100E0B1
:1014200000B583B001AB80221A700A785A704A78EE
:101430009A708A78DA701900014B984703B000BDA2
:10144000152E000001680722CB691A42FCD17047B3
:10145000F0B5DE4657464E464546E0B58BB0050032
:101460000F001600296008009B4B98479B4A116AA1
:10147000841C0123A3400B43136209A9337B0B7027
:101480001430C4B22000964B98472000954B9847E3
:10149000307B0021944B98473B681C209B0706D566
:1014A0000BB03CBC90469946A246AB46F0BD3B68AB
:1014B0001738DB07F4D42868874B9946984704000F
:1014C0008A498B4B9847A4008A4BE55000232B7622
:1014D0006B7600246B83AB832522AC542B621433D0
:1014E0003B602B6898461800C8478146802308AAAD
:1014F0001370547001239370D470F069376A002818
:1015000000D1A7E008AB1870022308AA5370000CA2
:10151000C0B21100784B9847002F00D19FE008AB74
:101520001F70022308AA53703F0CF8B21100724BCF
:101530009847B38AEB80F38A2B81337E8022002B7D
:1015400004D16E4B9B789B07DB0FDA01B1683369DE
:101550000B4313432422B25C002A02D08022D2051E
:101560001343B26A13432C22B25C002A03D18022B7
:101570009204914202D18022120513432D22B25CC3
:10158000002A02D08022120413432E22B25C002AC9
:1015900002D08022D20313434246126813434246CC
:1015A000136080235B00536048461430C0B2544B34
:1015B000984705000790FA27BF0033685F437368B8
:1015C0009A46504CA047029003917800A0470090A3
:1015D0000191308E6843A0474B4B9B464B4A4C4B86
:1015E000D8474C4D00224C4BA84704900591380039
:1015F000A04702000B0004980599D84702000B0091
:10160000464C02980399A047009A019BA8470022E4
:10161000434BA047009A019B424CA047424B98473E
:10162000040080239B04B2689A421ED0030040202D
:10163000FF2C00D934E700260020FF241C4036068A
:1016400034430004FF231B04184004434346DC607A
:10165000002025E700214046344B984752E70121FE
:101660004046324B9847070059E7FA27BF005346D8
:101670005F430298039902000B00A8470090019174
:101680003800204B98470022294BD84702000B0016
:1016900000980199234EB0470022214B1F4EB047BE
:1016A000214B9847061E0CD039000798214B9847CC
:1016B0000238801B2300FF2C0CD8FF28BDD9402006
:1016C000EEE67900481E079B9C466044194B9847FC
:1016D0000138EFE74020E3E68D20000000040040E1
:1016E0001D2D0000912C0000451F0000611B000013
:1016F0009126000090020020152E000000200041DD
:10170000392D000091500000FD44000095D626E8D8
:101710000B2E113E7538000000002440FD490000EA
:101720000000F03F953E000029500000911F00008E
:10173000000008403535000003681A7E920707D57F
:1017400002221A765B8B9B074120DB1718407047FB
:101750005A8B520706D55968C02292020A435A6032
:101760001820F4E70020F2E730B5026800230124D6
:101770000225117E21420BD1117E294206D101336F
:101780009BB201899942F4D8122002E0002000E0C7
:10179000002030BD10B5046862688023DB0213436B
:1017A00063606162024B98470123237610BDC046F7
:1017B00069170000F0B5DE4657464E464546E0B58F
:1017C00083B00600894605684C882B681B01DB0F37
:1017D0009A464B7A002B2BD16B68584A13406B60AA
:1017E0004B461B7A002B27D14B461B885B004A4691
:1017F000527A92031343012213436B623000504B21
:10180000984701905346002B03D04B465B88012B31
:101810003BD06B68494A13406B60019B002B3AD068
:10182000019803B03CBC90469946A246AB46F0BD39
:10183000897A444B9847CFE74B461B885B004A4662
:10184000527A920313438022120213436B623000D8
:101850003B4B984701906B68384A13406B600028F7
:10186000DED13000384B984701900028D8D14B4644
:101870001B881B0A782213435B004A46527A920364
:1018800001210A4313436B62B8E76A688023DB02D5
:1018900013436B60C1E730002B4B98470190002841
:1018A000BED1013CA4B28046284B9B4615E0012CDA
:1018B00020D03000264B984743465F1CBFB22823F8
:1018C000EB5C4A4652684146535430001C4B9847E3
:1018D000013CA4B2002815D1B8465C4514D06B8BEE
:1018E0009B0627D5F37A002BE3D05346002BDED19D
:1018F000002CDED16A688023DB0213436B60013C5D
:10190000A4B2EAE7B8460190B37A002B09D13000BF
:101910000F4B98472823EA5C4B465B6841465A5474
:101920007EE730000A4B98476A68C0239B02134346
:101930006B60ECE74123019372E7C046FFFFFBFFBA
:10194000691700009517000039170000FFFF00001D
:1019500045140000F0B5DE4657464E464546E0B514
:1019600083B006000F0005684C88324B98477B7A9D
:10197000002B1DD16B68304A13406B603B7A002B03
:101980001BD03B885B007A7A9203134380221202B9
:1019900013436B623000294B98470190002813D005
:1019A000019803B03CBC90469946A246AB46F0BDB8
:1019B000B97A3000224B9847DCE73B885B007A7AA3
:1019C000920313436B62E5E730001E4B9847031EFA
:1019D0000190E5D1A046002420339946154B9B4643
:1019E000164B9A46444515D06B8B4A4613421DD080
:1019F0003000D8477B681A5D2823EA543000D0476E
:101A0000002806D16B8B01345B07EBD51E230193B5
:101A100000E00190B37A002BC2D03000054B98470C
:101A20006A68C0239B0213436B60B9E741230193AB
:101A3000B6E7C04645140000FFFFFBFF6917000032
:101A4000951700003917000010B5838B9BB2052253
:101A5000002B01D0100010BD01338372C372024B02
:101A600098470200F6E7C046B517000010B5838B13
:101A70009BB20522002B01D0100010BD01338372F0
:101A8000C372024B98470200F6E7C04655190000A2
:101A900001680722CB691A42FCD1704770B5040077
:101AA00006683268458B838BED1AADB2838B013BA0
:101AB0009BB2838313011DD5C37A002B03D0838B84
:101AC0009BB2012B10D0A38B9BB2002B02D1A37A27
:101AD000002B1CD12000124B9847236A5D19282344
:101AE000F35CDBB22B7070BD72688023DB021343A2
:101AF0007360E8E7C37A002BE5D0838B9BB2002BA1
:101B0000E1D172688023DB0213437360DBE72000BE
:101B1000034B98477268C0239B0213437360D9E755
:101B2000911A000070B5040005686B8B5B0703D544
:101B30001E222523C25470BD468B838BF61AB6B283
:101B4000838B013B9BB28383044B9847236A9E1986
:101B50003378DBB22822AB54EDE7C046911A00007F
:101B600070B58000754BC45825682B681B01DA0FCF
:101B7000637E267E1E40638B9BB2002B03D1A38B1A
:101B80009BB2002B23D1638B9BB2002B08D0A38B7D
:101B90009BB2002B04D12533E35C052B00D16DE013
:101BA000638B9BB2002B24D0A38B9BB2002B20D045
:101BB0006B8B9B0600D581E0002A04D0A38B9BB2DF
:101BC000012B00D17AE041222523E25411E02B7E43
:101BD000DB0707D501232B766B8B9B072ED5412284
:101BE0002523E254A38B9BB263832523E35C052B5F
:101BF00038D0638B9BB2002B07D0A38B9BB2002BFA
:101C000003D12533E35C052B64D02523E35C052B4E
:101C100013D02523E35C002B0FD003232B75002367
:101C20006383A3832533E35C412B03D0A37A002B8A
:101C300000D075E0730700D57BE070BD6B8B5B0750
:101C4000D0D518222523E2540023A383A37A002BA6
:101C5000C8D020003A4B98476A68C0239B021343C0
:101C60006B60BFE71F33E35C002B03D02000354BD4
:101C70009847BEE72000344B9847BAE71F33E35C30
:101C8000002B00D08CE703332B75002363832533AF
:101C90000022E254A37A002B07D101232B76F3070D
:101CA000A7D5E36820009847A3E72000244B984776
:101CB0006A68C0239B0213436B60F0E72423E35C54
:101CC000002B03D12000204B984792E720001D4BAA
:101CD00098478EE71F33E35C012B96D12B7E9B0741
:101CE00001D502232B7603232B7500236383253331
:101CF0000022E254B30703D52423E35C012B0BD06D
:101D0000F30700D481E72423E35C002B00D07CE7B9
:101D1000E3682000984778E723692000984774E734
:101D20002000074B98476A68E023DB0213436B608F
:101D300080E76369200098477FE7C0469002002053
:101D4000911A00009D1A0000251B000010B54908DB
:101D500040230024814202D2180010BD1C00091A41
:101D6000631C9BB28842F9D94023FF2CF4D814801D
:101D70000023F1E7F0B5DE4657464E464546E0B54E
:101D800089B00C00059212AA117805004D4340223B
:101D9000A54207D9100009B03CBC90469946A2461E
:101DA000AB46F0BD002B55D1020008000021634D69
:101DB000A8478346260000270023002400930194AF
:101DC000002200233F2020218C461F3902960397D2
:101DD00014E06446241A0D00E540A84615E0029C74
:101DE000039D121BAB414D46009E019F35433C00B5
:101DF000464634430095019401381DD320246442A3
:101E00000419E6D40D00A540A8460C008440A14664
:101E100092185B4114001D0046465F463E4203D0C7
:101E20000E00264332002B00029C039D9D42E3D806
:101E3000D5D19442E0D8D2E700220123009801993D
:101E4000121A8B411900130C0A041A43059B1A80BD
:101E500000229FE70022012BF8D1630F0493E300D7
:101E600098460A0000230021344CA04704000D00CE
:101E700000239C46069320339B4601266346079326
:101E800048E05946C91B3000C840824610E000981F
:101E90000199121A8B410299484601430291013F70
:101EA00025D3202149427918EBD43000884082465E
:101EB0003100B940894692185B4110001900444630
:101EC0004D462C40A4465446049D2C40A2466446F0
:101ED00055462C4303D03400044322000B000098E5
:101EE00001999942DBD8D2D19042D8D8CFE7009C53
:101EF000019D0299079A8B1ADB0811498B4214D96C
:101F0000069B0133DBB219000693130001330793DC
:101F1000082908D000230293002200233F210094C7
:101F200001950F00BDE7402234E7402206990829B9
:101F300000D12FE74A031A4388E7C0462138000042
:101F4000FF1F000010B582B004000E4B1B78002B61
:101F500007D0002905D10B4B5B78834210D01D20A0
:101F60000CE001A90C701320074B98471320074B76
:101F70009847044B5C7001221A70002002B010BD1B
:101F80000020FBE7A40000201D2D0000912C000084
:101F90002B4B984223D00FD92A4B98422FD02A4B53
:101FA000984242D101293AD0002946D0022938D09E
:101FB000032938D0002039E0244B984235D101293B
:101FC00007D0002933D0022905D0032905D00020ED
:101FD0002CE01F482AE01F4828E01F4826E001297E
:101FE00007D0002925D0022905D0032905D00020DB
:101FF0001CE01A481AE01A4818E01A4816E00129AD
:1020000007D0002917D0022905D0032905D00020C8
:102010000CE015480AE0154808E0154806E01548A8
:1020200004E0154802E0154800E00020704714481D
:10203000FCE70320FAE71348F8E71348F6E7C04641
:10204000000C004200100042001400420008004250
:102050000300050003000600030007000300010061
:1020600003001E0003001F000300090003000A0014
:1020700003000B0003001100030012000300130013
:1020800003000400030008000300100030B585B011
:102090006A460F4B32CB32C21B6813600300009AB2
:1020A000824211D0019A82420AD0029A824209D019
:1020B0000020039A9A4201D005B030BD033004E0FD
:1020C000012002E0022000E00020C0B2F4E7C04698
:1020D000405B0000F0B5DE4657464E464546E0B54B
:1020E00091B005000C00160029600800BB4B984712
:1020F000020023680520DB0706D511B03CBC9046E2
:102100009946A246AB46F0BD236817309B07F4D42E
:10211000B349086A971C0123BB4003430B620FA914
:102120002D27F35D0B701432D3B202931800AD4B20
:1021300098470298AC4B9847F05D0021AB4B98470D
:10214000F37A6B712423F35CAB712523F35CEB71A1
:10215000F37E2B72337F6B722B68984618009F4B6F
:102160009847143000220E2306A98C4663441A8037
:10217000328A02928023DB019A4200D19CE00FD97F
:10218000C023DB01029A9A4200D190E080231B0217
:102190009A4200D01DE1032306930023079308E031
:1021A00080239B019A4200D013E1102306930F3B3A
:1021B000079333680593F3689B4673690393337EF3
:1021C00004932623F35C9A4673689946002B00D14A
:1021D0009EE080235B05994500D182E0737E002B51
:1021E00002D0B37E424693732A68029FD369002BC4
:1021F000FCD10E3306AA944663441B884246938161
:10220000059B5A461343039A13434A4613431F43FD
:10221000049B1B021F4353465B071F432723F35CAA
:10222000002B01D104331F43737E9B02327F520285
:102230001343727F120213432422B25C52041343ED
:102240002522B25C12041343F17A19433389FF2B20
:1022500000D181E080225204174319432C23F35C00
:10226000002B03D1624B9B789B0701D580231F4332
:102270002A68D369002BFCD1434659602A68D36988
:10228000002BFCD143461F600EAB80221A70002247
:102290005A70DA709A70336B0A93736B0B93B36B4B
:1022A0000C93F36B02930D9300270AAE63E00823AF
:1022B0000693073B07937CE733680593F3689B46D7
:1022C00073690393337E04932623F35C9A46736801
:1022D0009946002B18D080235B05994501D000203A
:1022E00025E02723F35C002B00D077E7336A1F003B
:1022F000C0B2404B984701000E2206AB9C46624498
:1023000038003D4B984712E00823069300230793BB
:102310002723F35C002B0ED0069B0093079B0E2215
:1023200006A98C466244B16A306A344FB847002827
:1023300000D0E2E652E7336A1F00C0B22D4B984747
:102340000100069B0093079B0E2206A88446624468
:1023500038002A4FB847EAE7F37E002B00D17DE72B
:102360008023DB041F4379E72000254B984707E0D3
:102370000137042F0DD0F9B2BB0098590028F3D0D3
:10238000431CF5D00EA90870000CC0B21D4B984735
:10239000EEE70023EB602B616B61AB61EB612B62BD
:1023A000AB626B620022EB85AB853033EA540133BC
:1023B000EA540133EA540133EA542868074B98473A
:1023C00004001149114B9847A400114BE55000201F
:1023D00093E61023069300230793EAE68D2000007E
:1023E000000400401D2D0000912C0000451F00003E
:1023F00000200041392D00004D1D0000751D00001A
:10240000911F0000152E0000F92400009126000005
:1024100090020020F8B506000C00150007680A4B72
:102420009847F38D9BB2002B03D0084B98470520AB
:10243000F8BDF585054B9847B46205223323F25465
:10244000323BBB750020F3E799270000D927000035
:10245000F8B504000D00160007680F4B9847A38DD0
:102460009BB2002B03D00D4B98470520F8BDA685E5
:102470000A4B9847656205223223E2542E3BBB7516
:10248000237A002B01D02023BB75637A0020002B18
:10249000ECD00823BB75E9E799270000D927000095
:1024A000931C9B00C31859603021012393401A00EC
:1024B000435C13434354704710B51723002A01D1DE
:1024C000180010BDC4790533002CF9D0014B984792
:1024D0000300F5E71524000010B51723002A01D1E9
:1024E000180010BD84790533002CF9D0014B9847B2
:1024F0000300F5E751240000F8B58000624BC55891
:102500002C68E369002BFCD1237EA67D1E4030237E
:10251000EB5C3122AF5C1F40F30722D5EB8D9BB201
:10252000002B1CD0AA6A1378DBB2511CA96269790E
:1025300001290ED09BB2DB05DB0D2385EB8D013B22
:102540009BB2EB85002B0CD1013323750133A375AE
:1025500007E0517809020B430232AA62EBE701233C
:102560002375B30706D50223237500223133EA54BD
:10257000FB071AD4730765D5AB8D9BB2002B5FD0D8
:10258000638BDBB21A0714D43F221340002B34D0E4
:102590009A0711D51A223223EA54303B63837B0712
:1025A00050D528006B6998474CE02800EB689847A5
:1025B000E0E737221340E9E75A0705D51E22322308
:1025C000EA542E3B6383EAE7DA0705D51322322368
:1025D000EA54313B6383E2E7DA0605D5422232232F
:1025E000EA54223B6383DAE720221A42D7D0213211
:1025F0003223EA54123B6383D1E7238DDB05DB0DE5
:10260000DAB2696A0A706A6A511C696269790129D9
:1026100010D0AB8D013B9BB2AB85002B12D10433A4
:10262000237500222E33EA54BB070BD528002B69F3
:10263000984707E01B0A53706B6A01336B62E8E747
:1026400004232375F30604D5102323752376FB0694
:102650000ED4B30604D52023237523763B070BD471
:10266000330704D5082323752376BB0608D4F8BDA9
:102670002800EB699847ECE72800AB699847EFE73B
:102680002B6A28009847F2E790020020704700006C
:1026900030B50B4B1B78002B0ED10A4C0A4D256030
:1026A0000A4B00221A6065605A60A5609A60E56076
:1026B000DA600132024B1A708000024BC15030BD0B
:1026C000A6000020A80000208D2600009002002017
:1026D00010B582B001AC092323700133637001335C
:1026E000A3700133E370024B9847205602B010BD2F
:1026F0008D20000010B5024B1B680020984710BDCC
:10270000A800002010B5024B5B680120984710BD5F
:10271000A800002010B5024B9B680220984710BD0E
:10272000A800002010B5024BDB680320984710BDBD
:10273000A8000020F0B583B001AC0123637000272E
:10274000A770237021000E20114DA847114E802341
:10275000DB01736121000F20A84780231B027361F6
:1027600021000120A8470223B36121000320A847CC
:102770000823B36121000A20A8478023DB0073618E
:102780002770677021001820A84703B0F0BDC0462D
:1027900021140000004400410C4B1B68002B06D1A3
:1027A000EFF31083002B07D00022094B1A70074A61
:1027B000136801331360704772B6BFF35F8F002256
:1027C000044B1A700132024B1A70F0E7B800002077
:1027D000BC00002014000020084B1A68013A1A605F
:1027E0001B68002B09D1064B1B78002B05D001225A
:1027F000044B1A70BFF35F8F62B67047B8000020B9
:10280000BC0000201400002010B5082803D8800068
:102810001B4B1B589F46002030E01A4B18692DE0D7
:10282000194B1B6A9B059B0F1848D84026E0154B97
:10283000586923E0134B1B6800209B071ED51249E3
:102840001022CB681A42FCD00E4B1B685B0701D4E8
:102850000F4813E000200F4B98470A4B9B681B045E
:102860001B0C58430AE05023074AD35C00205B0747
:1028700004D5044BD86801E08020000210BDC0469A
:10288000505B0000C00000200008004000127A00E9
:10289000006CDC02392D000070B50C490B6A04781D
:1028A000857840780122104080014026B3430343DD
:1028B0002A40D20180208343134303222240120284
:1028C0000348034013430B6270BDC046000800403C
:1028D000FFFCFFFFF0B5CE46474680B5194B994641
:1028E0009B6941788C4605780679C7784479807869
:1028F00001210840800004229343034360460840BE
:10290000C00004329343034338000840800140274D
:10291000BB43034330000840C0018026B343034358
:10292000072005402D02084803402B43214009039E
:10293000064803400B434A4693610CBC90469946B7
:10294000F0BDC04600080040FFF8FFFFFFEFFFFFAB
:10295000082803D88000254B1B589F46172044E0C9
:10296000234A136A02210B43136200203DE0204AF0
:10297000936902210B439361002036E01C4A138ABD
:1029800002210B43138200202FE0194A938A02216F
:102990000B439382002028E016490B680222134360
:1029A0000B60134B9A8419000E32CB681A42FCD08C
:1029B000104A91680E4BD96252689A6200229A843A
:1029C00019001032CB681A42FCD00A4B1B689BB22C
:1029D000074A9384002008E0054944228B5C0220CA
:1029E00003438B54002000E000207047745B00001C
:1029F00000080040C0000020F0B587B0C222D2001D
:102A00002C4B9A602C4A53681E218B435360012340
:102A10006A4613700024294DE0B26946A847013484
:102A2000252CF9D1264B1B68DB0422498A695B0EF1
:102A30001B042448024013438B6104A80125457000
:102A400085700024C47005710723037044711E4B08
:102A5000984704201D4EB04703A844708570047049
:102A60001B4B98470620B0471A4B98476B465C7043
:102A70001C725C7204236A4613701C33019369460E
:102A80000220154FB8470220144EB047144B1C7259
:102A90005C729C72DC7201956B465C7006236A4620
:102AA00013701472547269460020B8470020B04772
:102AB00007B0F0BD00080040004000411D2D00009F
:102AC00024608000FFFF80FFD5280000512900000E
:102AD00099280000E52A0000092B0000C12B000006
:102AE00000040040064A936908210B4393610122C8
:102AF000044B1A7019000B781342FCD17047C04682
:102B000000040040000C004070B5060004000D7881
:102B10002D0205434B78002B02D08023DB021D439E
:102B20004B7A002B02D080231B031D4348680128E9
:102B300010D9431E184234D1022830D90223002272
:102B400001325B009842FBD812023243140080230A
:102B50005B031D430B7A002B02D080239B031D4394
:102B6000134A53785BB2002BFBDB124B9847124B96
:102B70001E700F4A53785BB2002BFBDB0C4B9C6042
:102B80001A0053785BB2002BFBDB094A53688021A3
:102B900049020B401D435560084B984770BD002209
:102BA000D2E70402344380239B021D43D2E7C04690
:102BB000000C004099270000080C0040D9270000B5
:102BC00010B504000B4A53785BB2002BFBDB0A4BB9
:102BD00098470A4B1C70074A53785BB2002BFBDB0B
:102BE000044A516880235B020B435360044B9847AF
:102BF00010BDC046000C004099270000040C0040A6
:102C0000D927000070B504001A4A53785BB2002B34
:102C1000FBDB194B9847194B1C70164A53785BB273
:102C2000002BFBDB134E7068C004C00E144B98479A
:102C30000500124B1C707668F602F60F114B1C70E3
:102C40000C4A53785BB2002BFBDB0A4B9C682402D6
:102C5000240C0D4B9847002E07D1012C07D92100D9
:102C600028000A4B9847050001E00134E5402800A0
:102C700070BDC046000C004099270000040C0040C5
:102C800009280000080C0040D92700003535000055
:102C900010B50400064B9847064B1C70064A538833
:102CA0008021C9010B435380044B984710BDC04697
:102CB00099270000020C0040000C0040D9270000BA
:102CC00010B504000F4B98470F4B1C700F4A5388E8
:102CD0001B05180F53880E490B40538053880D492C
:102CE0000B40538011008022D2014B881342FCD14B
:102CF00006494A8803020648024013434B80064BAC
:102D0000984710BD99270000020C0040000C0040BD
:102D1000FFF0FFFFFFBFFFFFD927000010B50C78C1
:102D200024020443024B9847A4B2024B5C8010BDBE
:102D3000C12C0000000C004010B50400064B984761
:102D4000064B1C70064B5C882405240F054B9847E6
:102D50002000054B984710BD99270000020C004049
:102D6000000C0040D9270000052C000030B5D378B6
:102D7000002B35D11378802B29D01B0680246402C8
:102D8000234354780225AC4306D19478002C20D1FB
:102D90008024A402234341605478013C012C1CD9B7
:102DA0000D042D0CA024E4052C431C4384620D0C5F
:102DB000D02424062C431C438462D478002C22D1D6
:102DC0005B031CD59378012B1ED0416117E00023D3
:102DD000D7E7C024E4022343DDE70D4C2340DFE7BF
:102DE00041600C04240CA023DB05234383620C0CFC
:102DF000D0231B0623438362D378002B03D153785F
:102E0000013B012B02D930BD8161F8E78160FAE70F
:102E1000FFFFFBFF10B50A00C1090023002904D100
:102E20004309DB0105498C4663441F2420400121EE
:102E300081401800024B984710BDC0460044004135
:102E40006D2D00007047000010B5054B9847054BED
:102E50009847054B9847054B9847054B984710BD39
:102E6000F929000035270000452E000081010000EF
:102E7000452E0000FEE70000F8B52A4A2A4B9A4288
:102E800011D01A00294B9A420DD2294A03339B1ABA
:102E90009B0801339B000022234822498C58845010
:102EA00004329A42FAD1234A234B9A420AD2D3439C
:102EB00021495B1803218B4304339B18002102C274
:102EC0009342FCD11D4AFF211D4B8B439360FD397A
:102ED00090235B001B4AD1501B4AD3780325AB4398
:102EE00002242343D370D3780C27BB4308263343F3
:102EF000D370164B987B3022904320221043987356
:102F0000997BB943314399739A7BAA4322439A73BD
:102F10000F4A536880210B4353600E4B98470E4B6A
:102F20009847FEE7F05C0000000000207C000020D5
:102F3000040000207C000020A402002000ED00E03E
:102F400000000000007000410050004100480041B6
:102F5000004000413D510000153300000300064AC7
:102F60001268002A04D0044A1068C318136070471E
:102F70000249014A1160F6E7D8000020A82200208B
:102F800030B583B0204B98470125204B1D70BFF30F
:102F90005F8F62B6802212021D4BDA611D4B98478B
:102FA0001D4B98471D4B98471D4B1D701D4B1D70A9
:102FB00003225A7007325A8000249C725A329A8037
:102FC000DC22FF32DA80184A1A81184B98470194A4
:102FD0000094174B9847694601A8164B9847164B23
:102FE0009847164B9847694601A8154B9847154BCB
:102FF0001C705D709C70144B9847694601A8134B78
:10300000984703B030BDC0462D05000014000020D5
:103010000044004125020000F90200006D0A000092
:103020002801002078010020B80B00007D0C000072
:10303000390800002D090000F90800009908000077
:10304000C5090000F40100205D0B0000110C000018
:10305000014B18707047C04678010020014B587032
:103060007047C04678010020014BD8807047C046A9
:1030700078010020014B58807047C046780100203D
:10308000074A01231370DC21FF31D18005491181EA
:103090000549064A1160064A1370064A13707047C4
:1030A00078010020B80B0000E10C0000BC010020FA
:1030B00068010020840100200022034B1A700132B5
:1030C000024B1A707047C04668010020840100203E
:1030D00010B5154B1868154B9847154B1989154BAA
:1030E000984700290CD1124B1B78012B09D0032BD8
:1030F00014D0114B98470C4B186001200F4B984788
:1031000010BD0B4B03221A7002325A70DC22FF32C0
:10311000DA8000229A720A4A1A81EAE7044B0122F5
:103120001A70084A1A81E4E7BC010020ED0C000087
:103130007801002041360000E10C00006D05000020
:10314000DC050000B80B00000F4B987A00280CD06B
:103150001A009B8801339BB29380D288013A934234
:103160000FDB0022084B9A720AE0074A9388013B62
:103170009BB29380632B03D80122034B9A720120E8
:1031800070470020FCE7C0467801002010B50028F9
:1031900003D10020034B984710BD034BD888014B47
:1031A0009847F9E7A50A00007801002010B5184BF0
:1031B0001B78012B1ED0002B20D0164B1868164B05
:1031C0009847134B5B789900C918144B984700290E
:1031D00017D1134B98470F4B18600D4B1B78022BE0
:1031E00010D0104B984700280BD0094B987A0E4B03
:1031F000984706E001200C4B984702E000200A4B5C
:10320000984710BD024B9888084B9847E9E7C0469D
:1032100078010020C4010020ED0C000041360000C0
:10322000E10C0000493100008D310000A50A0000CA
:103230000A4B1B78002B03D10122084B1A707047F0
:103240000023074A1370054A1370064B8022D201EF
:10325000DA6180221202DA61F1E7C046CC01002077
:10326000F70100200044004100B583B00023019322
:103270000093194B9847194B9847694601A8184B7A
:103280009847184B009A9A4213D9174B1B78002B7A
:1032900002D0009803B000BD0133134A13701349E4
:1032A0000B700A20124B98478022D200114B9A6172
:1032B000EFE70D4B1B78002BEBD000220A4B1A7066
:1032C0000A4901230B700A20094B98478022D2003B
:1032D000084B5A61DDE7C046F908000039080000D4
:1032E0002D090000F410000074010020F4010020FA
:1032F000211400000044004100B583B00023019375
:103300000093694601A8024B9847009803B000BD9E
:10331000110C000070B582B05E4B98475E4B984729
:1033200000235E4A13605E4A13605E4A13605E4A81
:1033300013605E495E4A11605E4A13605E4A136024
:103340005E4A137001215E4A11705E4A13705E4A34
:1033500013705E4A13705E4A13705E4A13705E4EBD
:103360005E4D5F4C29E05F4B984746E0574B1B781A
:10337000002B42D05C4B98473FE000224F4B1A7025
:10338000524B1A7859496846594B98470821684664
:10339000584B98470BE0584B9847404B1A68574991
:1033A0006846534B984708216846524B9847544B00
:1033B0009847434B1B78002B39D1B047A847A0470B
:1033C000504B1868504B9847FA2189004F4B98474B
:1033D0000029EED14E4B98474A4B186001204D4BC7
:1033E00098474D4B98472D4B18604C4B5B88984243
:1033F000BCD2364B1B78002BB5D0494B1B78002B29
:10340000D7D02E4B1B78002BB7D12E4B1B78002B1F
:10341000C1D000222B4B1A70404B1A7841496846A4
:10342000334B984708216846324B9847BFE73E4BDD
:103430001868354B98476421344B98470029BCD114
:10344000334B9847384B18600120324B9847374B25
:103450001B6ADB011AD5124B1B68272BADD8013331
:103460000F4A1360142BA8D10122164B1A702B4B54
:103470001B78002B04D12E4B1A78284B1A709CE72E
:103480002B4A13700022254B1A7096E70022044B3A
:103490001A6092E7492E0000812F00007001002081
:1034A0002C010020EC010020F8010020FFFF0F009C
:1034B000640100206C010020C8010020840100206C
:1034C00029010020CD0100207401002068010020A6
:1034D000C101002069010020AD310000450300005A
:1034E000D130000081300000B9300000985B00004E
:1034F000995100002D03000069320000B05B00000C
:1035000031320000F0010020ED0C000041360000D7
:10351000E10C00006D050000F93200007801002088
:10352000F7010020A45B0000E401002000440041FA
:1035300028010020002243088B4274D303098B42E8
:103540005FD3030A8B4244D3030B8B4228D3030C73
:103550008B420DD3FF22090212BA030C8B4202D315
:103560001212090265D0030B8B4219D300E0090A3D
:10357000C30B8B4201D3CB03C01A5241830B8B4246
:1035800001D38B03C01A5241430B8B4201D34B032F
:10359000C01A5241030B8B4201D30B03C01A524194
:1035A000C30A8B4201D3CB02C01A5241830A8B4219
:1035B00001D38B02C01A5241430A8B4201D34B0202
:1035C000C01A5241030A8B4201D30B02C01A524166
:1035D000CDD2C3098B4201D3CB01C01A524183091A
:1035E0008B4201D38B01C01A524143098B4201D354
:1035F0004B01C01A524103098B4201D30B01C01A7F
:103600005241C3088B4201D3CB00C01A52418308F8
:103610008B4201D38B00C01A524143088B4201D325
:103620004B00C01A5241411A00D201465241104685
:103630007047FFE701B5002000F0F0F802BDC0467A
:103640000029F7D076E7704703460B437FD400226A
:1036500043088B4274D303098B425FD3030A8B4226
:1036600044D3030B8B4228D3030C8B420DD3FF2290
:10367000090212BA030C8B4202D31212090265D05E
:10368000030B8B4219D300E0090AC30B8B4201D311
:10369000CB03C01A5241830B8B4201D38B03C01A58
:1036A0005241430B8B4201D34B03C01A5241030BCF
:1036B0008B4201D30B03C01A5241C30A8B4201D380
:1036C000CB02C01A5241830A8B4201D38B02C01A2B
:1036D0005241430A8B4201D34B02C01A5241030AA2
:1036E0008B4201D30B02C01A5241CDD2C3098B4287
:1036F00001D3CB01C01A524183098B4201D38B0104
:10370000C01A524143098B4201D34B01C01A5241A6
:1037100003098B4201D30B01C01A5241C3088B42EB
:1037200001D3CB00C01A524183088B4201D38B00D6
:10373000C01A524143088B4201D34B00C01A524178
:10374000411A00D201465241104670475DE0CA0F4F
:1037500000D04942031000D34042534000229C460F
:1037600003098B422DD3030A8B4212D3FC22890119
:1037700012BA030A8B420CD3890192118B4208D3EF
:10378000890192118B4204D389013AD0921100E051
:103790008909C3098B4201D3CB01C01A5241830965
:1037A0008B4201D38B01C01A524143098B4201D392
:1037B0004B01C01A524103098B4201D30B01C01ABD
:1037C0005241C3088B4201D3CB00C01A5241830837
:1037D0008B4201D38B00C01A5241D9D243088B428D
:1037E00001D34B00C01A5241411A00D20146634630
:1037F00052415B10104601D34042002B00D5494294
:10380000704763465B1000D3404201B5002000F0D2
:1038100005F802BD0029F8D016E770477047C0468A
:10382000F0B5CE46474615042D0C2E0080B5070492
:10383000140C3F0C9946030C7E435D43674363437E
:103840007F19340CE4199C46A54203D980235B02FE
:103850009846C4444B46514343433604360C250C2A
:1038600024046544A4195918491920000CBC904639
:103870009946F0BDF8B54546DE4657464E460C0320
:10388000E0B54E00C90F88460D00610A440F0C4395
:10389000C70019035800DB0F9B464B0A510F0B431F
:1038A000760D400D1900D200D84500D1AEE0351A92
:1038B000002D00DCF6E000280FD1134300D1DBE03F
:1038C0006B1E002B00D037E1BA1A9742BF41641A31
:1038D0007F42E41B0126170024E0C64B9E424DD0D8
:1038E00080231B041943382D00DD07E11F2D00DD67
:1038F00038E12020431B9A460B00504683409946EE
:1039000013004846EB401843030050468240501EC7
:103910008241E9401A43BA1A611A9742A44117003A
:1039200064420C1B230262D56402650A002D00D19B
:10393000DFE0280001F0E4FB0300083B1F2B00DD63
:10394000D2E020223C00D21A9D40D4409F40254323
:103950009E4200DDC4E09E1B731C1F2B00DDF1E0C6
:10396000202238002900D21AD840914097402C00DC
:103970000143781E8741DC4000260F437B0709D0B6
:103980000F233B40042B05D03B1DBB42BF417F4270
:10399000E4191F0023022CD5964B01369E4200D11C
:1039A0009AE04546944BFF081C4060077605640288
:1039B0000743240B760D00212403230B0C0D8F4AA3
:1039C00024051C431440330523435B00ED075B08CB
:1039D0002B43380019003CBC90469946A246AB46A2
:1039E000F8BD6446044300D111E2040067467B073A
:1039F000C6D145466007FF080743E4087D4B9E4259
:103A000030D024037605240B760DD4E7331A9A467A
:103A1000002B78DD002831D076488642AED0802059
:103A2000000401435346382B00DCE9E00A43511EF1
:103A30008A410021D219BA42BF4109197C421700BC
:103A40000C192302D3D56B4B01369E4200D13AE1CB
:103A50000120694B1C407B0807401F43E0070743D8
:103A600064088BE723003B4300D1CBE180221203A3
:103A700014432403240B9EE72E007FE70800104325
:103A800000D1B4E0581E002800D0DEE0BA18BA42D7
:103A90009B4164185B42E418170001262302A6D557
:103AA0000226D5E7002D6ED1701C4005400D01287F
:103AB00000DCF9E0B81A844687428041E51A4042AA
:103AC0002D1A280200D489E0D71BBA4292411C1B50
:103AD0005242A51AD84629E74546002400276AE73E
:103AE000454CF61A2C4049E73D0028388540002710
:103AF0002EE7380001F004FB20301DE70A43511E79
:103B00008A41002107E7002B00D0F3E0701C430539
:103B10005B0D012B00DCADE0364B984200D1D1E0CB
:103B2000BA18BA42BF4164187F42E419E707520845
:103B300017436408060021E72E48854200D193E030
:103B40001D00D0E629001F3EF140202B00D18DE062
:103B50004022D31A9D402F437D1EAF4100240F43C6
:103B6000002644E72B000800203BD8400300202D0E
:103B700000D17DE04020451BA9400A43511E8A41E7
:103B800000211A43C7E6002E50D01A4EB04257D03B
:103B900080266B429946360434434B46382B00DD71
:103BA000D6E01F2B00DD35E12026F51A2600AE40B9
:103BB000B2463E00DE40AC46350056462E436546D2
:103BC000AF407D1EAF41DC403743D71BBA42924124
:103BD0000C1B5242A41A0600D846A3E66446674668
:103BE0002C4300D0A2E600250026002706E71E0091
:103BF000C4E6C046FF070000FFFF7FFFFFFF0F8006
:103C00001F2B63DC2020C31A080098409C46834683
:103C100053461000D84003005846184363469A4064
:103C2000531E9A4153460243D94003E726003E43C0
:103C300006D0EB439946002BC7D0944EB042ACD18E
:103C40000C0017000600D84698E6904B9A450BD01A
:103C50008246E7E6002800D09EE01800104300D11D
:103C6000E9E01C001700D846884E87E6002572E779
:103C7000002182E723003B43002E00D0ABE0002B65
:103C800000D1E7E00B00134300D177E6BA18BA423F
:103C9000BF4164187F42E419230200D4F2E07C4B58
:103CA00017001C40060069E620003843002ED1D1E1
:103CB00000285BD11C00144300D1A8E01C001700B1
:103CC000D8465BE606000024002797E650460B0026
:103CD0002038C34099465346202B00D195E040231D
:103CE00050461B1A99400A43511E8A414B460021F7
:103CF0001A439FE6002E30D126003E4367D0DB43B7
:103D00009A46002B1CD0614EB04260D05346382BEF
:103D100000DD96E01F2B00DD9FE02026F31A260031
:103D20009E409C46B34653463E00DE4033005E460E
:103D30001E4363469F407B1E9F415346DC403743F2
:103D4000BF189742924164185242A418060078E6C0
:103D500027437C1EA741002437E74C4EB04236D0A3
:103D600080265B4236049A463443CFE7180010435E
:103D700000D103E6B81A84466745AD41E01A6D42AA
:103D8000401B050200D42CE6D71BBA4292411C1BF3
:103D90005242A41AD846F1E51800104300D163E757
:103DA000F808670707438020E4080003044208D0AE
:103DB000DD08054205D1D208590711430F002C0038
:103DC000D8467B0FE4001C43FF00304ED6E50C00C4
:103DD00017000600D2E5002B38D00B00134300D1AA
:103DE00042E7F808670707438020E408000304421D
:103DF000E7D0CB080342E4D1D208490711430F00B2
:103E00001C00DEE700270024D5E500216BE7002534
:103E10000027F3E54E462500203EF5404B462E0098
:103E2000202B2DD04025ED1AAC4027437C1EA74106
:103E300000243743C9E6802400252403134E0027BD
:103E4000DCE527437C1EA741002479E70C0017001E
:103E50000E4E93E50C00170090E556462300203ED9
:103E6000F34099465346202B0ED0402356469B1BC9
:103E70009C4027437C1EA7414B4600241F435FE71D
:103E80000024D2E71700B2E50024F2E7FF070000A4
:103E9000FFFF7FFFF0B557464546DE464E46E0B58C
:103EA0004C000E0387B0834692461D008046360BB9
:103EB000640DCF0F002C4FD06F4B9C4235D0802328
:103EC000420F1B04F600134333439946C300984640
:103ED0006A4B00269C460023644403932B031B0B70
:103EE0009B466B00ED0F50465B0D01955ED0624A1C
:103EF000934253D05A46D1008022400F120402430D
:103F00000A4393465246D1005C4A944600226344D9
:103F10003800684084460290E41A16430F2E00D9F8
:103F2000B4E0574BB6009B599F4603003343994674
:103F30006CD100239846023308260393CEE7CB4684
:103F40004146039A0197022A65D1019B4A4C9C463F
:103F50000023002298466BE00300334399464ED07D
:103F6000002E00D1BCE1300001F0CAF803000B3B89
:103F70001C2B00DDACE11D22D31A5A460100DA40A9
:103F800008398E401300334399465B468B40984670
:103F900000233C4C0026241A03939FE751465A46BF
:103FA000114329D1002293460232B1E75946014319
:103FB0001ED05B46002B00D19EE1584601F0A0F8D0
:103FC00003000B3B1C2B00DD8FE102005946083A31
:103FD00091408B461D21CB1A5146D9400B005946C2
:103FE0000B4351469B469140264B00221B1A8FE7FC
:103FF000002301229B468BE75146032288E70023DA
:104000009846013304260024039367E70323B1464F
:1040100003930C2662E7032A00D15CE2019B012A8C
:1040200000D0E4E113409C4600230024002298467F
:1040300000211203130B0A0D12051A432305124C1B
:1040400040462240134362465B00D2075B0813439D
:10405000190007B03CBC90469946A246AB46F0BD5D
:10406000002380229C4612039846034CE0E700237D
:10407000014C00229846DBE7FF07000001FCFFFF30
:10408000BC5B00000DFCFFFFFFFF0F80D94500D98E
:1040900039E100D134E1002346464D469A46013CC1
:1040A0005B460A0E1B021A430B02170C0393130400
:1040B0001B0C3900280090460193FFF73BFA0200E1
:1040C000019B83465A43280039009146FFF7B8FA0E
:1040D000350C09040D43A9450DD95B464544013B08
:1040E000A84500D93AE1A94500D837E102235B424F
:1040F0009C464544E3444B46EB1A390018000493B0
:10410000FFF718FA019B05004343390004989946CC
:10411000FFF796FA330409041B0C0B43994509D9A0
:1041200043446A1E984500D91AE1994500D817E121
:10413000023D43444A469B1A5A4612042A430399B5
:104140009346100C0A0C914609045A46090C4E4637
:104150000D001204120C4543059151437243704304
:1041600052190E0CB218954203D980256D02AC4647
:104170006044150C09041204090C281852188342D3
:1041800000D2CEE000D1C8E01D1A53469E1AB245B7
:1041900092415242AB1A9A46984500D117E1390034
:1041A0001800FFF7C7F9019B05004343390050464B
:1041B0000493FFF745FA04980B04310C1943884225
:1041C00009D941446B1E884500D907E1884200D8CF
:1041D00004E1023D4144049BCB1A180039000493CA
:1041E000FFF7A8F9019B82464343390004980193E5
:1041F000FFF726FA01980B043104090C1943884291
:104200000DD953464144013B884500D9E8E0884236
:1042100000D8E5E002235B429C464144E244019B16
:104220002D04CE1A51462943059D4F462A000B0402
:10423000080C1B0C5A4345437B4378435B19170C0E
:10424000FB189D4203D980256D02AC4660441D0CCD
:1042500012041B04120C28189B18864200D293E00B
:1042600000D18EE001231943A04BE318002B00DCA2
:1042700099E04A0700D09EE05A46D20106D55A4638
:104280009B4B1A4080239346DB00E318994A9342E4
:1042900068DD0123029A984C1A4000239446984600
:1042A0000022C5E680224B46120313420AD05B4629
:1042B000134206D11A431203120BAC4688468E4CA9
:1042C000B6E64B461A431203120BBC468A4CAFE6C5
:1042D00003005A46283B9A4000239146984657E6E9
:1042E000584600F00DFF203040E603005246283BC0
:1042F0009A400021934677E600F002FF20305FE607
:10430000884500D2C7E64B46DE075D0843465B089A
:104310001E434346DB079A46C2E60025924500D37A
:1043200033E7039E5946B446E244B245AD416D427F
:104330004544EB180139984507D2984200D97FE0EF
:1043400000D1BCE01D1A8B461FE79845FAD1039DAA
:104350005545F2D943468B461D1A16E79B46CAE6D9
:104360001500E7E65A46C90852070A435B0590461E
:104370005C0D5A460123029952021940120B8C46D9
:1043800056E6002B00D16FE746444A1EB04529D9B6
:104390001100864200D065E7039A934200D061E79E
:1043A00062E7012149420120C21A382A21DD029B1D
:1043B00003409C4638E60F220A40042A00D15BE7FE
:1043C0000A00111D914292415242934454E7474BD7
:1043D000E318002BE5DD01225242F2E71D00FAE668
:1043E0009A461CE7B04239D86ED011003AE70293E2
:1043F0003AE71F2A3CDC20239B1A0C0058469940C0
:1044000098404B1E99415B46D440D340204308431B
:104410001A00430709D00F230340042B05D00100E5
:10442000081D88429B415B42D21813023AD50123F2
:10443000029A01241A400023944698460022F7E588
:10444000022149428C46039DE344AC46E244AA451E
:10445000AD416D424544ED182D1A96E68A1E03992A
:104460004D008D42894149424144761803958FE7BA
:104470001F204042C31A5846D8400300202A28D0A3
:1044800040205D46821A954029434A1E91411943B6
:10449000072300220B4009D00F2300220B40080005
:1044A000042BBDD1010053075202120BC908194356
:1044B000012388460299002419408C46B8E55245EC
:1044C000BED88B46002560E6039D9D42C6D31100F1
:1044D00062E70025D8E780225B4612031A43019B5E
:1044E0001203120B9C468846034CA1E5FF03000013
:1044F000FFFFFFFEFE070000FF070000F0B5574674
:104500004546DE464E46E0B50C0398464E00230B6A
:1045100087B0070092469B46760DCD0F002E6BD0DC
:104520006D4B9E4235D080245B46420F2404DB0055
:1045300014431C43C3009946684BA3469C46002382
:1045400000276644029343461C035A00DB0F504683
:10455000240B520D984600D176E05F4B9A426DD005
:104560008023410F1B040B435C49E4008C461C4331
:10457000C300002062444146B6186940721C019194
:10458000944607430F2F00D9B0E0554ABF00D259D7
:1045900097465B460343994600D087E000239B463D
:1045A000023308270293CEE742460192022867D0E1
:1045B000032800D10EE2012800D062E1002300248C
:1045C0000022994601990140CDB2002112030B0D42
:1045D000120B1B051343434A240513401C4364007C
:1045E000ED0764082C434846210007B03CBC9046C8
:1045F0009946A246AB46F0BD034399464FD05B4671
:10460000002B00D189E1584600F07AFD03000B3BF6
:104610001C2B00DD7AE11D22D31A3A0001005C4612
:10462000DA4008398C4013008F4023439B46B9463B
:1046300000232D4E0027361A029384E75346234366
:104640002AD10024022096E75346234320D0002C91
:1046500000D157E1200000F053FD03000B3B1C2B61
:1046600000DD49E11D21CB1A51460200D9405346D5
:10467000083A944093400C431B4A121A00207AE7F0
:104680000125019B144C1D400023002299469CE704
:104690000024002201206EE7534603206BE700232D
:1046A0009B4601330427002602934CE703238146EF
:1046B0000C27029347E78022002300251203994626
:1046C000054C82E75C464B4602986FE75C464B46DA
:1046D000019502986AE7C046FF07000001FCFFFF52
:1046E000FC5B0000FFFF0F800DFCFFFF4A464946C0
:1046F000170C1A0C1B041B0C08041900000C414376
:104700001500884619007D437943039589462900A1
:10471000150045434D44029545462D0CAA46029D81
:104720005544A94506D98A46802149028946CA448A
:1047300051460391290C0491414609042D04090CAA
:1047400088462900250C24044144240C05912100AD
:1047500041438846210079438A4668434146504494
:104760008146080C48446F43824503D980214902A1
:1047700089464F44010C894639004944029141461B
:104780000F0404993F0C88460004C0198044414638
:10479000049159460F0C0904090C884659438A466E
:1047A00039005143894641464A435146090C8B46DC
:1047B0007B43D2185A44934203D980235B029B4621
:1047C000D94451460904090C8A46414661437C4359
:1047D000130C12044B445244A1468A463C00414605
:1047E0006C434D4351464D440F0C7D19A94503D9E7
:1047F0008021490288464444049F0399B8464144B5
:104800008B468345804141428846514608042F0427
:10481000000C3F1858460299101889469042924160
:104820004F44BA46524299469346C244D144CB447F
:104830008F42BF41C245894199459B419345924171
:104840007F4249422D0C52420F435B4213437F1972
:10485000FF185B463C19DB0D059A64021C434302BA
:1048600013435D1EAB415A46C00D0343520213432E
:10487000E20156D501205A0803401343E2071343CF
:1048800064085A48604400284DDD5A0709D00F22B9
:104890001A40042A05D01A1D9A429B415B42E41833
:1048A0001300E20104D58020514AC0001440604446
:1048B000504A904200DDE3E60125DB0862071A4317
:1048C0006402019B9146220B4405640D1D407CE669
:1048D000802259461203114208D0144206D12243C5
:1048E0001203120B45469946434C6EE65B461A434B
:1048F0001203120B404C68E603005446283B9C40D0
:104900000023B9E600F0FCFB2030A6E60300283BBC
:104910009F400023BB4699468AE600F0F1FB203019
:1049200074E6B446ADE701252A1A382A06DD019B54
:1049300000241D4000230022994646E61F2A21DC60
:1049400020252000AD1A1E00AB40A840D6405D1EB9
:10495000AB4130431843D440430709D00F230340F1
:10496000042B05D00300181D98429B415B42E418BC
:10497000230221D50125019B01241D400023002293
:10498000994622E61F2521006D42281AC1400800E1
:10499000202A1DD05F35AA1A944023435C1EA341F0
:1049A000072503431D400022002D09D00F220024BB
:1049B0001A401800042AD6D1030065076402220BAE
:1049C000DB082B4301259946019B00241D40FCE593
:1049D0000024E2E7802201251203224301991203F9
:1049E000120B0D409946044CEFE5C046FF03000052
:1049F000FFFFFFFEFE070000FF070000F0B5464680
:104A0000D6464F460C03C0B5CD0F4E00610A440F89
:104A10000C43C1005800400D84468A460F0019031C
:104A2000500F490A0143C648760DA846DB0FD20055
:104A3000844500D1D8E001204340AB4200D1A6E03C
:104A40006046351A002D00DC05E1002810D10B006E
:104A5000134300D1D7E06B1E002B00D04BE153462F
:104A60009F1ABA458041641A4042241A01261EE06A
:104A7000B34B9E4248D080231B041943382D00DDE0
:104A800019E11F2D00DD4CE120230F005B1B1000FE
:104A90009A409F40E840531E9A41E940074317431C
:104AA0005346DF1B611ABA45A44164420C1B230222
:104AB00000D4C5E06402650A002D00D1F6E02800AC
:104AC00000F01EFB0300083B1F2B00DDE9E0202265
:104AD0003C00D21A9D40D4409F4025439E4200DDB9
:104AE000DBE09E1B731C1F2B00DD0AE12022380037
:104AF000D21A290097402C009140D8407A1E974145
:104B0000DC40002601430F437B0709D00F233B40C5
:104B1000042B05D03B1DBB42BF417F42E4191F005F
:104B2000230225D5864B01369E4200D1AFE0854B4E
:104B300001251C4043466207FF08640276051743BF
:104B4000240B760D1D4000212403230B0C0D7E4AFF
:104B500024051C431440330523435B00ED075B0829
:104B60002B43380019001CBC90469946A246F0BD64
:104B7000012543466207FF081743E4081D40704BB8
:104B80009E4236D024037605240B760DDBE7634680
:104B9000F31A002B00DC94E06046002835D068480A
:104BA0008642B1D080273F043943382B00DCFDE03A
:104BB0000A43170000217A1E974157445745804108
:104BC000091944420C1923023AD55D4B01369E4225
:104BD00000D14BE101225B4B1C407B0817401F4377
:104BE000E207174364088FE70800104300D024E76A
:104BF00021E723003B4300D1B9E180221203144393
:104C00002403240B9FE72E007EE70800104300D109
:104C1000CAE0581E8446002800D0E7E052445245BE
:104C2000804164184042241817000126230207D54A
:104C30000226CFE764462C4300D1B3E12C0067463F
:104C40007B0700D062E76307FF081F430125434647
:104C5000E4081D4093E7002D78D1751C6D056D0D9E
:104C6000012D00DCF2E05046801A8245BF41651AF2
:104C70007F42ED1B8446280200D48CE05046171A70
:104C8000BA4292410C1B5542651B984614E7012518
:104C9000434600241D40002755E72A4CF61A2C40B5
:104CA00032E73D0028388540002717E7380000F03C
:104CB00027FA203006E70A43170000217A1E9741A1
:104CC000EEE6002B00D0E5E0731C9C465B055B0D17
:104CD000012B00DC9FE01A4B9C4500D1C5E05244FB
:104CE00052458041641840422418E7075208174390
:104CF0006408664608E71248854200D185E01D0039
:104D0000BCE629001F3EF140202B00D17FE040226D
:104D1000D31A9D402F437D1EAF4100240F43002630
:104D20008EE72B000F00203BDF40202D71D0402369
:104D30005D1BA9400A43511E8A4100211743AFE67B
:104D4000FF070000FFFF7FFFFFFF0F80002E3ED018
:104D5000B34EB44545D0802636046D423443382DD9
:104D600000DDA8E01F2D00DD1FE1202627005046B2
:104D7000761BB740E84007435046B040461EB0415E
:104D8000EC403843171ABA4292410C1B5242A41A03
:104D9000664698468BE6644667462C4300D08BE611
:104DA000002500260027EAE61E00ADE61F2B60DC8A
:104DB0002027F81A0F00844687401000D840074388
:104DC00060468240501E8241D9401743F5E62600D6
:104DD0005046064305D0ED43002DD3D0904EB44548
:104DE000BDD10C001700664698468DE68C4883427C
:104DF0000BD06346D9E6002D00D096E008001043A2
:104E000000D1E2E00C0017009846854E7CE60025B4
:104E100080E700218EE7230050460343002E00D098
:104E2000A8E0002B00D1DEE00B00134300D16BE6BD
:104E3000524452458041641840422418170023020E
:104E400000D4FDE6774B66461C405DE625005046E3
:104E50000543002ECFD1002D4FD10C00144300D1BB
:104E6000A0E00C00170098464EE666460024002796
:104E700085E61F000800203FF8400700202B00D1E6
:104E80008EE04020C31A99400A43511E8A410021F6
:104E9000174392E6002E14D126005046064362D0F6
:104EA000DB43002B5CD18718974292416418524231
:104EB000A418664687E650462043441EA0410024BD
:104EC00060E7574EB4454ED0802636045B423443EB
:104ED000382B00DD7FE01F2B00DD8BE02026270034
:104EE0005046F61AB740D84007435046B040461ED9
:104EF000B0410743DC40BF18D6E70D00154300D191
:104F000002E65046801A8245BF41651A7F42ED1B7A
:104F10008446280200D48DE65046171ABA429241C0
:104F20000C1B5242A41A9846EEE50D00154300D121
:104F30006BE750466707C00807438020E40800037A
:104F4000044207D0CD08054204D12C009846D7086A
:104F500049070F437B0FE4001C43FF00304ED3E5AD
:104F60002F4EB445B4D10C0017006646CCE500279F
:104F70000024E8E5002B39D00B00134300D144E7AF
:104F8000C008670707438020E40800030442E1D01B
:104F9000CB080342DED1D70849070F431C00D9E7ED
:104FA000002171E700250027E9E52E002700203EBB
:104FB000F740202D2FD04026751BAC405046204393
:104FC000441EA04100243843DCE68024002524034D
:104FD000134E0027D3E5504620430700781E874133
:104FE0000024BF1860E70C0017008DE50C001700C7
:104FF0000B4E89E51E002700203EF740202B0CD0E9
:105000004026F31A9C4050462043441EA0410743CB
:105010000024BF1848E70024D0E70024F3E7C04687
:10502000FF070000FFFF7FFF30B5134D0A034B0061
:10503000120B5B0DC90F0024AB4210DD0F4CA342D5
:105040000FDC80240E4D64032243ED1A1F2D0BDD6F
:105050000C48C31ADA405442002900D11400200041
:1050600030BD094BCC18FAE7084CE840A44663442D
:105070009A400243EFE7C046FE0300001D04000013
:105080003304000013040000FFFFFF7FEDFBFFFF70
:1050900010B5041E28D000F033F8154B154A1B1A22
:1050A000D21A1F2A15DD144AD21A94400022240372
:1050B0005B05240B5B0D0021100024030A0D240B5B
:1050C000120522430D4C1B05224013435B00590877
:1050D00010BD210091400A000B21081AC4405B0555
:1050E0002403240B5B0DE6E7002300240022E2E703
:1050F0001E0400003304000013040000FFFF0F80B3
:105100001C2101231B04984201D3000C10391B0AF7
:10511000984201D3000A08391B09984201D30009BB
:10512000043902A2105C40187047C0460403020212
:1051300001010101000000000000000070B5002620
:105140000C4D0D4C641BA410A64209D1002600F0A2
:10515000BFFD0A4D0A4C641BA410A64205D170BDC8
:10516000B300EB5898470136EEE7B300EB58984789
:105170000136F2E7DC5C0000DC5C0000DC5C000077
:10518000E05C0000002310B59A4200D110BDCC5C59
:10519000C4540133F8E700000EB410B59DB002A965
:1051A000029008610B4882248860486101204042D7
:1051B0001FABC881084804CBA400006801938C8110
:1051C00000F0D6F80023029A13701DB010BC08BC82
:1051D00003B01847FFFFFF7F1800002002780B780C
:1051E000002A03D0013001319A42F7D0D01A70471B
:1051F000032370B5CD1C9D43083506000C2D1ED22F
:105200000C25A9421DD8300000F06DFB254A14681A
:105210002100002919D1244C2368002B03D1300030
:1052200000F032FB20602900300000F02DFB431C11
:105230002CD10C233000336000F056FB03E0002D2E
:10524000DFDA0C233360002070BD0B685B1B1AD4BF
:105250000B2B03D90B60CC18256003E08C420ED1D8
:1052600063681360300000F03FFB200007220B3022
:10527000231D9043C31AE7D05A42E250E4E74B683B
:1052800063600C00EEE70C004968C2E70323C41C0E
:105290009C43A042E0D0211A300000F0F5FA431CF4
:1052A000DAD1C6E7DC000020E0000020F0B58E680F
:1052B00085B007000C00039201939E4239D89023D9
:1052C0008A89DB001A4234D00325096923685B1AF6
:1052D0000293636902985D43EB0F5D19019B6D10AA
:1052E00001331B18AB4200D91D00530532D52900EC
:1052F0003800FFF77DFF061E09D10C233B604023D9
:105300000120A28940421343A38105B0F0BD029A57
:105310002169FFF737FFA389144A1A4080231343FA
:10532000A381029B2661F61826606561019EED1A35
:10533000A560019BB34200D21E0032000399206891
:1053400000F0BFFAA36800209B1BA36023689E198E
:105350002660DAE72A00380000F012FB061EE0D1D2
:105360002169380000F0C2FAC7E7C0467FFBFFFFA3
:10537000F0B59FB0029005938B890F0016001B06B5
:1053800011D50B69002B0ED14021FFF731FF38609A
:105390003861002805D10C23029A013813601FB030
:1053A000F0BD40237B61002306AD6B6120336B763B
:1053B0001033AB7634002378002B47D1A31B049322
:1053C0000DD0A31B320039000298FFF76FFF431C7A
:1053D00000D1B5E06A69049B944663446B6123780D
:1053E000002B00D1ACE00122002352426A6002A9E6
:1053F0005432521801342B60EB60AB601370AB6514
:10540000584E05222178300000F050FA621C002826
:1054100020D12968CB0604D5532302AE20309B1936
:1054200018700B0704D553232B2002AE9B1918705C
:1054300023782A2B16D000200A21099B2278303AA3
:10544000092A55D9002815D0099313E0252BB5D08A
:105450000134B0E70123801B8340296814000B430B
:105460002B60CDE7059B181D1B680590002B39DBD1
:105470000993140023782E2B0BD16378621C2A2BFE
:105480003ED1059B02341A1D1B680592002B34DBAC
:105490000793354E21780322300000F007FA0028E8
:1054A00006D04023801B83402A68013413432B60BD
:1054B000217806222D48661C297600F0F7F900288D
:1054C00046D02B4B002B2FD12968059B0722C905FD
:1054D00028D59B189343083305936B69039A9B184F
:1054E0006B6167E75B42EB6002230B432B60C0E715
:1054F0004B4301349B180120A0E701235B42C7E71F
:10550000002314000A201A006B6021783039092921
:1055100003D9002BBDD00792BBE742430134521898
:105520000123F2E70733D5E705AB00933A00114BAF
:105530002900029800E000BF0390039B0133CCD107
:10554000BB890B985B0600D429E70120404226E77F
:1055500005AB00933A00074B2900029800F07AF857
:10556000EAE7C0469C5C0000A25C0000A65C00006C
:1055700000000000AD520000F7B5150001938A68E5
:105580000B6900900C00934200DA130022002B609C
:1055900043321278002A01D001332B6023689B0626
:1055A00002D52B6802332B60062723681F4027D0C3
:1055B000230043331B785A1E93412268920630D44D
:1055C0002200019943320098089EB047431C25D021
:1055D000062320682A68E16803400025042B03D1D4
:1055E0008D1AEB43DB171D40A3682269934201DD4E
:1055F0009B1AED180027BD4220D1002010E0013792
:10560000E3682A689B1A9F42D2DA220001231932EA
:1056100001990098089EB047431CF0D101204042F8
:10562000FEBD3020E1184331087021005A1C45317D
:105630000978A218433202331170C1E72200012316
:105640001A3201990098089EB047431CE6D00137F2
:10565000D1E70000F0B58BB006920A004332079301
:10566000059004920A7E0C00109B6E2A00D18FE0F8
:1056700017D8632A2CD008D8002A00D199E0582ADC
:1056800054D026004236327029E0642A01D0692ABB
:10569000F7D121681A68080623D5111D196015680D
:1056A00025E0732A00D188E008D86F2A29D0702A13
:1056B000E7D1202209680A43226003E0752A20D03E
:1056C000782ADED122007821453211706C4A30E010
:1056D0000E001A684236111D1960136833700123D9
:1056E00079E04906D9D5111D19600023D55E002D3A
:1056F00003DA2D23049A6D421370624B0A27039339
:105700002FE020681968050603D5081D18600D688C
:1057100005E04006F9D50D68081D1860ADB2594B7B
:10572000082703936F2A18D00A2716E045310A701C
:10573000544A03921A682168101D186015680806FB
:1057400022D5CB0702D52023194321601027002D35
:1057500003D1202322689A4322602300002243338E
:105760001A706368A360002B5CDB042221689143FC
:105770002160002D58D1049E002B64D02600039B8D
:1057800042361B7833705EE04806DAD5ADB2D8E712
:1057900009681A68080605D5111D19601368626941
:1057A0001A6006E04906F7D5111D19601368A28A30
:1057B0001A800023049E236154E01A68111D1960A9
:1057C000166800216268300000F070F8002801D0EF
:1057D000801B6060636823610023049A137041E0BA
:1057E0002369320006990598079DA847431C43D0BA
:1057F000236800259B070FD4099BE06898423DDA97
:1058000018003BE022000123193206990598079EF3
:10581000B047431C30D00135E368099A9B1A9D427A
:10582000F0DBE9E7002DA9D0049E28003900FDF740
:1058300007FF039B013E5B5C280033703900FDF7D6
:1058400079FE051EF1D1082F09D12368DB0706D5A3
:1058500063682269934202DC3023013E3370049B6B
:105860009B1B2361079B09AA00932100069B0598B7
:10587000FFF782FE431CB3D1012040420BB0F0BDC4
:10588000BE5C0000AD5C0000002370B5064C050056
:1058900008002360FDF762FB431C03D12368002B43
:1058A00000D02B6070BDC046A0020020C9B2821893
:1058B000904201D10020704703788B42FBD0013029
:1058C000F6E710B5884202D98B18984208D3002316
:1058D0009A4207D0CC5CC4540133F9E78B5C835403
:1058E000013AFBD210BD70477047000070B505004B
:1058F000002910D00C1F2368002B00DAE4182800C0
:10590000FFF7F1FF1D4A1368002B05D16360146097
:105910002800FFF7E9FF70BDA34209D9216860188C
:105920008342F3D118685B6841182160EEE71300E9
:105930005A68002A01D0A242F9D919685818A04221
:105940000BD120680918581819608242E0D11068FC
:105950005268411819605A60DAE7A04202D90C2354
:105960002B60D5E721686018824203D11068526825
:105970004118216062605C60CAE7C046DC0000201C
:10598000F8B507000D001600002905D11100FFF73A
:105990002FFC04002000F8BD002A03D1FFF7A6FF6A
:1059A0003400F7E700F012F82C008642F2D93100FB
:1059B0003800FFF71DFC041EECD029003200FFF771
:1059C000E1FB29003800FFF791FFE3E70B1F1B689D
:1059D000181F002B01DA0B58C01870474F43544F63
:1059E000000000003C4F4B3E000000004F4B000009
:1059F0003C424F4152443E0064000200100000202F
:105A000000000000640002000C0000200000000004
:105A1000640004009C000020000000000A0F000049
:105A200056110000561100005611000056110000DA
:105A300056110000561100005611000056110000CA
:105A400056110000561100005611000056110000BA
:105A5000561100005611000056110000F20E000011
:105A6000561100005611000056110000561100009A
:105A7000561100005611000056110000561100008A
:105A8000561100005611000056110000561100007A
:105A9000561100005611000056110000020F0000C0
:105AA000561100005611000056110000561100005A
:105AB000561100005611000056110000561100004A
:105AC000561100005611000056110000561100003A
:105AD000561100005611000056110000FA0E000089
